:10780000112404B714BE57985F9A4F9914C001FD14
:1078100012C080E0CED068EA71E680E090E088D0C7
:107820004F9907C068EA71E680E090E081D04F9BF5
:10783000EFD08CE0BED001FFD3D082E08093C000B7
:1078400088E18093C10086E08093C20089E1809343
:10785000C4008EE0AED0CC24DD249FD0813461F40E
:107860009CD0082FACD0023811F0013811F484E01C
:1078700001C083E08AD056C0823411F484E103C091
:10788000853419F485E0A4D04DC0853579F485D0D0
:10789000E82EFF2482D0082F10E0102F00270E2999
:1078A0001F29000F111F8BD068013CC0863521F4C1
:1078B00084E08ED080E0DECF843671F46ED06DD05F
:1078C000082F6BD0C0E2D3E068D089930150E1F774
:1078D00076D0C60188D326C08437B1F45ED05DD09F
:1078E000F82E5BD06CD0F601EF2C8F010F5F1F4F8D
:1078F00084914BD0EA94F801C1F70894C11CD11CC3
:10790000FA94CF0CD11C0EC0853739F458D08EE1D3
:107910003CD085E93AD08FE0ADCF813511F488E0D5
:1079200048D04DD080E131D098CF3B9A439A08950A
:10793000DF93CF9300D000D0CDB7DEB79B01AC0171
:1079400019821A821B821C8219821A821B821C8253
:107950000CC0000089819A81AB81BC810196A11D78
:10796000B11D89839A83AB83BC8389819A81AB8162
:10797000BC8182179307A407B50758F30F900F90A7
:107980000F900F90CF91DF910895982F8091C000B4
:1079900085FFFCCF9093C60008958091C00087FFBB
:1079A000FCCF8091C00084FD01C0A8958091C600E5
:1079B0000895E0E6F0E098E1908380830895EDDF9C
:1079C000803221F088E0F5DF7894FFCF84E1DDCFCD
:1079D0001F93182FE2DF1150E9F7F1DF1F9108958F
:1079E00080E0E7DFEE27FF270994F8941124A7EF42
:1079F000B8E0FC0189E001900D928150E1F786EF3B
:107A000098E09EBF8DBF21D188E0D3DF7894FFCF6F
:107A100080E0CFDF83E48093000186E4809301015E
:107A200087E4809302011092030180E091E0DDCFB2
:107A30008EBD0DB407FEFDCF08951F93CF93DF9346
:107A40008FEFF6DF4198C3E0D1E08991F1DF81E06B
:107A5000C930D807D1F710E08FEFEADF8EB587FF86
:107A600003C01F5F1F3FC1F7DF91CF911F910895A2
:107A70001F93CF93DF93660F771F881F991F21E510
:107A80002093030180930401709305016093060124
:107A900010920701D2DF882341F41FEF8FEFC8DF78
:107AA0008EB58E3F29F01150C9F7419A83E010C07E
:107AB000CEE1D1E08FEFBCDF8EB5899383E0CE318C
:107AC000D807C1F78FEFB4DF8FEFB2DF419A80E0C4
:107AD000DF91CF911F9108956F927F929F92AF9205
:107AE000BF92CF92DF92EF92FF920F931F93CF93AB
:107AF000DF93A0901C01B0901D018EE1A81683E0D9
:107B0000B80608F461C0C0911401D0911501C0906D
:107B10001601D0901701E09011019E2C9694892DAA
:107B2000860103C01695079586958823D9F760903E
:107B30001201709013012FEF16C08D2F9927F82E88
:107B4000281731F0B301680F711D80E090E090DFDD
:107B5000FE01F070EE0FFF1FE25EFE4FC081D1818B
:107B6000015010402F2D0115110539F722979E0164
:107B700040E050E005C0220F331F441F551F96946C
:107B80009920C9F7EA94EC2060910B0170910C01E7
:107B900080910D0190910E016E0D711D811D911D41
:107BA000620F731F841F951F63DF0894C11CD11CD3
:107BB000D0921701C092160180E09EEFA80EB91E68
:107BC000B0921D01A0921C018091180190911901A1
:107BD000A0911A01B0911B010197A109B1098093ED
:107BE000180190931901A0931A01B0931B01E09121
:107BF0001C01F0911D018191F0931D01E0931C0186
:107C0000DF91CF911F910F91FF90EF90DF90CF9078
:107C1000BF90AF909F907F906F900895813614F041
:107C200087550895813414F08753089580330CF0FC
:107C3000805308951F9350DFF1DF182F4DDFEEDFE3
:107C40001295107F810F1F9108954F925F926F924E
:107C50007F928F929F92AF92BF92CF92DF92EF92DC
:107C6000FF920F931F93CF93DF932A9A84B18C6274
:107C700084B9399A83E58CBD8DB58E7F8DBD0AE0C0
:107C80008FEFD6DE0150E1F780E48093030110927C
:107C9000040110920501109206011092070185E976
:107CA00080930801CADE182F419A8FEFC1DE113090
:107CB00009F467C10F5F0031A9F729C1419A8FEF1D
:107CC000B7DEBBDE8823D1F735C1809158018633FA
:107CD00029F4109213011092120117C06091E4026E
:107CE0007091E5028091E6029091E7027093130192
:107CF00060931201BDDE80915401863409F007C102
:107D000080915801863309F002C180912B01809344
:107D1000110140912C0150912D01809112019091FF
:107D20001301480F591F5093130140931201809182
:107D30002E0190E02091340130913501829F500155
:107D4000839FB00C929FB00C1124A40EB51EB0926C
:107D50000A01A0920901C0902F01D090300134E0B7
:107D6000D694C7943A95E1F7D0921001C0920F01D2
:107D7000C5018C0D9D1DA0E0B0E080930B01909398
:107D80000C01A0930D01B0930E0180901C01909006
:107D90001D014090160150901701E0901801F090DD
:107DA000190100911A0110911B016090140170904B
:107DB0001501C0E0D0E0BE0124E0769567952A95D4
:107DC000E1F76C157D05F0F56A0D7B1D80E090E014
:107DD0004FDE9E012F70A22FB0E095E0AA0FBB1FCF
:107DE0009A95E1F7A25EBE4F8C91882359F15A967D
:107DF0002D913C915B972115310521F15C96ED9019
:107E0000FD900D911C915F978EE1882E83E0982E56
:107E100051E090E009C040E0EA0FFB1F8081681745
:107E200009F441E054239F5FE92FF0E0E950F74F58
:107E30006081E75FF840662371F7552329F09923A5
:107E400019F083C0930102C044245524219682E096
:107E5000C030D80711F03901AECF90921D01809249
:107E60001C015092170140921601E0921801F09205
:107E7000190100931A0110931B01309315012093EF
:107E8000140181E090E045C01123C9F0D3DE89934D
:107E9000115023E0C03AD20719F580911E0390914A
:107EA0001F03A1D080911E0390911F0380589F4F04
:107EB00090931F0380931E03C0E2D3E011C00CDE39
:107EC0008A3371F4B7DE182F80911C0190911D0147
:107ED000049690931D0180931C01ACDE882361F40D
:107EE0008091180190911901A0911A01B0911B0184
:107EF0000097A105B10541F6C052D34029F0809109
:107F00001E0390911F036FD080E090E002C082E0DA
:107F100090E0DF91CF911F910F91FF90EF90DF9054
:107F2000CF90BF90AF909F908F907F906F905F9019
:107F30004F90089560E070E080E090E099DD8091DE
:107F40005401863409F0CACEC0CE90921D018092B1
:107F50001C011092170110921601E0921801F09284
:107F6000190100931A0110931B01309315012093FE
:107F7000140110921F0310921E03C0E2D3E010E020
:107F8000AFCF81E4809303019CCE1F93AC01F9999C
:107F9000FECF83E0FA0180935700E89507B600FC16
:107FA000FDCF20E030E011E0F901E40FF51FDB0127
:107FB000A20FB31F8D919C910C0110935700E8956F
:107FC00011242E5F3F4F2038310571F785E0FA010B
:107FD00080935700E89507B600FCFDCF81E187BF8D
:107FE000E8951F91089527E78130920718F460E221
:067FF00073E0CBCF089501
:047FFA00C7CFF6CC2B
:027FFE00040479
:040000030000780081
:100000000C9452010C946F010C946F010C946F01CD
:100010000C946F010C946F010C946F010C94A11B54
:100020000C946F010C946F010C946F010C946F0190
:100030000C946F010C946F010C946F010C946F0180
:100040000C9461170C946F010C946F010C946F0168
:100050000C946F010C946F010C946F010C946F0160
:100060000C946F010C946F01000000000000005F11
:1000700000000007000700147F147F14242A7F2A41
:10008000122313086462364955225000050300000C
:10009000001C2241000041221C0014083E081408E4
:1000A000083E0808005030000008080808080060F2
:1000B00060000020100804023E5149453E00427F86
:1000C000400042615149462141454B311814127F8D
:1000D0001027454545393C4A494930017109050316
:1000E0003649494936064949291E0036360000007E
:1000F0005636000008142241001414141414004150
:100100002214080201510906324979413E7E11113B
:10011000117E7F494949363E414141227F4141227A
:100120001C7F494949417F090909013E4149497AF2
:100130007F0808087F00417F41002040413F017F48
:10014000081422417F404040407F020C027F7F0420
:1001500008107F3E4141413E7F090909063E415159
:10016000215E7F09192946464949493101017F012C
:10017000013F4040403F1F2040201F3F4038403F4C
:100180006314081463070870080761514945430068
:100190007F41410002040810200041417F00040219
:1001A0000102044040404040000102040020545439
:1001B00054787F48444438384444442038444448C0
:1001C0007F3854545418087E0901020C5252523E92
:1001D0007F0804047800447D40002040443D007FB7
:1001E0001028440000417F40007C041804787C08FB
:1001F00004047838444444387C1414140808141453
:10020000187C7C080404084854545420043F44409B
:10021000203C4040207C1C2040201C3C4030403C86
:1002200044281028440C5050503C4464544C440022
:100230000836410000007F00000041360800100829
:1002400008100878464146780000000800020100C6
:100250000003040700000000000000000102040881
:100260001020408001020408102001020408102020
:10027000040404040404040402020202020203034C
:1002800003030303000000002300260029000000F0
:100290000000250028002B0000000000240027009B
:1002A0002A00020011241FBECFEFD8E0DEBFCDBF71
:1002B00014E0A0E0B1E0E0ECFDE302C005900D9297
:1002C000AC3EB107D9F725E0ACEEB4E001C01D9219
:1002D000A433B207E1F70E94461C0C94DE1E0C9476
:1002E0000000CF93C62F682F8AE00E94FE1860E0BE
:1002F00089E00E94FE18CEBD00000DB407FEFDCFC0
:100300008EB561E089E0CF910C94FE18843591059B
:1003100028F56033710510F59B012770332733E012
:10032000759567953A95E1F734E5369FF001379F6B
:10033000F00D1124E80FF91FEE56FD4F81E090E01B
:10034000022E01C0880F0A94EAF7442319F0908125
:10035000982B03C0809590819823908308953F92B5
:100360004F925F926F927F928F929F92AF92BF92C5
:10037000CF92DF92EF92FF920F931F93CF93DF9371
:100380007C01EB014A013901302E8901061B170B54
:100390006A01C81AD90A17FF07C0119501951109FA
:1003A000AA24AA94BA2C03C0AA24A394B12CD7FEE1
:1003B00007C0D194C194D10844244A94542C03C05A
:1003C00044244394512C000F111FCC0CDD1C432DF1
:1003D000BE01C7010E9486010C151D05CCF4C601A3
:1003E000959587953801681A790AE814F90449F156
:1003F00077FC04C0CA0DDB1D6C187D08E40CF51CED
:10040000600E711E432DBE01C7010E948601EDCF13
:10041000C801959587954601881A990AC615D7058A
:1004200081F097FC04C0E40CF51C801A910ACA0DF7
:10043000DB1D8C0C9D1C432DBE01C7010E94860153
:10044000EDCFDF91CF911F910F91FF90EF90DF9053
:10045000CF90BF90AF909F908F907F906F905F9064
:100460004F903F900895AF92BF92CF92DF92EF925C
:10047000FF920F931F93CF93DF935C017B01EA01FF
:1004800069019B010E94AF019601AE01B601C50151
:100490000E94AF019601A501B701C5010E94AF01FD
:1004A0009601AE01B701CE010E94AF01DF91CF915D
:1004B0001F910F91FF90EF90DF90CF90BF90AF9082
:1004C00008956F927F928F929F92AF92BF92CF9238
:1004D000DF92EF920F93CF93DF93EC014B016A0110
:1004E00039010023F9F04817590724F45C01A41AD4
:1004F000B50A12C05A01A81AB90A0EC00E2D9301EE
:10050000AE01B401CE010E94AF01CC16DD0644F469
:10051000219781E0A81AB1081A141B047CF305C0C6
:100520002196F7CF0E2D0E943302DF91CF910F91CC
:10053000EF90DF90CF90BF90AF909F908F907F9083
:100540006F9008954F925F926F927F928F929F92D9
:10055000AF92BF92CF92DF92EF92FF920F931F93D1
:10056000CF93DF93642E552E722E8B0195E0890276
:1005700050011124C12CD12CC501885390405C013D
:10058000442443944226F501EC0DFD1D8490C62DB4
:10059000D52DE12CF12C912CC4010E2C02C0959587
:1005A00087950A94E2F780FF02C0472D01C0442DD1
:1005B000BE01C8010E9486019FEFE91AF90A21963F
:1005C00088E0E816F10441F79FEFC91AD90A0F5FD6
:1005D0001F4F85E0C816D104B1F6DF91CF911F916E
:1005E0000F91FF90EF90DF90CF90BF90AF909F90D2
:1005F0008F907F906F905F904F9008956F927F9251
:100600008F929F92AF92BF92CF92DF92EF92FF9222
:100610000F931F93CF93DF93EB018A01622E6C013E
:10062000772473947226F60181916F01882319F162
:10063000262DA801BE010E94A2024E0185E0880E6F
:10064000911C78015801E7E0AE0EB11CAE14BF0456
:100650004CF0472DB701C4010E948601FFEFEF1A4D
:10066000FF0AF4CF2696C035D105ECF2085F1F4F84
:10067000C0E0D0E0D8CFDF91CF911F910F91FF90D4
:10068000EF90DF90CF90BF90AF909F908F907F9032
:100690006F900895E2E9F2E09FEF882311F09083D4
:1006A00001C01082319624E0EA38F207B1F70895CC
:1006B000CF93C62F682F606880E00E9471016C2F75
:1006C000606480E0CF910C947101CF93DF9360E080
:1006D00070E080E090E00E945803C2E9D2E06991A6
:1006E00081E00E94710184E0CA38D807C1F7DF9128
:1006F000CF910895CF93C82F61E280E00E947101ED
:100700006C2F606880E00E94710160E280E0CF9110
:100710000C94710161E089E00E94C51861E08AE0F3
:100720000E94C51861E08BE00E94C51861E08DE071
:100730000E94C51861E085E00E94C51860E070E085
:1007400085E00E943D180E942B178CB5837F8CBDDD
:100750008CB58F7D8CBD279A2F9864EF71E080E077
:1007600090E00E94DA172F9A61E280E00E94710106
:1007700060EB80E00E94710164E080E00E94710102
:1007800064E180E00E94710160E280E00E947101FA
:100790006CE080E00C9471016FEF70E0681B7109F0
:1007A00085E00C943D1880E00E944A0321E044E17A
:1007B00050E06CE170E08BE894E00E94FE020E9441
:1007C000650361E081E10E94FE1860E080E10E9423
:1007D000FE1824EF31E040E050E068EE73E08EE078
:1007E0000E945D1964EF71E080E090E00E94DA17EA
:1007F00060E081E10E94FE1861E080E10E94FE1845
:1008000024EF31E040E050E06CED75E08EE00E94B6
:100810005D1964EF71E080E090E00E94DA1761E01A
:1008200081E10E94FE1860E080E10E94FE1824EF42
:1008300031E040E050E060ED77E08EE00E945D192D
:1008400064EF71E080E090E00E94DA1760E081E1FF
:100850000E94FE1860E080E10E94FE1824EF31E063
:1008600040E050E064EC79E08EE00E945D1968EEB3
:1008700073E080E090E00E94DA178EE00E948C1B0B
:1008800064EF71E080E090E00E94DA1761E081E1BE
:100890000E94FE1861E080E10E94FE1824EF31E022
:1008A00040E050E060EA7FE08EE00E945D1968EE73
:1008B00073E080E090E00E94DA178EE00E948C1BCB
:1008C00060E081E10E94FE1860E080E10E94FE1875
:1008D00060ED77E080E090E00C94DA17CF93C82FBA
:1008E00061E081E10E94C51861E080E10E94C518C5
:1008F00061E08FE00E94C51860E084E00E94C518A6
:1009000061E084E00E94FE1860E088E00E94C51863
:1009100061E088E00E94FE1860E087E00E94C51850
:1009200061E087E00E94FE1860E086E00E94C51842
:1009300061E086E00E94FE1860E082E00E94C51837
:1009400061E082E00E94FE1860E083E00E94C5182A
:1009500061E083E00E94FE180E948A038091910268
:100960000E947A0360E070E085E00E943D1861E03B
:100970008EE00E94C518CC2319F0CF910C94D303BC
:10098000CF9108950F931F93CF93DF93182F8F70FC
:1009900090E000E068EB71E08B3091052CF4CAE048
:1009A000D0E0C81BD90B17C0EC012A97802F90E02C
:1009B0008C179D072CF5882777FD8095982F0E942E
:1009C000F11C23E63CE947E85FE30E947D1D0E949D
:1009D000BE1C0F5FEBCF802F90E08C179D0784F437
:1009E000882777FD8095982F0E94F11C23E63CE92B
:1009F00047E85FE30E94561C0E94BE1C0F5FEBCFCE
:100A0000107F212F30E0213231055CF480E290E04C
:100A1000821B930B44E0959587954A95E1F740E05A
:100A200018C0C901809734E0959587953A95E1F70C
:100A300040E0242F30E02817390784F4660F771F31
:100A40004F5FF7CF77FF02C06F5F7F4F7595679558
:100A50004F5F242F30E028173907A4F3CB01DF9133
:100A6000CF911F910F91089580910D0590910E05E2
:100A7000A0910F05B0911005892B8A2B8B2B51F477
:100A80000E94AB1760930D0570930E0580930F05C0
:100A9000909310050E94AB1720911105309112051B
:100AA00040910D0550910E05241B350B260F371F65
:100AB000309312052093110580911305992787FD26
:100AC0009095FC01EB5EFD4F61816F7040EA5FE045
:100AD00002C0559547956A95E2F7421753076CF4A3
:100AE000241B350B309312052093110502966CE7F9
:100AF00070E00E94E01D8093130580911105909194
:100B00001205E0911305889774F4AE2FBB27A7FD5B
:100B1000B095AB5EBD4F11968C9184FD04C08EE004
:100B20000E948C1B16C0FF27E7FDF095EB5EFD4F82
:100B30008081982F9F7099F390911405992379F3F0
:100B40000E94C20420E030E0A901BC018EE00E94B6
:100B50005D190E94AB1760930D0570930E0580938D
:100B60000F05909310050895CF9381E00E946E04C5
:100B70000E948A038CE30E947A0380E090E00E9446
:100B8000C01EC82F81E090E00E94C01E2FEF829F00
:100B9000C00111248C0F911D9093080580930705C7
:100BA000CF9108950F9380910505E091040524E00D
:100BB000E29FF0011124E80FF11D87FDFA95EE0F79
:100BC000FF1FEB5FFE4F808187FF16C06091060517
:100BD00083E06802B00111248091090223E08202BF
:100BE000C00111249B012E5F3F4FAC01435E5F4F5C
:100BF00001E04B960E94330280910505E0910405C7
:100C000094E0E99FF0011124E80FF11D87FDFA95AA
:100C1000EE0FFF1FEB5FFE4F808186FF1CC06091CF
:100C2000060523E06202B001112420910902332756
:100C300027FD30952F5F3F4FC901880F991F820F05
:100C4000931F9B012E5F3F4FAC01435E5F4F01E05E
:100C50004B960E94330280910505E091040594E0D3
:100C6000E99FF0011124E80FF11D87FDFA95EE0FC1
:100C7000FF1FEB5FFE4F808185FF1CC06091060562
:100C800023E06202B001112420910902332727FDDD
:100C900030952E5F3F4FC901880F991F820F931F18
:100CA0009B012E5F3F4FAC01435E5F4F01E04B96CF
:100CB0000E94330280910505E091040594E0E99FCC
:100CC000F0011124E80FF11D87FDFA95EE0FFF1FCB
:100CD000EB5FFE4F808184FF1CC06091060523E01E
:100CE0006202B001112420910902332727FD3095BB
:100CF0002D5F3F4FC901880F991F820F931F9B01E2
:100D00002E5F3F4FAC01435E5F4F01E04B960E9468
:100D1000330280910505E091040594E0E99FF0011C
:100D20001124E80FF11D87FDFA95EE0FFF1FEB5F11
:100D3000FE4F808183FF1BC080910605992787FDA8
:100D400090950196BC01660F771F680F791F8091FF
:100D5000090223E08202C00111249B012E5F3F4F54
:100D6000AC01435E5F4F01E04B960E9433028091DD
:100D70000505E091040594E0E99FF0011124E80FD6
:100D8000F11D87FDFA95EE0FFF1FEB5FFE4F80818F
:100D900082FF21C080910605992787FD90950196D5
:100DA000BC01660F771F680F791F20910902332756
:100DB00027FD30952F5F3F4FC901880F991F820F84
:100DC000931F9B012E5F3F4FAC01435E5F4F01E0DD
:100DD0004B960E94330280910505E091040524E0C2
:100DE000E29FF0011124E80FF11D87FDFA95EE0F47
:100DF000FF1FEB5FFE4F808181FF21C080910605C0
:100E0000992787FD90950196BC01660F771F680FA3
:100E1000791F20910902332727FD30952E5F3F4F20
:100E2000C901880F991F820F931F9B012E5F3F4FAF
:100E3000AC01435E5F4F01E04B960E94330280910C
:100E40000505E091040594E0E99FF0011124E80F05
:100E5000F11D87FDFA95EE0FFF1FEB5FFE4F8081BE
:100E600080FF21C080910605992787FD9095019606
:100E7000BC01660F771F680F791F20910902332785
:100E800027FD30952D5F3F4FC901880F991F820FB5
:100E9000931F9B012E5F3F4FAC01435E5F4F01E00C
:100EA0004B960E94330280910505E091040524E0F1
:100EB000E29FF0011124E80FF11D87FDFA95EE0F76
:100EC000FF1FEB5FFE4F818187FF1BC080910605EE
:100ED000992787FD90950296BC01660F771F680FD2
:100EE000791F8091090223E08202C00111249B0135
:100EF0002E5F3F4FAC01435E5F4F01E04B960E9477
:100F0000330280910505E091040594E0E99FF0012A
:100F10001124E80FF11D87FDFA95EE0FFF1FEB5F1F
:100F2000FE4F818186FF21C080910605992787FDAC
:100F300090950296BC01660F771F680F791F20916C
:100F40000902332727FD30952F5F3F4FC901880FD6
:100F5000991F820F931F9B012E5F3F4FAC01435E91
:100F60005F4F01E04B960E94330280910505E091AE
:100F7000040524E0E29FF0011124E80FF11D87FD34
:100F8000FA95EE0FFF1FEB5FFE4F818185FF21C0B9
:100F900080910605992787FD90950296BC01660F02
:100FA000771F680F791F20910902332727FD30959D
:100FB0002E5F3F4FC901880F991F820F931F9B011E
:100FC0002E5F3F4FAC01435E5F4F01E04B960E94A6
:100FD000330280910505E091040594E0E99FF0015A
:100FE0001124E80FF11D87FDFA95EE0FFF1FEB5F4F
:100FF000FE4F818184FF21C080910605992787FDDE
:1010000090950296BC01660F771F680F791F20919B
:101010000902332727FD30952D5F3F4FC901880F07
:10102000991F820F931F9B012E5F3F4FAC01435EC0
:101030005F4F01E04B960E94330280910505E091DD
:10104000040524E0E29FF0011124E80FF11D87FD63
:10105000FA95EE0FFF1FEB5FFE4F818183FF1BC0F0
:1010600080910605992787FD90950396BC01660F30
:10107000771F680F791F8091090223E08202C00167
:1010800011249B012E5F3F4FAC01435E5F4F01E097
:101090004B960E94330280910505E091040594E08F
:1010A000E99FF0011124E80FF11D87FDFA95EE0F7D
:1010B000FF1FEB5FFE4F818182FF21C080910605FB
:1010C000992787FD90950396BC01660F771F680FDF
:1010D000791F20910902332727FD30952F5F3F4F5D
:1010E000C901880F991F820F931F9B012E5F3F4FED
:1010F000AC01435E5F4F01E04B960E94330280914A
:101100000505E091040524E0E29FF0011124E80FB9
:10111000F11D87FDFA95EE0FFF1FEB5FFE4F8181FA
:1011200081FF21C080910605992787FD9095039640
:10113000BC01660F771F680F791F209109023327C2
:1011400027FD30952E5F3F4FC901880F991F820FF1
:10115000931F9B012E5F3F4FAC01435E5F4F01E049
:101160004B960E94330280910505E091040594E0BE
:10117000E99FF0011124E80FF11D87FDFA95EE0FAC
:10118000FF1FEB5FFE4F818180FF21C0809106052C
:10119000992787FD90950396BC01660F771F680F0E
:1011A000791F20910902332727FD30952D5F3F4F8E
:1011B000C901880F991F820F931F9B012E5F3F4F1C
:1011C000AC01435E5F4F01E04B960E9433020F91EA
:1011D00008950F93CF93DF93E0910802D1E0E111DE
:1011E000D0E0D1958EEF8E0F833048F0C1E0E6302D
:1011F00009F0C0E0C195E53019F4C1E001C0CFEFBE
:1012000088E0E89FF0011124EB5FFE4F808187FFAB
:1012100014C06D2F772767FD70959B01225F3F4FAC
:101220008C2F992787FD9095AC01455F5F4F645FD8
:101230007F4F01E009960E943302E091080288E0A6
:10124000E89FF0011124EB5FFE4F808186FF14C000
:101250006D2F772767FD70959B01225F3F4F8C2F85
:10126000992787FD9095AC01425F5F4F645F7F4F88
:1012700001E00C960E943302E091080288E0E89FAA
:10128000F0011124EB5FFE4F808185FF14C06D2FAC
:10129000772767FD70959B01225F3F4F8C2F992721
:1012A00087FD9095AC014F5E5F4F645F7F4F01E01B
:1012B0000F960E943302E091080288E0E89FF00157
:1012C0001124EB5FFE4F808184FF14C06D2F7727C0
:1012D00067FD70959B01225F3F4F8C2F992787FDFB
:1012E0009095AC014C5E5F4F645F7F4F01E042968A
:1012F0000E943302E091080288E0E89FF001112487
:10130000EB5FFE4F808183FF14C06D2F772767FD51
:1013100070959B012F5E3F4F8C2F992787FD9095ED
:10132000AC01455F5F4F615F7F4F01E009960E940E
:101330003302E091080288E0E89FF0011124EB5F9E
:10134000FE4F808182FF14C06D2F772767FD709557
:101350009B012F5E3F4F8C2F992787FD9095AC0105
:10136000425F5F4F615F7F4F01E00C960E94330246
:10137000E091080288E0E89FF0011124EB5FFE4F46
:10138000808181FF14C06D2F772767FD70959B01C9
:101390002F5E3F4F8C2F992787FD9095AC014F5EB4
:1013A0005F4F615F7F4F01E00F960E943302E09133
:1013B000080288E0E89FF0011124EB5FFE4F808176
:1013C00080FF14C06D2F772767FD70959B012F5EFE
:1013D0003F4F8C2F992787FD9095AC014C5E5F4F56
:1013E000615F7F4F01E042960E943302E091080264
:1013F00088E0E89FF0011124EB5FFE4F818187FFB9
:1014000014C06D2F772767FD70959B012C5E3F4FB1
:101410008C2F992787FD9095AC01455F5F4F6E5EDD
:101420007F4F01E009960E943302E091080288E0B4
:10143000E89FF0011124EB5FFE4F818186FF14C00D
:101440006D2F772767FD70959B012C5E3F4F8C2F8A
:10145000992787FD9095AC01425F5F4F6E5E7F4F8D
:1014600001E00C960E943302E091080288E0E89FB8
:10147000F0011124EB5FFE4F818185FF14C06D2FB9
:10148000772767FD70959B012C5E3F4F8C2F992726
:1014900087FD9095AC014F5E5F4F6E5E7F4F01E020
:1014A0000F960E943302E091080288E0E89FF00165
:1014B0001124EB5FFE4F818184FF14C06D2F7727CD
:1014C00067FD70959B012C5E3F4F8C2F992787FD00
:1014D0009095AC014C5E5F4F6E5E7F4F01E042968F
:1014E0000E943302E091080288E0E89FF001112495
:1014F000EB5FFE4F818183FF14C06D2F772767FD5F
:1015000070959B01295E3F4F8C2F992787FD909501
:10151000AC01455F5F4F6B5E7F4F01E009960E9413
:101520003302E091080288E0E89FF0011124EB5FAC
:10153000FE4F818182FF14C06D2F772767FD709564
:101540009B01295E3F4F8C2F992787FD9095AC0119
:10155000425F5F4F6B5E7F4F01E00C960E9433024B
:10156000E091080288E0E89FF0011124EB5FFE4F54
:10157000818181FF14C06D2F772767FD70959B01D6
:10158000295E3F4F8C2F992787FD9095AC014F5EC8
:101590005F4F6B5E7F4F01E00F960E943302E09138
:1015A000080288E0E89FF0011124EB5FFE4F818183
:1015B00080FF14C06D2F772767FD70958C2F9927BA
:1015C00087FD90959B01295E3F4FAC014C5E5F4FBC
:1015D0006B5E7F4F01E042960E943302DF91CF9114
:1015E0000F910895E091040590E024E0E29FF0015E
:1015F0001124DF01A80FB91FAA0FBB1FAB5FBE4F9D
:101600004C9147FF17C020910605309109025AE01E
:101610002502D0011124A30FB11D37FDBA95A35C9B
:10162000BE4F5C915111F8C13A3008F0F5C120313C
:1016300008F0F2C146FF19C0209106053091090259
:101640005AE02502D0011124A35CBE4FA30FB11DA7
:1016500037FDBA9511965C915111DEC13F5F3A306A
:1016600008F0DAC1203108F0D7C145FF19C0209138
:101670000605309109025AE02502D0011124A35C2D
:10168000BE4FA30FB11D37FDBA9512965C91511153
:10169000C3C13E5F3A3008F0BFC1203108F0BCC181
:1016A00044FF19C020910605309109025AE0250235
:1016B000D0011124A35CBE4FA30FB11D37FDBA9515
:1016C00013965C915111A8C13D5F3A3008F0A4C156
:1016D000203108F0A1C143FF20C050910605609160
:1016E0000902252F332727FD30952F5F3F4F7AE0E2
:1016F000729FD001739FB00D1124A60FB11D67FD1D
:10170000BA95A35CBE4F2C91211186C16A3008F0B6
:1017100083C15F5F503108F07FC142FF22C050910A
:10172000060560910902252F332727FD30952F5F8D
:101730003F4F7AE0729FD001739FB00D1124A35CDC
:10174000BE4FA60FB11D67FDBA9511962C912111C0
:1017500063C16F5F6A3008F05FC15F5F503108F0AE
:101760005BC141FF22C05091060560910902252FFF
:10177000332727FD30952F5F3F4F7AE0729FD001CE
:10178000739FB00D1124A35CBE4FA60FB11D67FD62
:10179000BA9512962C9121113FC16E5F6A3008F004
:1017A0003BC15F5F503108F037C140FF22C040911C
:1017B000060550910902242F332727FD30952F5F0E
:1017C0003F4F6AE0629FD001639FB00D1124A35C7C
:1017D000BE4FA50FB11D57FDBA9513962C9121113F
:1017E0001BC15D5F5A3008F017C14F5F403108F0F0
:1017F00013C1E80FF91FEE0FFF1FEB5FFE4F2181B2
:1018000027FF1FC03091060540910902832F9927B9
:1018100087FD909502965AE0589FF001599FF00D70
:101820001124E40FF11D47FDFA95E35CFE4F808122
:101830008111F2C04A3008F0EFC03E5F323108F04B
:10184000EBC026FF20C03091060540910902832F8E
:10185000992787FD909502965AE0589FF001599F6D
:10186000F00D1124E35CFE4FE40FF11D47FDFA95E6
:1018700081818111D1C04F5F4A3008F0CDC03E5FF9
:10188000323108F0C9C025FF20C0309106054091D3
:101890000902832F992787FD909502965AE0589F59
:1018A000F001599FF00D1124E35CFE4FE40FF11D90
:1018B00047FDFA9582818111AFC04E5F4A3008F032
:1018C000ABC03E5F323108F0A7C024FF20C030918A
:1018D000060540910902832F992787FD909502966E
:1018E0005AE0589FF001599FF00D1124E35CFE4F20
:1018F000E40FF11D47FDFA95838181118DC04D5F85
:101900004A3008F089C03E5F323108F085C023FFBD
:101910001FC03091060540910902832F992787FD4A
:10192000909503965AE0589FF001599FF00D1124AD
:10193000E40FF11D47FDFA95E35CFE4F80818111B4
:101940006BC04A3008F068C03D5F333108F064C0B6
:1019500022FF20C03091060540910902832F99276C
:1019600087FD909503965AE0589FF001599FF00D1E
:101970001124E35CFE4FE40FF11D47FDFA958181D0
:1019800081114AC04F5F4A3008F046C03D5F333195
:1019900008F042C021FF1EC03091060540910902A7
:1019A000832F992787FD909503965AE0589FF00161
:1019B000599FF00D1124E35CFE4FE40FF11D47FD2C
:1019C000FA958281811128C04E5F4A3028F53D5F2B
:1019D000333110F520FD02C080E008952091060506
:1019E00030910902822F992787FD909503964AE04E
:1019F000489FF001499FF00D1124E35CFE4FE30F77
:101A0000F11D37FDFA958381811106C03D5F3A30A3
:101A100018F42D5F233100F381E00895E09104056F
:101A200080910505992787FD909524E0E29FF001BC
:101A30001124DF01A80FB91FAA0FBB1FAB5FBE4F58
:101A40004C9147FF18C05091090220910605332799
:101A500027FD30952F5F3F4F6AE0629FD001639F63
:101A6000B00D1124A50FB11D57FDBA95A35CBE4F53
:101A70002C9121118DC146FF19C05091090220916E
:101A80000605332727FD30952F5F3F4F6AE0629FA1
:101A9000D001639FB00D1124A35CBE4FA50FB11DF3
:101AA00057FDBA9511962C91211172C145FF19C0AD
:101AB0005091090220910605332727FD30952F5FAD
:101AC0003F4F6AE0629FD001639FB00D1124A35C79
:101AD000BE4FA50FB11D57FDBA9512962C9121113D
:101AE00057C144FF19C050910902209106053327C0
:101AF00027FD30952F5F3F4F6AE0629FD001639FC3
:101B0000B00D1124A35CBE4FA50FB11D57FDBA95B2
:101B100013962C9121113CC143FF18C0509109022A
:101B200020910605332727FD30952E5F3F4F6AE051
:101B3000629FD001639FB00D1124A50FB11D57FD09
:101B4000BA95A35CBE4F2C91211122C142FF19C04E
:101B50005091090220910605332727FD30952E5F0D
:101B60003F4F6AE0629FD001639FB00D1124A35CD8
:101B7000BE4FA50FB11D57FDBA9511962C9121119D
:101B800007C141FF19C05091090220910605332772
:101B900027FD30952E5F3F4F6AE0629FD001639F23
:101BA000B00D1124A35CBE4FA50FB11D57FDBA9512
:101BB00012962C912111ECC040FF19C040910902EE
:101BC00020910605332727FD30952E5F3F4F5AE0C1
:101BD000529FD001539FB00D1124A35CBE4FA40FA0
:101BE000B11D47FDBA9513962C912111D1C0E80F74
:101BF000F91FEE0FFF1FEB5FFE4F218127FF17C07C
:101C00003091090280910605992787FD90950396EA
:101C10004AE0489FF001499FF00D1124E30FF11DA8
:101C200037FDFA95E35CFE4F80818111B1C026FF3C
:101C300017C03091090280910605992787FD90957C
:101C400003964AE0489FF001499FF00D1124E35CA0
:101C5000FE4FE30FF11D37FDFA958181811198C088
:101C600025FF17C03091090280910605992787FD4D
:101C7000909503964AE0489FF001499FF00D11248A
:101C8000E35CFE4FE30FF11D37FDFA958281811170
:101C90007FC024FF17C03091090280910605992763
:101CA00087FD909503964AE0489FF001499FF00D0B
:101CB0001124E35CFE4FE30FF11D37FDFA9583819C
:101CC000811166C023FF17C030910902809106057B
:101CD000992787FD909504964AE0489FF001499F17
:101CE000F00D1124E30FF11D37FDFA95E35CFE4F73
:101CF000808181114DC022FF17C03091090280916F
:101D00000605992787FD909504964AE0489FF001C3
:101D1000499FF00D1124E35CFE4FE30FF11D37FDE9
:101D2000FA958181811134C021FF17C030910902D9
:101D300080910605992787FD909504964AE0489F73
:101D4000F001499FF00D1124E35CFE4FE30FF11DFC
:101D500037FDFA95828181111BC020FD02C080E011
:101D600008952091090280910605992787FD909595
:101D700004963AE0389FF001399FF00D1124E35C9E
:101D8000FE4FE20FF11D27FDFA958381882339F379
:101D900081E00895E091040580910505992787FD6C
:101DA000909524E0E29FF0011124DF01A80FB91FF4
:101DB000AA0FBB1FAB5FBE4F4C9147FF10C02091D5
:101DC0000902A09106053AE0A302D0011124A20F56
:101DD000B11D27FDBA95A35CBE4F21E02C9346FFB1
:101DE00011C020910902A09106053AE0A302D0019A
:101DF0001124A35CBE4FA20FB11D27FDBA9521E0AF
:101E000011962C9345FF11C020910902A09106055F
:101E10003AE0A302D0011124A35CBE4FA20FB11D72
:101E200027FDBA9521E012962C9344FF11C0209112
:101E30000902A09106053AE0A302D0011124A35C97
:101E4000BE4FA20FB11D27FDBA9521E013962C932A
:101E500043FF17C05091090220910605332727FD43
:101E600030952F5F3F4F6AE0629FD001639FB00DB6
:101E70001124A50FB11D57FDBA95A35CBE4F21E0FB
:101E80002C9342FF18C05091090220910605332778
:101E900027FD30952F5F3F4F6AE0629FD001639F1F
:101EA000B00D1124A35CBE4FA50FB11D57FDBA950F
:101EB00021E011962C9341FF18C050910902209106
:101EC0000605332727FD30952F5F3F4F6AE0629F5D
:101ED000D001639FB00D1124A35CBE4FA50FB11DAF
:101EE00057FDBA9521E012962C9340FF18C04091FF
:101EF000090220910605332727FD30952F5F3F4FBC
:101F00005AE0529FD001539FB00D1124A35CBE4FE5
:101F1000A40FB11D47FDBA9521E013962C93E80F4D
:101F2000F91FEE0FFF1FEB5FFE4F218127FF16C049
:101F30003091090280910605992787FD90950296B8
:101F40004AE0489FF001499FF00D1124E30FF11D75
:101F500037FDFA95E35CFE4F81E0808326FF16C0D3
:101F60003091090280910605992787FD9095029688
:101F70004AE0489FF001499FF00D1124E35CFE4FB9
:101F8000E30FF11D37FDFA9581E0818325FF16C02F
:101F90003091090280910605992787FD9095029658
:101FA0004AE0489FF001499FF00D1124E35CFE4F89
:101FB000E30FF11D37FDFA9581E0828324FF16C0FF
:101FC0003091090280910605992787FD9095029628
:101FD0004AE0489FF001499FF00D1124E35CFE4F59
:101FE000E30FF11D37FDFA9581E0838323FF16C0CF
:101FF0003091090280910605992787FD90950396F7
:102000004AE0489FF001499FF00D1124E30FF11DB4
:1020100037FDFA95E35CFE4F81E0808322FF16C016
:102020003091090280910605992787FD90950396C6
:102030004AE0489FF001499FF00D1124E35CFE4FF8
:10204000E30FF11D37FDFA9581E0818321FF16C072
:102050003091090280910605992787FD9095039696
:102060004AE0489FF001499FF00D1124E35CFE4FC8
:10207000E30FF11D37FDFA9581E0828320FF16C042
:102080002091090280910605992787FD9095039676
:102090003AE0389FF001399FF00D1124E35CFE4FC8
:1020A000E20FF11D27FDFA9581E0838308956F9279
:1020B0007F928F929F92AF92BF92CF92DF92EF92D8
:1020C000FF920F93CF93DF9381E00E944A03E12CAC
:1020D00001E020E330E049E350E060E070E08BE1B4
:1020E00090E00E94610226E130E047E150E067E0C5
:1020F00070E087E090E00E9461020E94E9082CE015
:1021000030E043E550E064E070E08AE390E00E9454
:1021100061028091000590910105CAE0D0E0BE0106
:102120000E94F41D21E045E050E06DE470E0805D28
:102130000E94A20280910005909101058A309105CC
:102140007CF0BE010E94F41DCB01BE010E94F41D73
:1021500021E045E050E067E470E0805D0E94A2026B
:1021600080910005909101058436910584F064E624
:1021700070E00E94F41DCB016AE070E00E94F41D43
:1021800021E045E050E061E470E0805D0EC021E0B8
:1021900045E050E06BE370E083E50E94A20221E09D
:1021A00045E050E061E470E08AE30E94A202809181
:1021B000000590910105883E23E092078CF068EEBF
:1021C00073E00E94F41DCB016AE070E00E94F41DF0
:1021D00021E045E050E06BE370E0805D0E94A202E8
:1021E00000E026E130E042E550E06EE070E08AE396
:1021F00090E00E94330221E04FE050E06BE370E09A
:1022000081E994E00E94FE028091070221E04FE004
:1022100050E06DE470E0805D0E94A20220E230E0B8
:1022200042E550E068E170E08AE390E00E9433020A
:1022300021E049E150E06BE370E086E994E00E9420
:10224000FE0221E043E250E06BE370E08BE994E0B2
:102250000E94FE022AE230E042E550E062E270E0D5
:102260008AE390E00E9433028091FE049091FF0483
:10227000CAE0D0E0BE010E94F41D21E043E250E03C
:102280006DE470E0805D0E94A2028091FE04909156
:10229000FF048A3091057CF0BE010E94F41DCB0141
:1022A000BE010E94F41D21E043E250E067E470E0CB
:1022B000805D0E94A2028091FE049091FF0484360A
:1022C00091058CF064E670E00E94F41DCB016AE099
:1022D00070E00E94F41D21E043E250E061E470E010
:1022E000805D0E94A2028091FE049091FF04883ECE
:1022F000E3E09E078CF068EE73E00E94F41DCB01D2
:102300006AE070E00E94F41D21E043E250E06BE3DC
:1023100070E0805D0E94A202EDE36E2EE1E07E2E71
:10232000CBE1D0E04E0122E0820E911C7EEEA72E82
:1023300074E0B72EC12CD12CE12CF12CF301EE0D61
:10234000FF1D80818823A9F080910305823041F42C
:10235000F5018081882321F08091090580FF09C063
:1023600001E096012E5F3F4FA401B601CE010E940D
:102370003302FAE0EF0EF11C23E0C20ED11C8FEF06
:10238000A81AB80AE0EAEE16F104C1F62396FFEFA8
:102390006F1A7F0AC933D10529F60E94D205DF9151
:1023A000CF910F91FF90EF90DF90CF90BF90AF90C3
:1023B0009F908F907F906F900C946503CF9386E0F1
:1023C0000E943419892B69F4C09109028FEF8C0F98
:1023D00080930902809105050E94F20A8111C09341
:1023E000090288E00E943419892B69F4C09109021E
:1023F00081E08C0F80930902809105050E94F20A0A
:102400008111C093090287E00E943419892B69F475
:102410000E940E0D882321F081E08093030505C002
:10242000809106058F5F80930605C091050582E0C7
:102430000E943419892B21F48091040181112BC051
:1024400083E00E943419892B21F4809104018111C9
:102450002EC082E00E943419892BA9F183E00E94EA
:102460003419892B81F181E0809304018C2F0E9423
:10247000F20A81112BC040910505552747FD509563
:102480002C2F30E04217530709F183E080930305B6
:10249000C09305051BC080910505992787FD909580
:1024A000039664E070E00E94F41DC82FC9CF8091AC
:1024B0000505992787FD9095019664E070E00E94DC
:1024C000F41DC82FC6CF10920401D0CFCF9108952C
:1024D000CF93DF932091140230E040E050E0609110
:1024E000090570910A0580910B0590910C050E94D9
:1024F0002A1E672B682B692B69F40E940E0D882316
:1025000021F081E08093030505C0809106058F5F6F
:102510008093060580910305813009F055C00E9423
:10252000CA0E2091030590910A02E6E4F1E0AEEEB6
:10253000B4E031E0EF012997888121964881842316
:1025400040818423219648818423219648818423D5
:1025500021964881842321964881842321964881AD
:10256000842321964881842321964881842319F06D
:102570003C939AE022E03A96119681E0E63EF80715
:10258000C9F62093030590930A0283E08093090221
:1025900010920605109205058091080280930405AB
:1025A00027E030E040E050E060E070E0CB010E94C6
:1025B000291C60930802809105050E94F20A882375
:1025C00019F083E680930305DF91CF91089524E607
:1025D00030E040E050E060ED77E08EE00E945D1971
:1025E00064E670E080E090E00E94DA1764E670E054
:1025F00080E090E00E94DA1724E630E040E050E00E
:1026000060ED77E08EE00E945D1964E670E080E0A6
:1026100090E00E94DA1764E670E080E090E00E94AB
:10262000DA1728EE33E040E050E068EE73E08EE029
:102630000E945D1968EE73E080E090E00E94DA1776
:1026400064E670E080E090E00C94DA1724E630E075
:1026500040E050E068EE73E08EE00E945D1964E6B1
:1026600070E080E090E00E94DA1764E670E080E0BD
:1026700090E00E94DA1724E630E040E050E068EE97
:1026800073E08EE00E945D1964E670E080E090E007
:102690000E94DA1764E670E080E090E00E94DA17AA
:1026A00028EE33E040E050E060ED77E08EE00E94FD
:1026B0005D1968EE73E080E090E00E94DA1764E64E
:1026C00070E080E090E00C94DA17CF93DF93809174
:1026D0000305823009F476C050F4813009F086C0D9
:1026E00024E130E040E050E068EE73E05FC083300A
:1026F00009F456C0833609F079C010920305109290
:10270000020581E080930702809100059091010508
:10271000209107053091080528173907E4F49093B4
:10272000080580930705CFEFD0E0BE010E94F41D9D
:10273000682F80E090E00E94C81E8091070590916C
:102740000805BE010E94F41D81E090E00E94C81EB1
:102750000E94261302C00E94E71284E00E943419EE
:10276000892B09F452C087E00E943419892B09F49F
:102770004CC088E00E943419892B09F446C086E0D9
:102780000E943419892B09F440C082E00E94341958
:10279000892BD9F183E00E943419892BB1F1DDCF67
:1027A00024E130E040E050E060ED77E08EE00E9410
:1027B0005D1964E170E080E090E00E94DA17109209
:1027C00003053DC06091ED0481E0860F8093ED0428
:1027D00084E1689FB001112468517C4F24E130E00E
:1027E00040E050E08EE00E945D1902C01092ED04BE
:1027F00064E170E080E090E0DF91CF910C94DA1713
:1028000087E00E943419892B31F484E00E94341946
:10281000892BD9F3F5CF88E00E943419892BA9F3CD
:1028200086E00E943419892B81F382E00E943419DA
:10283000892B59F383E00E943419892B31F3DF91FE
:10284000CF9108958F929F92AF92BF92CF92DF92D5
:10285000EF92FF920F931F93CF93DF9300D000D09E
:10286000CDB7DEB781E0898382E08A8384E08B8301
:1028700088E08C830091060210E08091FE04909124
:10288000FF0450910702609114022EEE34E040E004
:10289000B12CFAE0EF2EF12CAAE0AA2EF9017081FA
:1028A000772309F473C06C01FFEFCF1ADF0AB394EA
:1028B000C601B7010E94F41D600F711F6A307105D7
:1028C00014F069E070E0562F77276A3071051CF428
:1028D0006150710902C068E070E0FB01E55FFD4FE7
:1028E0008080F9011082942E9920D1F1892D90E0F9
:1028F000BC0161507109A69ED001A79EB00D1124A4
:10290000A35CBE4F6C91A89EF001A99EF00D11240E
:10291000E35CFE4F608311968C9111978183129630
:102920008C911297828313968C91139783831496BC
:102930008C911497848315968C91159785831696A0
:102940008C911697868317968C9117978783189684
:102950008C911897808719968C9181879A94C4CF0F
:1029600010923D0110923E0110923F0110924001E1
:1029700010924101109242011092430110924401C1
:102980001092450110924601682DC6014F5F2F5FDE
:102990003F4F403109F082CF9093FF048093FE04B3
:1029A0005093070260931402FE01EB0DF11D20818C
:1029B0008091000590910105259F800D911D1124A6
:1029C00090930105809300050F900F900F900F904A
:1029D000DF91CF911F910F91FF90EF90DF90CF90FB
:1029E000BF90AF909F908F9008951F93CF93DF93E8
:1029F0000E94AB1724EF31E040E050E00E94081E37
:102A0000122F117080E00E944A0321E045E050E05F
:102A100064E170E080EA94E00E94FE0221E04DE073
:102A200050E06CE070E087EA94E00E94FE02809142
:102A3000070590910805CAE0D0E0BE010E94F41D90
:102A400021E04DE050E068E470E0805D0E94A20269
:102A500080910705909108058A3091057CF0BE01B0
:102A60000E94F41DCB01BE010E94F41D21E04DE047
:102A700050E063E470E0805D0E94A202809107054F
:102A800090910805843691058CF064E670E00E9410
:102A9000F41DCB016AE070E00E94F41D21E04DE0DE
:102AA00050E06EE370E0805D0E94A2028091070515
:102AB00090910805883E23E092078CF068EE73E061
:102AC0000E94F41DCB016AE070E00E94F41D21E039
:102AD0004DE050E069E370E0805D0E94A2028091C9
:102AE000EC0481110DC0212F45E150E06CE070E055
:102AF00080EB94E00E94FE0280910702212F0CC01F
:102B000021E045E150E06CE070E080EB94E00E9451
:102B1000FE028091070221E045E150E066E370E0AB
:102B2000805D0E94A2029091EC0480911405913086
:102B300011F4212F01C021E04DE150E065E070E08B
:102B4000882319F088EB94E002C084EC94E00E94A2
:102B5000FE029091EC0480910502923011F4212F35
:102B600001C021E045E250E062E070E0882319F006
:102B700080ED94E002C08EED94E00E94FE02DF91B1
:102B8000CF911F910C9465030E94AB170E94FD1B0F
:102B900010920105109200051092FF041092FE049D
:102BA00027E030E040E050E060E070E0CB010E94C0
:102BB000291C6093040527E030E040E050E060E02D
:102BC00070E0CB010E94291C60930802109212054C
:102BD000109211051092130540910702E42FF0E0C6
:102BE000E65FFD4F8081809314022DE331E080E0A9
:102BF00090E0F901E80FF91F108201968A309105E3
:102C0000C1F7265F3F4F81E02D3D380781F74093A4
:102C1000060281E080930205089584E00E94341941
:102C2000892BD1F087E00E943419892BA9F088E024
:102C30000E943419892B81F086E00E943419892B77
:102C400059F082E00E943419892B31F083E00E9410
:102C50003419892B09F09AC082E00E943419892B1B
:102C600029F481E0809302050E94C415809104013B
:102C7000882349F084E00E943419892B21F4809143
:102C8000EC04811187C080910401882351F087E012
:102C90000E943419892B29F48091EC04823008F4C5
:102CA0007DC08091EC0481110EC0809104018823C5
:102CB00051F088E00E943419892B29F48091070291
:102CC000893008F46FC08091EC0481110EC08091AE
:102CD0000401882351F086E00E943419892B29F4DD
:102CE00080910702823008F061C08091EC0481304D
:102CF00081F480910401882361F086E00E943419F8
:102D0000892B09F457C088E00E943419892B09F4F3
:102D100051C08091EC048230D1F480910401882369
:102D2000B1F086E00E943419892B29F088E00E94D6
:102D30003419892B61F481E090910502891B8093FD
:102D40000502882309F443C08FEF0E94CC0384E07E
:102D50000E943419892BE9F187E00E943419892BEC
:102D6000C1F188E00E943419892B99F186E00E9414
:102D70003419892B71F182E00E943419892B49F1B1
:102D800083E00E943419892B21F1089581E080931A
:102D9000040162CF81508093EC0475CF8F5F8093E4
:102DA000EC047FCF8F5F809307028DCF815080939B
:102DB00007029BCF10921305109212051092110575
:102DC00081E090911405891B80931405A2CF80E0C7
:102DD000BCCF1092040108950E94F5140E940D16B4
:102DE0000C94340580910305823029F00E94DE1195
:102DF0000E9468120BC080910A02815080930A02DF
:102E0000811104C00E942214109203050E945710E1
:102E10000E9465130E9434058091090590910A056E
:102E2000A0910B05B0910C050196A11DB11D8093D9
:102E3000090590930A05A0930B05B0930C0508951E
:102E400080910205882319F0813019F008950C94BF
:102E5000EC160C94F216CF93CFB7F8948091150529
:102E6000811127C0EAE7F2E08491E6E6F2E094916E
:102E7000E82FF0E0EE0FFF1FE856FD4FA591B4914B
:102E80008C91892321F461E08AE00E94FE1861E0C0
:102E90008AE00E94C5188CB580618CBD8CB58064B9
:102EA0008CBD61E08DE00E94C51861E08BE00E945E
:102EB000C518809115058F5F80931505CFBFCF9101
:102EC00008951F920F920FB60F9211242F933F93E4
:102ED0008F939F93AF93BF9380911705909118059F
:102EE000A0911905B0911A053091160526E0230F1F
:102EF0002D3720F40296A11DB11D05C029E8230F2E
:102F00000396A11DB11D209316058093170590937C
:102F10001805A0931905B0931A0580911B0590918F
:102F20001C05A0911D05B0911E050196A11DB11DA6
:102F300080931B0590931C05A0931D05B0931E055F
:102F4000BF91AF919F918F913F912F910F900FBEA5
:102F50000F901F9018952FB7F894609117057091F6
:102F600018058091190590911A052FBF08953FB754
:102F7000F89480911B0590911C05A0911D05B091BE
:102F80001E0526B5A89B05C02F3F19F00196A11D6F
:102F9000B11D3FBF6627782F892F9A2F620F711DB1
:102FA000811D911D43E0660F771F881F991F4A9569
:102FB000D1F70895CF92DF92EF92FF92CF93DF93F4
:102FC0006B017C010E94B717EB01C114D104E1042D
:102FD000F10489F00E94551C0E94B7176C1B7D0BF1
:102FE000683E734090F381E0C81AD108E108F10807
:102FF000C851DC4FEACFDF91CF91FF90EF90DF9087
:10300000CF900895789484B5826084BD84B5816042
:1030100084BD85B5826085BD85B5816085BDEEE6E0
:10302000F0E0808181608083E1E8F0E010828081BF
:1030300082608083808181608083E0E8F0E080812D
:1030400081608083E1EBF0E0808184608083E0EB4D
:10305000F0E0808181608083EAE7F0E08081846035
:10306000808380818260808380818E7F8083808165
:10307000806880831092C10008951F93CF93DF93DF
:10308000182FEB0161E00E94C518209711F460E051
:1030900004C0CF3FD10539F461E0812FDF91CF919A
:1030A0001F910C94FE18E12FF0E0E85BFD4FE491D6
:1030B000E330F9F048F4E130B9F0E230A1F584B53D
:1030C000806284BDC8BD34C0E730E9F0E83019F152
:1030D000E43049F580918000806280938000D09335
:1030E0008B00C0938A0024C084B5806884BDC7BDAE
:1030F0001FC080918000806880938000D0938900F9
:10310000C093880015C08091B00080688093B000A3
:10311000C093B3000DC08091B00080628093B00076
:10312000C093B40005C0C038D1050CF0B5CFAFCF07
:10313000DF91CF911F910895833081F028F4813081
:1031400099F08230A1F008958730A9F08830B9F065
:103150008430D1F4809180008F7D03C08091800005
:103160008F7780938000089584B58F7702C084B5EF
:103170008F7D84BD08958091B0008F7703C08091CA
:10318000B0008F7D8093B0000895CF93DF9390E0DF
:10319000FC01E45AFD4F2491FC01E059FD4F84915C
:1031A000882349F190E0880F991FFC01E856FD4FF4
:1031B000A591B49182579D4FFC01C591D4919FB7C1
:1031C000611108C0F8948C91209582238C9388819A
:1031D00082230AC0623051F4F8948C91322F3095DA
:1031E00083238C938881822B888304C0F8948C91EC
:1031F000822B8C939FBFDF91CF9108950F931F93E4
:10320000CF93DF931F92CDB7DEB7282F30E0F901BF
:10321000E85BFD4F8491F901E45AFD4F1491F901E7
:10322000E059FD4F04910023C9F0882321F0698300
:103230000E949C186981E02FF0E0EE0FFF1FE2571B
:10324000FD4FA591B4919FB7F8948C91611103C083
:103250001095812301C0812B8C939FBF0F90DF912C
:10326000CF911F910F910895CF93DF93282F30E0D6
:10327000F901E85BFD4F8491F901E45AFD4FD491C7
:10328000F901E059FD4FC491CC2391F081110E94C6
:103290009C18EC2FF0E0EE0FFF1FEC57FD4FA591AF
:1032A000B4912C912D2381E090E021F480E002C0C4
:1032B00080E090E0DF91CF9108953F924F925F922E
:1032C0006F927F928F929F92AF92BF92CF92DF9236
:1032D000EF92FF920F931F93CF93DF9300D000D014
:1032E000CDB7DEB78B0129013A0190918A04981776
:1032F00021F09F3F09F0DAC104C0E2EAF2E0349025
:1033000081C080938A04E2EAF2E0E491EF3F09F49D
:10331000CDC1E13031F1E23009F44BC0E11171C0AF
:1033200014BC15BC94B5926094BD95B5916095BDE3
:10333000282F30E0F901E059FD4FE491F0E0EE0F65
:10334000FF1FE257FD4F4591549150932F05409335
:103350002E05F901E45AFD4F249120932D05312CBF
:1033600053C010928000109281009091810098606B
:103370009093810090918100916090938100282F1B
:1033800030E0F901E059FD4FE491F0E0EE0FFF1F4E
:10339000E257FD4F459154915093280540932705DE
:1033A000F901E45AFD4F24912093260533243394E8
:1033B0002BC01092B0001092B1009091B0009260BA
:1033C0009093B0009091B10091609093B100282F3C
:1033D00030E0F901E059FD4FE491F0E0EE0FFF1FFE
:1033E000E257FD4F4591549150932105409320059C
:1033F000F901E45AFD4F249120931F0552E0352E28
:1034000003C03E2E37FC52C161E00E94C51848013E
:10341000A12CB12C832D8D7F09F0C7C060E079E02D
:103420008DE390E0A50194010E942A1E29833A832E
:103430004B835C8369017A0181E0C81AD108E108F5
:10344000F1089FEFC916D104E104F10409F008F472
:103450009AC060E271EA87E090E0A50194010E94C1
:103460002A1E69017A01E1E0CE1AD108E108F108CB
:10347000F2E03F1219C08FEFC816D104E104F10445
:1034800009F008F48AC068E478EE81E090E0A501D4
:1034900094010E942A1E69017A0191E0C91AD1089B
:1034A000E108F10883E001C082E0EFEFCE16D1041D
:1034B000E104F10409F008F467C064E274EF80E00D
:1034C00090E0A50194010E942A1E69017A01F1E0B1
:1034D000CF1AD108E108F1083320E1F082E0381278
:1034E0001BC09FEFC916D104E104F10409F008F4F0
:1034F000DBC062E17AE780E090E0A50194010E94E0
:103500002A1E69017A01E1E0CE1AD108E108F1082A
:1035100085E003C083E001C084E0FFEFCF16D10453
:10352000E104F10489F180F169E07DE380E090E05D
:10353000A50194010E942A1E69017A0181E0C81A3E
:10354000D108E108F108311002C084E001C086E032
:103550009FEFC916D104E104F104B1F0A8F0C980CD
:10356000DA80EB80FC809AE0F594E794D794C794D6
:103570009A95D1F7E1E0CE1AD108E108F10833209D
:1035800031F087E00BC081E0332011F007C085E007
:1035900095B5987F982B95BD38C082E09091B10089
:1035A000987F982B9093B10030C060E079E08DE374
:1035B00090E0A50194010E942A1E69017A01F1E0C0
:1035C000CF1AD108E108F108C114D10481E0E8065E
:1035D000F10488F064E274EF80E090E0A5019401CA
:1035E0000E942A1E69017A0191E0C91AD108E108F6
:1035F000F10893E001C091E0E1E03E1206C0809145
:103600008100887F892B80938100411451046104DB
:10361000710471F0D801AA0FBB1FA30192010E948F
:10362000491E28EE33E040E050E00E94081E03C02F
:103630002FEF3FEFA901F1E03F16A1F082E038162D
:1036400019F1311033C0C7BC2093300530933105D8
:10365000409332055093330580916E0082608093D1
:103660006E0024C0D0928900C09288002093290562
:1036700030932A0540932B0550932C0580916F00C1
:10368000826080936F0012C0C092B3002093220525
:1036900030932305409324055093250580917000B5
:1036A00082608093700002C084E078CF0F900F900A
:1036B0000F900F90DF91CF911F910F91FF90EF909E
:1036C000DF90CF90BF90AF909F908F907F906F9042
:1036D0005F904F903F900895813039F018F082301C
:1036E00051F0089510926E00089580916F008D7FC3
:1036F00080936F000895809170008D7F809370009B
:1037000081E08093B0008091B100887F84608093D5
:10371000B1001092B3000895CF93C82F80918A040E
:103720008C1307C0E2EAF2E084919FEF90938A0441
:1037300001C08FEF0E946C1B60E08C2FCF910C9426
:10374000FE181F920F920FB60F9211242F933F93E2
:103750004F935F936F937F938F939F93AF93BF9399
:10376000EF93FF938091220590912305A09124056A
:10377000B0912505892B8A2B8B2B51F190911F0538
:10378000E0912005F0912105808189278083809137
:10379000220590912305A0912405B09125051816C6
:1037A00019061A061B06C4F4809122059091230580
:1037B000A0912405B09125050197A109B109809335
:1037C000220590932305A0932405B093250504C0FA
:1037D00080918A040E948C1BFF91EF91BF91AF9161
:1037E0009F918F917F916F915F914F913F912F9119
:1037F0000F900FBE0F901F901895611571058105F0
:10380000910511F00C94B71E0895CF93DF9300D06B
:1038100000D0CDB7DEB79B01AC0161157105810504
:10382000910569F069833A834B835C830E94B21EE1
:1038300029813A814B815C810E942A1E03C060E08D
:1038400070E0CB010F900F900F900F90DF91CF9110
:103850000895CF92DF92EF92FF926B017C01621785
:1038600073078407950764F4CA01B9016C197D09CF
:103870008E099F090E94051C6C0D7D1D8E1D9F1DCC
:10388000FF90EF90DF90CF90089508950E94021866
:103890000E94451C0E94B405C0E0D0E00E942017A1
:1038A0002097E1F30E940000F9CF08950CD0EBC0FF
:1038B000E3D040F0DAD030F021F45F3F19F0CCC013
:1038C000511115C1CFC0F0D098F39923C9F35523F6
:1038D000B1F3951B550BBB27AA2762177307840703
:1038E00038F09F5F5F4F220F331F441FAA1FA9F3B9
:1038F00033D00E2E3AF0E0E830D091505040E695AB
:10390000001CCAF729D0FE2F27D0660F771F881F0B
:10391000BB1F261737074807AB07B0E809F0BB0BFA
:10392000802DBF01FF2793585F4F2AF09E3F51051E
:1039300068F092C0DCC05F3FECF3983EDCF3869504
:1039400077956795B795F7959F5FC9F7880F911D94
:103950009695879597F90895E1E0660F771F881F80
:10396000BB1F621773078407BA0720F0621B730B33
:10397000840BBA0BEE1F88F7E095089504D0689485
:10398000B111B5C0089598D088F09F5790F0B92F25
:103990009927B751A0F0D1F0660F771F881F991FA4
:1039A0001AF0BA95C9F712C0B13081F09FD0B1E0DA
:1039B00008959CC0672F782F8827B85F39F0B93FEA
:1039C000CCF3869577956795B395D9F73EF49095A6
:1039D0008095709561957F4F8F4F9F4F0895E89424
:1039E00009C097FB3EF490958095709561957F4F47
:1039F0008F4F9F4F9923A9F0F92F96E9BB279395F5
:103A0000F695879577956795B795F111F8CFFAF404
:103A1000BB0F11F460FF1BC06F5F7F4F8F4F9F4F35
:103A200016C0882311F096E911C0772321F09EE893
:103A3000872F762F05C0662371F096E8862F70E0F9
:103A400060E02AF09A95660F771F881FDAF7880FD3
:103A50009695879597F9089597F99F6780E870E0A4
:103A600060E008959FEF80EC089500240A941616F4
:103A7000170618060906089500240A94121613065C
:103A8000140605060895092E0394000C11F48823EA
:103A900052F0BB0F40F4BF2B11F460FF04C06F5F06
:103AA0007F4F8F4F9F4F089557FD9058440F551FDC
:103AB00059F05F3F71F04795880F97FB991F61F0B0
:103AC0009F3F79F087950895121613061406551F27
:103AD000F2CF4695F1DF08C0161617061806991F93
:103AE000F1CF86957105610508940895E894BB2788
:103AF00066277727CB0197F908950BD0C4CFB5DFA0
:103B000028F0BADF18F0952309F0A6CFABCF112427
:103B1000EECFCADFA0F3959FD1F3950F50E0551F6C
:103B2000629FF001729FBB27F00DB11D639FAA2712
:103B3000F00DB11DAA1F649F6627B00DA11D661F61
:103B4000829F2227B00DA11D621F739FB00DA11D82
:103B5000621F839FA00D611D221F749F3327A00D3C
:103B6000611D231F849F600D211D822F762F6A2FD8
:103B700011249F5750408AF0E1F088234AF0EE0F5D
:103B8000FF1FBB1F661F771F881F91505040A9F76A
:103B90009E3F510570F060CFAACF5F3FECF3983E97
:103BA000DCF3869577956795B795F795E7959F5FD1
:103BB000C1F7FE2B880F911D9695879597F908956B
:103BC000AA1BBB1B51E107C0AA1FBB1FA617B70743
:103BD00010F0A61BB70B881F991F5A95A9F780955F
:103BE0009095BC01CD01089597FB072E16F4009423
:103BF00007D077FD09D00E94E01D07FC05D03EF4F8
:103C0000909581959F4F0895709561957F4F089588
:103C1000A1E21A2EAA1BBB1BFD010DC0AA1FBB1FD0
:103C2000EE1FFF1FA217B307E407F50720F0A21B42
:103C3000B30BE40BF50B661F771F881F991F1A94AF
:103C400069F760957095809590959B01AC01BD01D9
:103C5000CF010895052E97FB1EF400940E94411E8B
:103C600057FD07D00E94081E07FC03D04EF40C94A9
:103C7000411E50954095309521953F4F4F4F5F4FD6
:103C8000089590958095709561957F4F8F4F9F4FC8
:103C900008950E94541EA59F900DB49F900DA49F5F
:103CA000800D911D11240895A29FB001B39FC00102
:103CB000A39F700D811D1124911DB29F700D811D58
:103CC0001124911D08958F929F92AF92BF92CF922F
:103CD000DF92EF92FF92CF93DF93EC0168817981BD
:103CE0008A819B81611571058105910521F464E24A
:103CF00079ED8BE597E02DE133EF41E050E00E9454
:103D00002A1E49015A019B01AC01A7EAB1E40E94B5
:103D1000491E6B017C01ACEEB4EFA50194010E9439
:103D2000D91EC60ED71EE81EF91EF7FE06C081E09A
:103D3000C81AD108E10880E8F80AC882D982EA8264
:103D4000FB82C701B6019F77DF91CF91FF90EF9083
:103D5000DF90CF90BF90AF909F908F9008950E947A
:103D6000631E089580E091E00E94631E08956093B1
:103D70000001709301018093020190930301089563
:103D8000F999FECF92BD81BDF89A992780B5089523
:103D9000262FF999FECF1FBA92BD81BD20BD0FB667
:103DA000F894FA9AF99A0FBE01960895B7FF0C9409
:103DB000491E0E94491E821B930B0895F894FFCF61
:103DC00001000000010F0044440F004444660066F7
:103DD0000066006600270046407200262036004636
:103DE000203600462063002640630026402E004413
:103DF00060E800C440470064407100226000000099
:103E000000000000000000000000000000000000B2
:103E100000000000000000000000000000000000A2
:103E20000000000000000000000000000000000092
:103E30000000000000000000000000000000000082
:103E40000000000000000000000000000000000072
:103E50000000000000000000000000000000000062
:103E60000000000000000000000000000000000052
:103E70000000000000000000000000000000000042
:103E80000000000000000000000000000000000032
:103E9000000000000000000000000000000101011F
:103EA0000101010101010101010101010101010102
:103EB00001010101010101010101010101010101F2
:103EC000010101010101010101030A140F0C0A079C
:103ED000050403023235032C043104330331042C6E
:103EE000042A032A0431043503330431042C032C3F
:103EF0001431043303350331032A032A042A042C22
:103F00000431043303331436043A033804360435D9
:103F100003351431043503330431042C032C0431EC
:103F2000043303350331032A032A03000335023126
:103F30000233022C0231022A0229022C030003352B
:103F400002310233022C02310335033A02390200F6
:103F5000023C000000000000000000000000000023
:103F60000000000000000000000000000000000051
:103F70000000000000E0F0F8FCFCFEFEFEFE1E0E5D
:103F8000020000000000000000000000000000002F
:103F90000000000000000000000000000000000021
:103FA0000000000000000000000000000000000011
:103FB0000000000000000000000000000000000001
:103FC000000000000000000000030F1F3F7FFFFF04
:103FD000FFFFFFFEFCF8F8F0F8FEFEFCF8E0000042
:103FE00000000000000000000000000000000000D1
:103FF00000000000000000000000000000000000C1
:1040000000000000000000000000000000000000B0
:1040100000000000F8FCFEFEFFFFF3E0E0C0C0C0BF
:10402000E0E0F1FFFFFFFFFFFFFFFFFFFFFFFFFFEC
:10403000FFFF3E0000000000000000000000000044
:104040000000000000000000000000000000000070
:104050000000000000000000000000000000000060
:104060000000000000000000FFFFFFFFFFFFFFFF58
:10407000FFFFFFFFFFFFFFFFFFFFFFFFFFFFFFFF50
:10408000FF7F3F1F0701000000000000000000004C
:104090000000000000000000000000000000000020
:1040A0000000000000000000000000000000000010
:1040B000000000000000000000000000FFFFFFFF04
:1040C000FFFFFF7F3F1F0F0F0F07070707070707B8
:1040D00003030101000000000000000000000000D8
:1040E00000000000000000000000000000000000D0
:1040F00000000000000000000000000000000000C0
:1041000000000000000000000000000000000000AF
:104110003F1F0F0703010000000000000000000027
:10412000000000000000000000000000000000008F
:10413000000000000000000000000000000000007F
:1041400000000000000000000000FF4B6974636F76
:10415000004E697620004C69673A0020202020003C
:10416000546574726973005265636F72643A20001B
:104170004E69766561753A004D7573697175653A7A
:104180006F7569004D7573697175653A6E6F6E0074
:1041900045636C6169726167653A6F756900456373
:0C41A0006C6169726167653A6E6F6E00B9
:00000001FF
