:100000000C94E3020C940B030C940B030C940B0361
:100010000C940B030C940B030C940B030C944214E0
:100020000C940B030C940B030C940B030C940B0318
:100030000C940B030C940B030C940B030C940B0308
:100040000C949A0F0C940B030C940B030C940B035D
:100050000C940B030C940B030C940B030C940B03E8
:100060000C940B030C940B0300000000003E5B4F4C
:100070005B3E3E6B4F6B3E1C3E7C3E1C183C7E3C08
:10008000181C577D571C1C5E7F5E1C00183C180016
:10009000FFE7C3E7FF0018241800FFE7DBE7FF30A6
:1000A000483A060E2629792926407F050507407F14
:1000B00005253F5A3CE73C5A7F3E1C1C08081C1C87
:1000C0003E7F14227F22145F5F005F5F06097F017D
:1000D0007F006689956A606060606094A2FFA29468
:1000E00008047E040810207E201008082A1C080836
:1000F0001C2A08081E101010100C1E0C1E0C303884
:100100003E3830060E3E0E06000000000000005F84
:1001100000000007000700147F147F14242A7F2AA0
:100120001223130864623649562050000807030062
:10013000001C2241000041221C002A1C7F1C2A08AE
:10014000083E080800807030000808080808000011
:1001500060600020100804023E5149453E00427F85
:10016000400072494949462141494D331814127FD4
:100170001027454545393C4A494931412111090774
:100180003649494936464949291E000014000000F5
:1001900040340000000814224114141414140041C7
:1001A00022140802015909063E415D594E7C121184
:1001B000127C7F494949363E414141227F414141BC
:1001C0003E7F494949417F090909013E4141517337
:1001D0007F0808087F00417F41002040413F017FA8
:1001E000081422417F404040407F021C027F7F0470
:1001F00008107F3E4141413E7F090909063E4151B9
:10020000215E7F09192946264949493203017F01A8
:10021000033F4040403F1F2040201F3F4038403FA9
:10022000631408146303047804036159494D4300BF
:100230007F4141410204081020004141417F0402F6
:10024000010204404040404000030708002054548D
:1002500078407F284444383844444428384444286B
:100260007F385454541800087E090218A4A49C78BE
:100270007F0804047800447D40002040403D007F1A
:100280001028440000417F40007C047804787C08FA
:100290000404783844444438FC18242418182424CE
:1002A00018FC7C08040408485454542404043F44B3
:1002B000243C4040207C1C2040201C3C4030403CE2
:1002C00044281028444C9090907C4464544C440042
:1002D00008364100000077000000413608000201A6
:1002E0000204023C2623263C1EA1A161123A404092
:1002F000207A38545455592155557941225454780F
:1003000042215554784020545579400C1E527212A7
:100310003955555559395454545939555454580030
:1003200000457C410002457D420001457C407D1234
:1003300011127DF0282528F07C5455450020545496
:100340007C547C0A097F4932494949323A44444441
:100350003A324A4848303A4141217A3A424020787C
:10036000009DA0A07D3D4242423D3D4040403D3C7D
:1003700024FF2424487E4943662B2FFC2F2BFF09A2
:1003800029F620C0887E0903205454794100004496
:100390007D413048484A32384040227A007A0A0A81
:1003A000727D0D19317D2629292F282629292926F4
:1003B00030484D4020380808080808080808382F39
:1003C00010C8ACBA2F102834FA00007B00000814C3
:1003D0002A142222142A14085500550055AA55AA99
:1003E00055AAFF55FF55FF000000FF00101010FF39
:1003F00000141414FF001010FF00FF1010F010F094
:10040000141414FC001414F700FF0000FF00FF1484
:1004100014F404FC141417101F10101F101F1414D0
:10042000141F00101010F0000000001F101010101A
:100430001F10101010F010000000FF10101010100E
:1004400010101010FF10000000FF140000FF00FF4C
:1004500000001F10170000FC04F4141417101714E8
:1004600014F404F40000FF00F7141414141414140A
:10047000F700F7141414171410101F101F1414147D
:10048000F4141010F010F000001F101F0000001FE7
:1004900014000000FC140000F010F01010FF10FF1A
:1004A000141414FF141010101F00000000F010FFAF
:1004B000FFFFFFFFF0F0F0F0F0FFFFFF0000000093
:1004C00000FFFF0F0F0F0F0F3844443844FC4A4A17
:1004D0004A347E02020606027E027E0263554941CC
:1004E000633844443C04407E201E2006027E020203
:1004F00099A5E7A5991C2A492A1C4C7201724C3017
:100500004A4D4D303048784830BC625A463D3E49ED
:100510004949007E0101017E2A2A2A2A2A44445F91
:10052000444440514A444040444A51400000FF0185
:1005300003E080FF000008086B6B08361236243693
:10054000060F090F060000181800000010100030F8
:1005500040FF0101001F01011E00191D1712003C80
:100560003C3C3C00000000000000000800020100CC
:10057000000304070000000000000000010204085E
:1005800010204080010204081020010204081020FD
:100590000404040404040404020202020202030329
:1005A00003030303000000002300260029000000CD
:1005B0000000250028002B00000000002400270078
:1005C0002A000200200911241FBECFEFD8E0DEBFB1
:1005D000CDBF14E0A0E0B1E0E0EFF1E302C0059090
:1005E0000D92A83AB107D9F724E0A8EAB4E001C017
:1005F0001D92A73FB207E1F715E0C6ECD5E004C0B5
:100600002297FE010E947116C43CD107C9F70E94CF
:10061000EB150C94F6180C94000084E00E94611114
:1006200021E0892B09F020E0822F089587E00E94C5
:10063000611121E0892B09F020E0822F089586E0E6
:100640000E94611121E0892B09F020E0822F08959A
:1006500088E00E94611121E0892B09F020E0822FBF
:10066000089582E00E94611121E0892B09F020E0C9
:10067000822F089583E00E94611121E0892B09F007
:1006800020E0822F0895682F81E10C942B11682FB0
:1006900080E10C942B11CF93DF93CDB7DEB7629737
:1006A0000FB6F894DEBF0FBECDBF88EA94E00E947B
:1006B000860F61E088EA94E00E94830D61E070E0BB
:1006C00088EA94E00E94890D88EA94E00E94930DE4
:1006D00097FD0196AC01559547954750510963E048
:1006E00070E088EA94E00E947D0D6CE274E088EA94
:1006F00094E00E94EC1166E374E0CE0107960E943C
:100700000C15BE01695F7F4FCE0101960E9439151D
:1007100062E8CE0101960E94CC156CE374E00E9461
:10072000B215BC01CE010D960E943915CE0101967D
:100730000E949E14CE0107960E949E14BE01635F24
:100740007F4F88EA94E00E94DA1188EA94E00E94E0
:10075000B30E81E00E94430380E00E94470324EF30
:1007600031E040E050E068EE73E08EE00E94FE1160
:1007700064EF71E080E090E00E94071080E00E944A
:10078000430381E00E94470324EF31E040E050E062
:100790006CED75E08EE00E94FE1164EF71E080E088
:1007A00090E00E94071081E00E94430380E00E94D5
:1007B000470324EF31E040E050E060ED77E08EE069
:1007C0000E94FE1164EF71E080E090E00E9407104B
:1007D00080E00E94430380E00E94470324EF31E061
:1007E00040E050E064EC79E08EE00E94FE1168EE9B
:1007F00073E080E090E00E9407108EE00E942D14CC
:1008000064EF71E080E090E00E94071081E00E94B8
:10081000430381E00E94470324EF31E040E050E0D1
:1008200060EA7FE08EE00E94FE1168EE73E080E0F7
:1008300090E00E9407108EE00E942D1480E00E943C
:10084000430380E00E94470388EA94E00E94860FF9
:1008500061E088EA94E00E94830D61E070E088EA3C
:1008600094E00E94890D88EA94E00E94930D97FD20
:100870000196AC01559547954750510963E070E0EA
:1008800088EA94E00E947D0D62E474E088EA94E0D6
:100890000E94EC1188EA94E00E94B30E60ED77E0CC
:1008A00080E090E00E940710CE010D960E949E14F9
:1008B00062960FB6F894DEBF0FBECDBFDF91CF9129
:1008C00008952F923F924F925F926F927F928F92F4
:1008D0009F92AF92BF92CF92DF92EF92FF920F93CF
:1008E0001F93CF93DF9300D000D0CDB7DEB788EA57
:1008F00094E00E94860FE091A804F091A90406807C
:10090000F781E02DEE24E394F12C00E010E023E5E4
:1009100030E040E050E060E070E088EA94E0099563
:10092000E091A804F091A9040680F781E02D00E38E
:1009300010E020E030E040E050E060E070E088EA65
:1009400094E00995E091A804F091A9040680F7814C
:10095000E02D23E530E040E050E063E570E088EA18
:1009600094E009955EE1852E52E0952E65E0C62E55
:10097000D12C412C512C1C821B82612C712CA12C5E
:10098000B12CEB81FC81E80DF91DFA83E98312019A
:10099000FAE02F0E311C80E890E00A2C02C09595F9
:1009A00087950A94E2F7E981FA81208130E0822379
:1009B0009323892BA9F0E091A804F091A904048461
:1009C000F585E02DEE24E394F12C02E010E023E025
:1009D00030E0A601B101660D771D88EA94E0099523
:1009E000FFEFAF1ABF0A84E0680E711C98E0A916E9
:1009F000B10489F6EB81FC813196FC83EB83F0E254
:100A00004F0E511C8B819C81029709F0B6CFE0916B
:100A1000A804F091A9046091D10470E00484F585E4
:100A2000E02DEE24E394F12C02E010E028E030E029
:100A30004CE250E088EA94E00995E091A804F09136
:100A4000A9044091CF0450E06091D00470E0048488
:100A5000F585E02D22E030E088EA94E0099582E017
:100A6000880E911C93E0C90ED11CE3E2CE16D1048E
:100A700009F07FCF88EA94E00F900F900F900F90CD
:100A8000DF91CF911F910F91FF90EF90DF90CF906A
:100A9000BF90AF909F908F907F906F905F904F909E
:100AA0003F902F900C94B30E0E940D03882369F0A1
:100AB000809132028F3718F48F5F809332026091F9
:100AC000320288EA94E00E949C0E0E94160388235A
:100AD00069F080913202882319F0815080933202AC
:100AE0006091320288EA94E00E949C0E0E941F03EB
:100AF000882381F08091D104823060F0825080930D
:100B0000D1048091CE04813029F48091D0048250A8
:100B10008093D0040E942803882381F08091D1041F
:100B20008B3460F48E5F8093D1048091CE04813049
:100B300029F48091D0048E5F8093D0040E94310309
:100B4000882321F08091CE04813049F00E943A033D
:100B5000882379F00E943103811108C00895109212
:100B6000CE048093CD048093D304F0CF86E08093AD
:100B7000D3040895FF920F931F93CF93DF93809137
:100B8000CE04811121C10091CD048FEF800F8330FD
:100B900028F48091D0048F5F8093D0048BEF800F76
:100BA000833028F48091D00481508093D0048DEF5D
:100BB000800F833028F48091CF048F5F8093CF041F
:100BC00089EF800F823010F0013029F48091CF043A
:100BD00081508093CF04F090CF041091D004212F46
:100BE00030E0E9012A97D7FD2396D595C795D5958D
:100BF000C795C03108F07FC08F2D90E0059763E066
:100C000070E00E94FB156A3008F075C08C2F869545
:100C10008695869590E0FB01EE0FFF1FE80FF91F08
:100C2000E25EFD4FD081C7704C2F50E060E870E06D
:100C300002C075956795CA95E2F7AD2FB0E0A6237F
:100C4000B723AB2B09F457C072E07093D3046095BF
:100C50006D2360830330F1F118F4013031F04BC0A3
:100C60000530A1F0073019F146C0D3E0880F991F75
:100C7000DA95E1F7840F951F880F991F880F991F48
:100C80000A96821793078CF087E021C073E0880FE3
:100C9000991F7A95E1F7840F951F880F991F880F88
:100CA000991F4196821793077CF783E010C0B3E049
:100CB000880F991FBA95E1F7840F951F880F991F28
:100CC000880F991F4196821793079CF481E08093C7
:100CD000CD0411C0F3E0880F991FFA95E1F7840F56
:100CE000951F880F991F880F991F0A9682179307DF
:100CF0006CF385E0ECCF4091CD04433011F04530EA
:100D0000B9F484ED8F0D823098F48091D1041817D6
:100D100078F090E008968217930754F0433011F46E
:100D200081E001C087E08093CD0483E08093D30409
:100D30008091CD04813039F0833079F1853089F1AB
:100D4000873049F432C0133530F087E08093CD040A
:100D500084E08093D3048091CD04813051F18730B9
:100D600061F19FE29F1518F485E08093D304EFE1D1
:100D7000F2E081E0DF0111979C91911180E0908178
:100D8000911180E0329692E0E333F90799F78823D6
:100D9000D9F086E08093D30417C01335E0F285E0E4
:100DA000D5CF1111D8CF83E0D1CF1111D4CF81E0AD
:100DB000CDCFF110D6CF83E003C0F110D2CF85E0C4
:100DC0008093CD0484E0D1CFDF91CF911F910F911B
:100DD000FF9008951092D30481E08093D10494E0B1
:100DE0009093D0049BE29093CF048093CE048093A1
:100DF000CD040895CF92DF92EF92FF920F931F934D
:100E0000CF93DF93CDB7DEB72C970FB6F894DEBF44
:100E10000FBECDBFE12CF12C0CE010E088EA94E08D
:100E20000E94860F61E088EA94E00E94830D61E0F1
:100E300070E088EA94E00E94890D88EA94E00E94BC
:100E4000930D97FD0196AC01559547954750510973
:100E5000B80188EA94E00E947D0DC090D204D12CA4
:100E60008FEFC81AD80A61E574E0CE0107960E9498
:100E70000C15BE01695F7F4FCE0101960E943915A6
:100E8000B601CE0101960E94DA15BC0188EA94E011
:100E90000E94DA11CE0101960E949E14CE0107969F
:100EA0000E949E1488EA94E00E94B30E26E930E086
:100EB00040E050E0B7018EE00E94FE1166E970E06C
:100EC00080E090E00E940710015011098CE0E81AC0
:100ED0008EEFF80A0430110509F0A0CF60ED77E03D
:100EE00080E090E00E9407102091D2042F5F2093B1
:100EF000D20484E1289F900111242A5F3E4F80E0B4
:100F000090E0A901480F591FFC01E25EFD4FDA0194
:100F100054976C91608311964C9141830296843171
:100F2000910579F70E94EA062C960FB6F894DEBF79
:100F30000FBECDBFDF91CF911F910F91FF90EF902A
:100F4000DF90CF900895EF92FF920F931F93CF936E
:100F5000DF93279A2F9864EF71E080E090E00E9481
:100F600007102F9A61E081E10E94F21061E080E1B8
:100F70000E94F21060E084E00E94F21061E084E0E0
:100F80000E942B1160E088E00E94F21061E088E08E
:100F90000E942B1160E087E00E94F21061E087E080
:100FA0000E942B1160E086E00E94F21061E086E072
:100FB0000E942B1160E082E00E94F21061E082E06A
:100FC0000E942B1160E083E00E94F21061E083E058
:100FD0000E942B1144E068E288EA94E00E94F90E36
:100FE0006091320288EA94E00E949C0E60E070E01A
:100FF00085E00E946A1061E08EE00E94F2100E947B
:101000003103811177C060E081E10E942B110E94C1
:101010004B031092D204DF91CF911F910F91FF905B
:10102000EF900C94FA0661E081E10E942B110E947E
:101030000D03811165C00E94160381116AC0609181
:10104000320288EA94E00E949C0E88EA94E00E94B2
:10105000860F61E088EA94E00E94830D61E070E011
:1010600088EA94E00E94890D88EA94E00E94930D3A
:1010700097FD0196AC01559547954750510963E09E
:1010800070E088EA94E00E947D0D69E574E088EAEA
:1010900094E00E94EC11E091A804F091A904C681AB
:1010A000D7810091320210E088EA94E00E948F0D0F
:1010B0009C01029FC001039F900D129F900D11246F
:1010C00097FF02C081589F4F9C01220F232F221FA0
:1010D000330BEE24E394F12C0EE110E04EE150E0EE
:1010E00060E070E088EA94E0FE01099588EA94E007
:1010F0000E94B30E0E943A03882309F494CF83CF51
:10110000809132028F3708F096CF8F5F8093320242
:1011100092CF80913202882309F491CF815080933D
:1011200032028DCF8091D304833009F44DC068F42E
:10113000813009F442C0823009F068C02AE030E012
:1011400040E050E068EE73E045C0853009F44DC0E2
:1011500008F444C0863009F059C028EC30E040E083
:1011600050E064EF71E08EE00E94FE1164E670E0F2
:1011700080E090E00E94071028EC30E040E050E072
:1011800064EF71E08EE00E94FE1164E670E080E0A2
:1011900090E00E94071028EC30E040E050E068EE5C
:1011A00073E08EE00E94FE1164EF71E080E090E059
:1011B0000E9407100E94FA0629C02AE030E040E0B1
:1011C00050E060ED77E006C02AE030E040E050E01B
:1011D00064EF71E08EE00E94FE1118C02AE030E05A
:1011E00040E050E060EA7FE0F5CF28EE33E040E0F9
:1011F00050E068EC70E08EE00E94FE116EED73E04E
:1012000080E090E00E9407100E94EA066AE070E029
:1012100080E090E00E9407108EE00E942D14109252
:10122000D30408950E9461046EE170E080E090E0D4
:101230000E9407100E9492080E9454050C94BA055F
:101240002FEF49E06AE088EA94E00C94030ECF9314
:10125000CFB7F8948091D404811127C0EAE9F5E072
:101260008491E6E8F5E09491E82FF0E0EE0FFF1F9F
:10127000E854FA4FA591B4918C91892321F461E04F
:101280008AE00E942B1161E08AE00E94F2108CB586
:1012900080618CBD8CB580648CBD61E08DE00E9466
:1012A000F21061E08BE00E94F2108091D4048F5F15
:1012B0008093D404CFBFCF9108952F923F924F9245
:1012C0005F926F927F928F929F92AF92BF92CF92D6
:1012D000DF92EF92FF920F931F93CF93DF9300D093
:1012E00000D0CDB7DEB74C017C836B836A01590116
:1012F000C8018701AC014C195D0957FF03C0519526
:101300004195510995016B817C81261B370B37FF75
:1013100003C031952195310922242394312C2417BF
:10132000350714F0212C312C2114310459F03A2DB9
:101330002B2D5C01832F922F3B812C81DC82CB8271
:10134000C32ED22EAB81BC81AA16BB065CF43C2D09
:101350002D2D6C01832F922F3B812C81BC82AB827F
:10136000A32EB22E2501EB81FC814E1A5F0A3C01AF
:101370006C187D0877FE03C0719461947108720146
:1013800057FE03C0FFEFEF1AFF0AF594E794C81663
:10139000D9062CF421E030E03A83298324C06FEF92
:1013A0007FEF7A8369831FC0D401ED91FC910480A3
:1013B000F581E02D980121143104D9F04B815C8135
:1013C000B601C4010995E618F708F7FE06C0E981E1
:1013D000FA81CE0EDF1EE40CF51C2B813C812F5FC1
:1013E0003F4F3C832B836B817C81A616B706E4F6C6
:1013F00004C0A6016B817C81E4CF0F900F900F9009
:101400000F90DF91CF911F910F91FF90EF90DF90A0
:10141000CF90BF90AF909F908F907F906F905F9094
:101420004F903F902F9008956F927F928F929F924E
:10143000AF92BF92CF92DF92EF92FF920F931F93E2
:10144000CF93DF93EC015B016A0139014801E88128
:10145000F9810284F385E02D87010995E881F981FE
:10146000A601480D591D415051090284F385E02D14
:101470009301B501CE010995E881F9810084F185D8
:10148000E02D9401A601B501CE010995E881F9810D
:10149000B501660D771D615071090084F185E02D5D
:1014A0009401A601CE010995DF91CF911F910F9173
:1014B000FF90EF90DF90CF90BF90AF909F908F9074
:1014C0007F906F900895EF92FF920F931F93DC012E
:1014D000ED91FC91240F351F215031090680F781D1
:1014E000E02D780189019B0109951F910F91FF90D3
:1014F000EF900895EF92FF920F931F93DC01ED910F
:10150000FC91260F371F215031090680F781E02D0D
:1015100078018A0109951F910F91FF90EF9008952E
:101520006F927F928F929F92AF92BF92CF92DF92F3
:10153000EF92FF920F931F93CF93DF935C014A01C9
:1015400069013801EB01C60ED71ECC15DD0574F418
:10155000D501ED91FC910084F185E02D8701930187
:10156000A401BE01C50109952196EFCFDF91CF916E
:101570001F910F91FF90EF90DF90CF90BF90AF90B1
:101580009F908F907F906F900895EF92FF920F93AE
:101590001F93DC01ED91FC9111971A960D911C910E
:1015A0001B9718962D913C9119970684F785E02D8D
:1015B0007B0140E050E060E070E009951F910F91E1
:1015C000FF90EF9008950895FC01138212828AE63D
:1015D00094E0918380837583648357834683718706
:1015E000608753874287158A158614861786168664
:1015F00021E0248B8FEF9FEF938B828B918B808BDD
:10160000268B178A118E108E08952F923F924F923B
:101610005F926F927F928F929F92AF92BF92CF9282
:10162000DF92EF92FF920F931F93CF93DF93CDB78B
:10163000DEB76A970FB6F894DEBF0FBECDBF1C01B0
:1016400058874F831C870B87FA86E986CC82DC019A
:1016500058964D915C9159974115510509F0A6C0D6
:1016600018968D919C911997681779070CF056C1BF
:101670001A968D919C911B97EF81F885E817F907D1
:101680000CF04CC1D12CCB013C81F6E03F9F800D8A
:10169000911D1124181619060CF040C1C60103E073
:1016A000880F991F0A95E1F74F815885840F951F80
:1016B000181619060CF032C157968C91811103C08F
:1016C000203B08F02F5F7E876D874B01198218E65B
:1016D000A12E10E0B12EA61AB70A55E0259FA00C46
:1016E000B11C11248981853039F0ED85FE85EA0D24
:1016F000FB1D94919A8301C01A826F807884230124
:10170000A8E0AD83BA81B0FF12C0D101ED91FC9188
:10171000BC81B13031F40480F581E02D2B853C850E
:1017200018C00684F785E02DEB84FC841DC0E98594
:10173000FA852B853C85E217F307E1F0D101ED91A5
:10174000FC91BC81B13059F40480F581E02D2985EC
:101750003A85A2016D857E85C10109950BC006847D
:10176000F785E02DE984FA8486019601A301B4018E
:10177000C1010995EA81E695EA83FD81F150FD8377
:101780006C0C7D1C2FEF421A520AF111BBCF39812C
:101790003F5F39838C0C9D1C4D855E854F5F5F4F8D
:1017A0005E874D87363009F09DCFB8C0FA01349678
:1017B0003491329785919491231BA7E02A9F800D45
:1017C000911D1124FA0125913491398B288BFC014C
:1017D000459154915A8F498FFC0132965491598703
:1017E0003196A491AF873196E491FC01359624910E
:1017F00031968491BC81B23050F0622E772467FC20
:101800007094E82FFF27E7FDF095FE87ED87FC81B8
:10181000CF2ED12C6C9C40016D9C900C7C9C900C2C
:101820001124860E971EA12C1982DE8ACD8AAB0167
:10183000420F511D27FD5A955E834D83AF81B885B8
:10184000A80FB11D87FDBA95B88FAF8B59818F85D1
:10185000581708F063C0852F90E02D853E85280F2E
:10186000391F2C9DD0012D9DB00D3C9DB00D112434
:10187000EF81F885EA0FFB1FFB83EA836D807E8092
:101880002401FA2D2D81F21BFA8B4F89588D480FB8
:10189000591F5C8B4B8B9A89960D862D2D81821B4F
:1018A00039858317B0F5977061F4898D9A8D01960B
:1018B000E889F989298D3A8DE20FF31FB4909A8F48
:1018C000898FB7FE1DC0D101ED91FC91BC81B13073
:1018D00059F40480F581E02D2B853C854B895C898A
:1018E000B301C10109950CC00684F785E02DEB8496
:1018F000FC84860196014A815B81B201C101099590
:10190000BB0CED89FE894E0E5F1EFFEF6F1A7F0A3A
:10191000C2CFA30E49814F5F498398CF6A960FB615
:10192000F894DEBF0FBECDBFDF91CF911F910F9115
:10193000FF90EF90DF90CF90BF90AF909F908F90EF
:101940007F906F905F904F903F902F900895AF924F
:10195000BF92CF92EF92FF920F931F93CF93DF939B
:10196000EC01262F888D998D009709F042C06A30CE
:1019700069F42C898E859F8538E0239F800D911D09
:1019800011249F878E871D861C86ABC06D3009F49D
:10199000A8C08E898823C1F03C898C859D8546E04E
:1019A000349F800D911D1124488559858417950712
:1019B0005CF01D861C868E859F85E8E03E9F800D2D
:1019C000911D11249F878E87EA88FB8808891989D1
:1019D0004E855F856C857D85CC88CE010E94050B88
:1019E0002C898C859D85F6E02F9F800D911D1124FB
:1019F00041C06A3079F41D861C864C89FC013696FC
:101A000084912E853F85489F200D311D11243F87ED
:101A10002E8767C06D3009F464C0AC014C5F5F4F26
:101A2000FA013491631708F45CC03196E491E6172B
:101A300008F457C0FA014491362F341BFC0132964A
:101A4000A590B490F7E03F9FA00CB11C1124F501C4
:101A50003296A4913196E491AA2311F0E1110DC0C0
:101A6000F5013496A4902C898C859D85A29E800DCD
:101A7000911D11249D878C8734C0F5013596E49122
:101A80003E89332309F13C89B0E0AE0FB11DE7FD7B
:101A9000BA953A9FA0013B9F500D11246C857D851E
:101AA000460F571F68857985461757076CF01D86C6
:101AB0001C86FC01369684914E855F85389F400DCB
:101AC000511D11245F874E87EA88FB880889198990
:101AD0004E855F856C857D85CC88CE010E94050B87
:101AE000BFCF81E090E0DF91CF911F910F91FF90E8
:101AF000EF90CF90BF90AF900895FC0175876487F9
:101B0000578746870895611101C061E0FC01648B2D
:101B10000895FC01738B628B718B608B0895FC01BF
:101B2000808591850895FC01828593850895FC0147
:101B300077FD68C080859185681779070CF062C0D1
:101B400057FD60C082859385481759070CF05AC02D
:101B50008589823059F08330B1F08130D1F48FE241
:101B600090E0861B970BBA01AC0113C083E590E0AF
:101B7000FC01E61BF70BBF018FE290E0FC01E41BC8
:101B8000F50BAF0106C083E590E0841B950BAB011C
:101B9000BC0164357105B0F54033510598F5CA01B3
:101BA000E3E095958795EA95E1F747705527232B54
:101BB000A1F024E5289FF001299FF00D1124E60FE4
:101BC000F71FED5CFD4F81E090E0042E01C0880F0F
:101BD0000A94EAF79081982B14C024E5289FF0011D
:101BE000299FF00D1124E60FF71FED5CFD4F81E0FA
:101BF00090E0042E01C0880F0A94EAF78095908146
:101C0000982390830895EF92FF920F931F93CF93A1
:101C1000DF931F92CDB7DEB77C01062F142F40E370
:101C200050E064E570E029830E94E40A82E894E0D1
:101C3000F701918380838FEF828F838F048F2981B7
:101C4000258F168F0F90DF91CF911F910F91FF90ED
:101C5000EF900895FC01828D8F3F21F481E0938DF8
:101C60009F3F09F080E008950F931F93CF93DF9378
:101C70001F92CDB7DEB78C0169830E942A0E69815D
:101C8000882339F06EBD00000DB407FEFDCF8EB580
:101C90002DC088E090E030E8D8019196ED91FC915C
:101CA0009297408194962C91949720952423208399
:101CB0005F96ED91FC91909793962C91432F46233C
:101CC00021F04081422B408304C040812095242391
:101CD0002083D8019196ED91FC9192972081949662
:101CE0004C91242B208336950197B1F60F90DF910C
:101CF000CF911F910F9108951F93CF93DF93EC0124
:101D0000162F60E08C8D0E942B118E8D18161CF4FE
:101D100060E00E942B11612FCE010E94340E8E8D47
:101D2000181634F461E0DF91CF911F910C942B11C0
:101D3000DF91CF911F9108951F93CF93DF93EC0113
:101D4000162F67FD1FE761E2CE010E947C0E612F16
:101D50006068CE010E947C0E60E2CE01DF91CF91DF
:101D60001F910C947C0EDF92EF92FF920F931F93C2
:101D7000CF93DF93EC01F3E3EF2EF2E0FF2ED12CB3
:101D80006D2D6064CE010E947C0E60E8CE010E9441
:101D90007C0E61E08C8D0E942B118E8D18161CF428
:101DA00060E00E942B1100E010E0F701E00FF11F4E
:101DB0006081CE010E94340E0F5F1F4F0435110564
:101DC000A1F78E8D18161CF461E00E942B11D3949C
:101DD00084E5E80EF11C86E0D812D2CF60E4CE0193
:101DE000DF91CF911F910F91FF90EF90DF900C94B6
:101DF0007C0E0F931F93CF93DF93EC01162F042FCC
:101E00000E942A0E882379F00E9427098CB58C7FC6
:101E10008CBD8DB58E7F8DBD8CB5837F8CBD8CB513
:101E20008F7D8CBD34C061E08A8D0E94F21061E02C
:101E30008B8D0E94F2108B8D992787FD9095FC0168
:101E4000E057FA4FE491F0E0EE0FFF1FE255FA4F32
:101E5000259134913AA329A3FC01E458FA4F8491C7
:101E60008CA38A8D992787FD9095FC01E057FA4F46
:101E7000E491F0E0EE0FFF1FE255FA4F2591349107
:101E800038A32F8FFC01E458FA4F84918BA361E0B3
:101E90008C8D0E94F2108D8D18161CF461E00E944A
:101EA000F2108E8D18161CF461E00E94F2108D8DD8
:101EB00018166CF460E00E942B1164EF71E080E072
:101EC00090E00E94071061E08D8D0E942B1161E26D
:101ED000CE010E947C0E602F6061CE010E947C0EBC
:101EE00017FD1FE7612F6068CE010E947C0E60E243
:101EF000CE010E947C0E6CE0CE010E947C0ECE01D1
:101F0000DF91CF911F910F910C94B30E28EF31E028
:101F1000E3E3F2E0DF01A9011D9241505040E1F7F7
:101F2000DC011D961C921E921C971F961C921E92FD
:101F30001E9708951F920F920FB60F9211242F93A0
:101F40003F938F939F93AF93BF938091D6049091CB
:101F5000D704A091D804B091D9043091D50426E0DB
:101F6000230F2D3720F40296A11DB11D05C029E8CD
:101F7000230F0396A11DB11D2093D5048093D60491
:101F80009093D704A093D804B093D9048091DA0435
:101F90009091DB04A091DC04B091DD040196A11DB9
:101FA000B11D8093DA049093DB04A093DC04B0931A
:101FB000DD04BF91AF919F918F913F912F910F9031
:101FC0000FBE0F901F9018953FB7F8948091DA04D8
:101FD0009091DB04A091DC04B091DD0426B5A89BB0
:101FE00005C02F3F19F00196A11DB11D3FBF662707
:101FF000782F892F9A2F620F711D811D911D43E04B
:10200000660F771F881F991F4A95D1F70895CF92C1
:10201000DF92EF92FF92CF93DF936B017C010E94DE
:10202000E40FEB01C114D104E104F10489F00E9432
:10203000FA150E94E40F6C1B7D0B683E734090F311
:1020400081E0C81AD108E108F108C851DC4FEACF95
:10205000DF91CF91FF90EF90DF90CF90089578942B
:1020600084B5826084BD84B5816084BD85B582609D
:1020700085BD85B5816085BDEEE6F0E0808181603B
:102080008083E1E8F0E0108280818260808380813B
:1020900081608083E0E8F0E0808181608083E1EB13
:1020A000F0E0808184608083E0EBF0E080818160FB
:1020B0008083EAE7F0E080818460808380818260B1
:1020C000808380818E7F808380818068808310926E
:1020D000C10008951F93CF93DF93182FEB0161E0A8
:1020E0000E94F210209711F460E004C0CF3FD105A8
:1020F00039F461E0812FDF91CF911F910C942B1166
:10210000E12FF0E0E859FA4FE491E330F9F048F4B8
:10211000E130B9F0E230A1F584B5806284BDC8BD7C
:1021200034C0E730E9F0E83019F1E43049F5809146
:102130008000806280938000D0938B00C0938A00DF
:1021400024C084B5806884BDC7BD1FC08091800055
:10215000806880938000D0938900C093880015C068
:102160008091B00080688093B000C093B3000DC030
:102170008091B00080628093B000C093B40005C02D
:10218000C038D1050CF0B5CFAFCFDF91CF911F9103
:102190000895833081F028F4813099F08230A1F0E5
:1021A00008958730A9F08830B9F08430D1F4809157
:1021B00080008F7D03C0809180008F7780938000A6
:1021C000089584B58F7702C084B58F7D84BD08954E
:1021D0008091B0008F7703C08091B0008F7D809395
:1021E000B0000895CF93DF9390E0FC01E458FA4FDC
:1021F0002491FC01E057FA4F8491882349F190E043
:10220000880F991FFC01E854FA4FA591B4918255AB
:102210009A4FFC01C591D4919FB7611108C0F89401
:102220008C91209582238C93888182230AC062300E
:1022300051F4F8948C91322F309583238C938881BC
:10224000822B888304C0F8948C91822B8C939FBF3F
:10225000DF91CF9108950F931F93CF93DF931F9238
:10226000CDB7DEB7282F30E0F901E859FA4F849155
:10227000F901E458FA4F1491F901E057FA4F04912B
:102280000023C9F0882321F069830E94C910698165
:10229000E02FF0E0EE0FFF1FE255FA4FA591B49149
:1022A0009FB7F8948C91611103C01095812301C0F0
:1022B000812B8C939FBF0F90DF91CF911F910F9136
:1022C0000895CF93DF93282F30E0F901E859FA4FB2
:1022D0008491F901E458FA4FD491F901E057FA4F8B
:1022E000C491CC2391F081110E94C910EC2FF0E031
:1022F000EE0FFF1FEC55FA4FA591B4912C912D23B1
:1023000081E090E021F480E002C080E090E0DF9185
:10231000CF910895CF92DF92EF92FF920F931F9388
:10232000CF93DF937C016A01EB0100E010E00C1514
:102330001D0571F06991D701ED91FC910190F0813B
:10234000E02DC7010995892B19F00F5F1F4FEFCFC3
:10235000C801DF91CF911F910F91FF90EF90DF9017
:10236000CF9008956115710581F0DB010D9000207B
:10237000E9F7AD0141505109461B570BDC01ED91C6
:10238000FC910280F381E02D099480E090E00895B3
:10239000DC01ED91FC91DB0114964D915C91159758
:1023A0006D917C910280F381E02D099466E974E0DF
:1023B0000C94B2110F931F93CF93DF93EC010E9403
:1023C000C8118C01CE010E94D611800F911FDF91A0
:1023D000CF911F910F9108950F931F93CF93DF9388
:1023E000EC010E94B2118C01CE010E94D611800F27
:1023F000911FDF91CF911F910F9108953F924F92BE
:102400005F926F927F928F929F92AF92BF92CF9284
:10241000DF92EF92FF920F931F93CF93DF9300D041
:1024200000D0CDB7DEB78B0129013A0190912B0482
:10243000981721F09F3F09F0DAC104C0E2ECF5E003
:10244000349081C080932B04E2ECF5E0E491EF3FFF
:1024500009F4CDC1E13031F1E23009F44BC0E111B2
:1024600071C014BC15BC94B5926094BD95B59160D3
:1024700095BD282F30E0F901E057FA4FE491F0E0E4
:10248000EE0FFF1FE255FA4F459154915093EE0421
:102490004093ED04F901E458FA4F24912093EC04A1
:1024A000312C53C0109280001092810090918100D5
:1024B0009860909381009091810091609093810049
:1024C000282F30E0F901E057FA4FE491F0E0EE0FE9
:1024D000FF1FE255FA4F459154915093E704409302
:1024E000E604F901E458FA4F24912093E5043324DB
:1024F00033942BC01092B0001092B1009091B000B4
:1025000092609093B0009091B10091609093B1006F
:10251000282F30E0F901E057FA4FE491F0E0EE0F98
:10252000FF1FE255FA4F459154915093E0044093B8
:10253000DF04F901E458FA4F24912093DE0452E0BD
:10254000352E03C03E2E37FC52C161E00E94F210CE
:102550004801A12CB12C832D8D7F09F0C7C060E00C
:1025600079E08DE390E0A50194010E943116298362
:102570003A834B835C8369017A0181E0C81AD108F0
:10258000E108F1089FEFC916D104E104F10409F054
:1025900008F49AC060E271EA87E090E0A501940136
:1025A0000E94311669017A01E1E0CE1AD108E108F2
:1025B000F108F2E03F1219C08FEFC816D104E10410
:1025C000F10409F008F48AC068E478EE81E090E054
:1025D000A50194010E94311669017A0191E0C91A9E
:1025E000D108E108F10883E001C082E0EFEFCE16E8
:1025F000D104E104F10409F008F467C064E274EF67
:1026000080E090E0A50194010E94311669017A01F1
:10261000F1E0CF1AD108E108F1083320E1F082E0BF
:1026200038121BC09FEFC916D104E104F10409F070
:1026300008F4DBC062E17AE780E090E0A501940154
:102640000E94311669017A01E1E0CE1AD108E10851
:10265000F10885E003C083E001C084E0FFEFCF16FE
:10266000D104E104F10489F180F169E07DE380E0C7
:1026700090E0A50194010E94311669017A0181E080
:10268000C81AD108E108F108311002C084E001C085
:1026900086E09FEFC916D104E104F104B1F0A8F07F
:1026A000C980DA80EB80FC809AE0F594E794D794B7
:1026B000C7949A95D1F7E1E0CE1AD108E108F10864
:1026C000332031F087E00BC081E0332011F007C0E8
:1026D00085E095B5987F982B95BD38C082E09091A4
:1026E000B100987F982B9093B10030C060E079E002
:1026F0008DE390E0A50194010E94311669017A01F1
:10270000F1E0CF1AD108E108F108C114D10481E049
:10271000E806F10488F064E274EF80E090E0A5013F
:1027200094010E94311669017A0191E0C91AD10819
:10273000E108F10893E001C091E0E1E03E1206C03B
:1027400080918100887F892B8093810041145104FE
:102750006104710471F0D801AA0FBB1FA30192019B
:102760000E94501628EE33E040E050E00E940F1621
:1027700003C02FEF3FEFA901F1E03F16A1F082E087
:10278000381619F1311033C0C7BC2093EF043093D1
:10279000F0044093F1045093F20480916E00826043
:1027A00080936E0024C0D0928900C092880020934C
:1027B000E8043093E9044093EA045093EB048091D9
:1027C0006F00826080936F0012C0C092B3002093AC
:1027D000E1043093E2044093E3045093E4048091D5
:1027E000700082608093700002C084E078CF0F9008
:1027F0000F900F900F90DF91CF911F910F91FF904D
:10280000EF90DF90CF90BF90AF909F908F907F9090
:102810006F905F904F903F900895813039F018F09D
:10282000823051F0089510926E00089580916F00EB
:102830008D7F80936F000895809170008D7F8093CD
:10284000700081E08093B0008091B100887F846047
:102850008093B1001092B3000895CF93C82F809158
:102860002B048C1307C0E2ECF5E084919FEF90936A
:102870002B0401C08FEF0E940D1460E08C2FCF91CC
:102880000C942B111F920F920FB60F9211242F93BD
:102890003F934F935F936F937F938F939F93AF93E8
:1028A000BF93EF93FF938091E1049091E204A09194
:1028B000E304B091E404892B8A2B8B2B51F1909186
:1028C000DE04E091DF04F091E004808189278083B9
:1028D0008091E1049091E204A091E304B091E404BA
:1028E000181619061A061B06C4F48091E10490918B
:1028F000E204A091E304B091E4040197A109B109B5
:102900008093E1049093E204A093E304B093E40481
:1029100004C080912B040E942D14FF91EF91BF9170
:10292000AF919F918F917F916F915F914F913F9167
:102930002F910F900FBE0F901F901895FC01808172
:1029400091810C941C17CF93DF93EC0188819981BE
:10295000009711F00E941C17198218821D821C8298
:102960001B821A82DF91CF9108950F931F93CF930B
:10297000DF93EC018B016F5F7F4F888199810E940B
:10298000AB17009731F0998388831B830A8381E01A
:1029900001C080E0DF91CF911F910F910895CF93F7
:1029A000DF93EC0188819981892B29F08A819B81B1
:1029B0008617970760F4CE010E94B514882341F072
:1029C0008C819D81892B19F4E881F981108281E045
:1029D000DF91CF910895EF92FF920F931F93CF93C2
:1029E000DF93EC017B018A01BA010E94CF148111AF
:1029F00004C0CE010E94A31407C01D830C83B7013D
:102A0000888199810E948318CE01DF91CF911F9117
:102A10000F91FF90EF900895FC01118210821382B4
:102A20001282158214826115710559F0FB01019023
:102A30000020E9F7AF0141505109461B570B0C9498
:102A4000EB140895CF93DF93EC01FB0186179707F2
:102A500061F0608171816115710529F044815581B2
:102A60000E94EB1402C00E94A314CE01DF91CF910B
:102A70000895FC0111821082138212821582148241
:102A80000C942215EF92FF920F931F93CF93DF9335
:102A9000EC017B010C811D816115710511F480E051
:102AA00016C04115510591F0040F151FB8010E9481
:102AB000CF148823A1F3288139818C819D81B701AE
:102AC000820F931F0E9483181D830C8381E0DF9186
:102AD000CF911F910F91FF90EF900895CF93DF93C7
:102AE00000D0CDB7DEB769831A8241E050E0BE0165
:102AF0006F5F7F4F0E9442150F900F90DF91CF9133
:102B00000895EF92FF920F931F93CF93DF93CDB76A
:102B1000DEB728970FB6F894DEBF0FBECDBF7C019D
:102B2000CB014AE08E010F5F1F4FB8010E948A1847
:102B3000F80101900020E9F7AF0141505109401B15
:102B4000510BB801C7010E94421528960FB6F894A0
:102B5000DEBF0FBECDBFDF91CF911F910F91FF90D0
:102B6000EF900895CF93DF93EC016115710569F043
:102B7000FB0101900020E9F7AF0141505109461BCC
:102B8000570B0E944215811103C0CE010E94A3146D
:102B9000CE01DF91CF910895CF93DF93EC010E9496
:102BA0006E15811103C0CE010E94A314CE01DF91E6
:102BB000CF910895CF93DF93EC010E94811581118D
:102BC00003C0CE010E94A314CE01DF91CF910895DE
:102BD0000E94751808950E942F100E94EA150E9405
:102BE000A307C0E0D0E00E9412092097E1F30E9401
:102BF0000000F9CF089597FB072E16F4009407D034
:102C000077FD09D00E945B1607FC05D03EF4909535
:102C100081959F4F0895709561957F4F0895A1E22A
:102C20001A2EAA1BBB1BFD010DC0AA1FBB1FEE1F46
:102C3000FF1FA217B307E407F50720F0A21BB30B91
:102C4000E40BF50B661F771F881F991F1A9469F70D
:102C500060957095809590959B01AC01BD01CF0169
:102C60000895052E97FB1EF400940E94481657FD08
:102C700007D00E940F1607FC03D04EF40C944816A0
:102C800050954095309521953F4F4F4F5F4F089598
:102C900090958095709561957F4F8F4F9F4F0895C8
:102CA0000E947516A59F900DB49F900DA49F800D56
:102CB000911D11240895AA1BBB1B51E107C0AA1F37
:102CC000BB1FA617B70710F0A61BB70B881F991FCD
:102CD0005A95A9F780959095BC01CD010895EE0F06
:102CE000FF1F0590F491E02D0994A29FB001B39FBE
:102CF000C001A39F700D811D1124911DB29F700D05
:102D0000811D1124911D0895CF93DF938230910589
:102D100010F482E090E0E091F504F091F60420E0F8
:102D200030E0A0E0B0E0309739F1408151814817A0
:102D30005907B8F04817590771F4828193811097A9
:102D400029F013969C938E9312972CC09093F604BF
:102D50008093F50427C02115310531F04217530740
:102D600018F0A901DB0101C0EF019A01BD01DF01EB
:102D70000280F381E02DD7CF21153105F9F0281B12
:102D8000390B2430310580F48A819B8161157105EE
:102D900021F0FB019383828304C09093F604809317
:102DA000F504FE01329644C0FE01E20FF31F819349
:102DB000919322503109398328833AC02091F3043A
:102DC0003091F404232B41F420910201309103014E
:102DD0003093F4042093F304209100013091010119
:102DE0002115310541F42DB73EB7409104015091B2
:102DF0000501241B350BE091F304F091F404E21774
:102E0000F307A0F42E1B3F0B2817390778F0AC010D
:102E10004E5F5F4F2417350748F04E0F5F1F5093EA
:102E2000F4044093F3048193919302C0E0E0F0E056
:102E3000CF01DF91CF910895CF93DF93009709F4ED
:102E400087C0FC01329713821282C091F504D091A1
:102E5000F604209781F420813181280F391F809159
:102E6000F3049091F4048217930779F5F093F40436
:102E7000E093F3046DC0DE0120E030E0AE17BF0741
:102E800050F412964D915C9113979D014115510597
:102E900009F1DA01F3CFB383A28340815181840F1A
:102EA000951F8A179B0771F48D919C911197840F40
:102EB000951F02969183808312968D919C91139712
:102EC000938382832115310529F4F093F604E0936E
:102ED000F5043EC0D9011396FC93EE9312974D91E1
:102EE0005D91A40FB51FEA17FB0779F480819181EA
:102EF000840F951F0296D90111969C938E9382811F
:102F0000938113969C938E931297E0E0F0E08A8170
:102F10009B81009719F0FE01EC01F9CFCE010296DA
:102F200028813981820F931F2091F3043091F4049A
:102F30002817390769F4309729F41092F604109293
:102F4000F50402C013821282D093F404C093F304F8
:102F5000DF91CF910895A0E0B0E0E1EBF7E10C94B0
:102F6000C318EC01CB01209719F40E948416B8C055
:102F7000FE01E60FF71F9E0122503109E217F30709
:102F800008F4ACC0D9010D911C91119706171707D1
:102F9000B8F00530110508F49FC0A801445051094C
:102FA0004617570708F498C002501109061B170B63
:102FB000019311936D937C93CF010E941C178CC0D9
:102FC0005B01A01AB10A4E01800E911EA091F5047A
:102FD000B091F604612C712C60E070E0109709F458
:102FE00049C0A815B905C9F5ED90FC901197670186
:102FF00042E0C40ED11CCA14DB0478F147018A18E0
:103000009B08640142E0C40ED11C1296BC9012973A
:103010001396AC91B5E0CB16D10440F0B282A383F5
:1030200091828082D9018D939C9309C00E5F1F4FBE
:103030000E0D1F1DF90111830083EB2DFA2F611571
:10304000710531F0DB011396FC93EE93129744C0A7
:10305000F093F604E093F5043FC06D917C911197D5
:103060006616770608F43B01BD0112960D90BC91DF
:10307000A02DB4CF6091F3047091F4046815790524
:10308000E9F468167906D0F44091000150910101ED
:103090004115510541F44DB75EB76091040170913F
:1030A0000501461B570BE417F507C0F4F093F40431
:1030B000E093F304F901918380830EC00E9484168B
:1030C0007C01009759F0A801BE010E947A18CE0138
:1030D0000E941C17C70104C0CE0102C080E090E02E
:1030E000CDB7DEB7EEE00C94DF1881E090E0F89405
:1030F0000C94F618FB01DC0102C001900D924150C6
:103100005040D8F70895FB01DC0101900D9200209A
:10311000E1F70895BB274A3031F4992322F4BDE248
:10312000909581959F4F0C949618BB27FB015527CE
:10313000AA27880F991FAA1FA41710F0A41B839514
:103140005051B9F7A05DAA3308F0A95DA19300978B
:1031500079F7B111B1931192CB010C94AF18DC0146
:10316000FC01672F71917723E1F7329704C07C91BE
:103170006D9370836291AE17BF07C8F308952F92C5
:103180003F924F925F926F927F928F929F92AF92F7
:10319000BF92CF92DF92EF92FF920F931F93CF9344
:1031A000DF93CDB7DEB7CA1BDB0B0FB6F894DEBFDB
:1031B0000FBECDBF09942A88398848885F846E8401
:1031C0007D848C849B84AA84B984C884DF80EE804B
:1031D000FD800C811B81AA81B981CE0FD11D0FB654
:1031E000F894DEBF0FBECDBFED010895F894FFCF78
:1031F0000000F7048000000000000FF00FF00FF057
:103200000FF00FF000000000000000000410122476
:1032100017F41DDC1FFC0FF804100808000003C0A1
:103220000420081012481008142813C8099004201C
:1032300003C00000300C5FFA9009900990095FFA12
:10324000300C00000000129032987FFCFFFEFFFE61
:10325000FFFE7BBC33981290000083C68129812930
:1032600081298129812F812981298129FBC9020096
:1032700007000F801FC03FE07FF0E03829A021A0A9
:1032800021A0EEEEAAAAEEEE8A8A8A8A0000000049
:103290000000000000008BA8DAA8ABB08AA80000EC
:1032A00077804480770044807480010003180514FF
:1032B00009100B300B30180018000000000001E06E
:1032C0000610084808101020104508200810066055
:1032D000018003E00C1813641364100408880410C0
:1032E0000550055005500000300C4BD24C32324C8A
:1032F00008100990042003C00000FFFFFFFFFFFF3C
:10330000FFFFFFFFFFFFFFFFFFFFFFFFFFFFFFFFCD
:10331000FFFFFFFFFFFFFFFFFFFFFFFFFFFFFFFFBD
:10332000FFFF3C0000000000000000000000000063
:10333000000000000000000000000000000000008D
:10334000000000000000000000C0E0F0F8FCFCFEFF
:10335000FFFCE00000000000000000000000000092
:10336000000000000000000000000000000000005D
:10337000000000000000000000000000000000004D
:103380000000000000000000F8F8F8F8F8F8F8F87D
:10339000F8F8F8F8F0F0E0E0C080C0FCFFFFFFFFB5
:1033A0007F3F7FFFFFFFFFFF0000000000000000E5
:1033B000000000000000000000000000000000000D
:1033C00000000000000000000000000000000000FD
:1033D000000000000000000000000000000F1F3F80
:1033E0007FFFFFFFFFFFFFFFFFE7C7C7878F9F9F9D
:1033F000FFFFFFC1C0E0FCFFFFFFFFFFFCFCFCFC88
:10340000FEFEFEFCFCF8F8F0E0C0C000000000008A
:1034100000000000000000000000000000000000AC
:10342000000000000000000000000000000000009C
:103430000000000080C0E0F1FBFFFFFFFFFF7F1FE7
:103440000F0F87E7FFFFFF1F1F3FF9F8F8F8F8F8A5
:10345000F8FDFFFFFFFFFFFFFFFFFF7F3F0F0701AB
:10346000000000000000000000000000000000005C
:10347000000000000000000000000000000000004C
:10348000000000000000F0FEFFFFFFFFFFFFFFFF56
:10349000FFFFFE7E3F3F0F1FFFFFFFFCF0E0F1FF4D
:1034A000FFFFFFFFFCF0010101010101010100002C
:1034B000000000000000000000000000000000000C
:1034C00000000000000000000000000000000000FC
:1034D00000000000000000000000030303030303DA
:1034E00003030101010100000000000000030F1FA1
:1034F0003F7F7FFFFFFFFF7F7F1F03000000000073
:1035000000000000000000000000000000000000BB
:103510000000000000000000000000FF204B697464
:10352000636F2E66720020202050720073656E74E7
:10353000650043617373652D6272697175657320EF
:10354000004E697665617520002D436F6E7374724D
:10355000617374652D0000000000A70C8A11E81546
:103560005D09630A7A0A140A900AC50AE30A000090
:103570000000A70C8A11970D5D09630A7A0A140AE4
:10358000900AC50AE30A0D0A006E616E00696E6654
:08359000006F7666002E0000BA
:00000001FF
