:100000000C945E010C9486010C9486010C9486017C
:100010000C9486010C9486010C9486010C940322A6
:100020000C9486010C9486010C9486010C94860134
:100030000C9486010C9486010C9486010C94860124
:100040000C948B1B0C9486010C94C61E0C94F81E09
:100050000C9486010C9486010C9486010C94860104
:100060000C9486010C948601000000000000005FE3
:1000700000000007000700147F147F14242A7F2A41
:10008000122313086462364955225000050300000C
:10009000001C2241000041221C0014083E081408E4
:1000A000083E0808005030000008080808080060F2
:1000B00060000020100804023E5149453E00427F86
:1000C000400042615149462141454B311814127F8D
:1000D0001027454545393C4A494930017109050316
:1000E0003649494936064949291E0036360000007E
:1000F0005636000008142241001414141414004150
:100100002214080201510906324979413E7E11113B
:10011000117E7F494949363E414141227F4141227A
:100120001C7F494949417F090909013E4149497AF2
:100130007F0808087F00417F41002040413F017F48
:10014000081422417F404040407F020C027F7F0420
:1001500008107F3E4141413E7F090909063E415159
:10016000215E7F09192946464949493101017F012C
:10017000013F4040403F1F2040201F3F4038403F4C
:100180006314081463070870080761514945430068
:100190007F41410002040810200041417F00040219
:1001A0000102044040404040000102040020545439
:1001B00054787F48444438384444442038444448C0
:1001C0007F3854545418087E0901020C5252523E92
:1001D0007F0804047800447D40002040443D007FB7
:1001E0001028440000417F40007C041804787C08FB
:1001F00004047838444444387C1414140808141453
:10020000187C7C080404084854545420043F44409B
:10021000203C4040207C1C2040201C3C4030403C86
:1002200044281028440C5050503C4464544C440022
:100230000836410000007F00000041360800100829
:1002400008100878464146787C3C3E5E2B3D3F2FA7
:100250005B5D3B2C2A225C000000000800020100CC
:100260000003040700000000000000000102040871
:100270001020408001020408102001020408102010
:10028000040404040404040402020202020203033C
:1002900003030303000000002300260029000000E0
:1002A0000000250028002B0000000000240027008B
:1002B0002A0002006408110C5C0F281F11241FBEC5
:1002C000CFEFD8E0DEBFCDBF14E0A0E0B1E0EAE5BB
:1002D000F8E402C005900D92AA30B107D9F727E0E3
:1002E000AAE0B4E001C01D92A237B207E1F712E024
:1002F000CCEBD2E004C02297FE010E94CA22C43B8C
:10030000D107C9F70E9460220C942B240C940000A2
:100310006FEF70E0681B710985E00C94671CCF9348
:10032000C62F682F8AE00E94281D60E089E00E94A5
:10033000281DCEBD00000DB407FEFDCF8EB561E0D7
:1003400089E0CF910C94281D8435910528F5603300
:10035000710510F59B012770332733E0759567957C
:100360003A95E1F734E5369FF001379FF00D1124FF
:10037000E80FF91FE95FFE4F81E090E0022E01C017
:10038000880F0A94EAF7442319F09081982B03C050
:10039000809590819823908308953F924F925F9229
:1003A0006F927F928F929F92AF92BF92CF92DF9285
:1003B000EF92FF920F931F93CF93DF937C01EB019A
:1003C0004A013901302E8901061B170B6A01C81A30
:1003D000D90A17FF07C0119501951109AA24AA94FB
:1003E000BA2C03C0AA24A394B12CD7FE07C0D19481
:1003F000C194D10844244A94542C03C04424439407
:10040000512C000F111FCC0CDD1C432DBE01C70168
:100410000E94A4010C151D05CCF4C6019595879585
:100420003801681A790AE814F90449F177FC04C024
:10043000CA0DDB1D6C187D08E40CF51C600E711EE6
:10044000432DBE01C7010E94A401EDCFC8019595BF
:1004500087954601881A990AC615D70581F097FC39
:1004600004C0E40CF51C801A910ACA0DDB1D8C0C2B
:100470009D1C432DBE01C7010E94A401EDCFDF9159
:10048000CF911F910F91FF90EF90DF90CF90BF9091
:10049000AF909F908F907F906F905F904F903F9024
:1004A00008954F925F926F927F928F929F92AF9238
:1004B000BF92CF92DF92EF92FF920F931F93CF9351
:1004C000DF93642E552E722E8B0195E08902500128
:1004D0001124C12CD12CC501885390405C014424C7
:1004E00043944226F501EC0DFD1D8490C62DD52DBB
:1004F000E12CF12C912CC4010E2C02C0959587950E
:100500000A94E2F780FF02C0472D01C0442DBE01CE
:10051000C8010E94A4019FEFE91AF90A219688E018
:10052000E816F10441F79FEFC91AD90A0F5F1F4F70
:1005300085E0C816D104B1F6DF91CF911F910F91DC
:10054000FF90EF90DF90CF90BF90AF909F908F90F3
:100550007F906F905F904F9008956F927F928F92EF
:100560009F92AF92BF92CF92DF92EF92FF920F9342
:100570001F93CF93DF93EB018A01622E6C017724E6
:1005800073947226F60181916F01882319F1262D4B
:10059000A801BE010E9451024E0185E0880E911C07
:1005A00078015801E7E0AE0EB11CAE14BF044CF068
:1005B000472DB701C4010E94A401FFEFEF1AFF0A03
:1005C000F4CF2696C035D105ECF2085F1F4FC0E08E
:1005D000D0E0D8CFDF91CF911F910F91FF90EF9096
:1005E000DF90CF90BF90AF909F908F907F906F9053
:1005F0000895E7E0F1E09FEF882311F0908301C0B8
:100600001082319622E0EF3FF207B1F70895CF93C1
:10061000C62F682F606880E00E948F016C2F606495
:1006200080E0CF910C948F01CF93DF9360E070E076
:1006300080E090E00E940703C7E0D1E0699181E08B
:100640000E948F0182E0CF3FD807C1F7DF91CF91A1
:100650000895CF93C82F61E280E00E948F016C2F34
:10066000606880E00E948F0160E280E0CF910C948E
:100670008F0161E089E00E94EF1C61E08AE00E9446
:10068000EF1C61E08BE00E94EF1C61E08DE00E94B6
:10069000EF1C61E085E00E94EF1C60E070E085E007
:1006A0000E94671C0E9468088CB5837F8CBD8CB546
:1006B0008F7D8CBD279A2F9864EF71E080E090E0E9
:1006C0000E94041C2F9A61E280E00E948F0160EB7F
:1006D00080E00E948F0164E080E00E948F0164E16D
:1006E00080E00E948F0160E280E00E948F016CE058
:1006F00080E00C948F0180E00E94F90221E044E147
:1007000050E06CE170E084E093E00E94AD020E9452
:10071000140361E081E10E94281D60E080E10E94F5
:10072000281D24EF31E040E050E068EE73E08EE0F9
:100730000E94BF1F64EF71E080E090E00E94041C03
:1007400060E081E10E94281D61E080E10E94281D97
:1007500024EF31E040E050E06CED75E08EE00E9467
:10076000BF1F64EF71E080E090E00E94041C61E034
:1007700081E10E94281D60E080E10E94281D24EF95
:1007800031E040E050E060ED77E08EE00E94BF1F76
:1007900064EF71E080E090E00E94041C60E081E181
:1007A0000E94281D60E080E10E94281D24EF31E0B6
:1007B00040E050E064EC79E08EE00E94BF1F68EEFC
:1007C00073E080E090E00E94041C8EE00E94EE2125
:1007D00064EF71E080E090E00E94041C61E081E140
:1007E0000E94281D61E080E10E94281D24EF31E075
:1007F00040E050E060EA7FE08EE00E94BF1F68EEBC
:1008000073E080E090E00E94041C8EE00E94EE21E4
:1008100060E081E10E94281D60E080E10E94281DC7
:1008200060ED77E080E090E00C94041CCF93C82F3B
:1008300061E081E10E94EF1C61E080E10E94EF1C19
:1008400061E08FE00E94EF1C60E084E00E94EF1CFA
:1008500061E084E00E94281D60E088E00E94EF1CB7
:1008600061E088E00E94281D60E087E00E94EF1CA4
:1008700061E087E00E94281D60E086E00E94EF1C96
:1008800061E086E00E94281D60E082E00E94EF1C8B
:1008900061E082E00E94281D60E083E00E94EF1C7E
:1008A00061E083E00E94281D0E94390380910601C7
:1008B0000E94290360E070E085E00E94671C61E00F
:1008C0008EE00E94EF1CCC2319F0CF910C947B0397
:1008D000CF9108959F92AF92BF92CF92DF92EF9205
:1008E000FF920F931F93CF93DF93CDB7DEB76B9734
:1008F0000FB6F894DEBF0FBECDBF61E081E10E946C
:10090000281D10920D0441E06EE374E0CE010196C3
:100910000E94930BCE0101960E94DF09811120C035
:100920008EE394E00E94FD0B6AE073E08CEB96E0AE
:100930000E94AD1F60E081E10E94281D6B960FB6FA
:10094000F894DEBF0FBECDBFDF91CF911F910F9105
:10095000FF90EF90DF90CF90BF90AF909F90089561
:1009600068E173E08CEB96E00E94AD1FCE0101962A
:100970000E946F09BC018CEB96E00E94AD1FCE0176
:1009800001960E94710981115EC0F12CCE01019681
:100990000E946F090F2D10E0800F911FFC018081D4
:1009A000882311F0F394F2CFF4E0FF1508F04BC068
:1009B000CE0101960E946F09800F911F0497FC01E0
:1009C00080818E3209F03FC0CE0101960E946F09EE
:1009D000800F911F0397FC0180818834A1F5CE011F
:1009E00001960E946F09800F911F0297FC01808180
:1009F000853449F5CE0101960E946F09800F911F41
:100A00000197FC0180818835F1F420910D0430E0DC
:100A100080910C04F6E08F9FC0011124281739073C
:100A200024F00696281739079CF080910D04F801F0
:100A300048E0849FE00DF11D1124E65FFB4F10821A
:100A40008F5F80930D04CE0101960E94CD095BCF8C
:100A5000912C680184E0C81AD108E92CF12CEC141F
:100A6000FD041CF7A0900D04B12CCE0101960E944C
:100A70006F098E0D9F1DFC018081F50193E0EE0F43
:100A8000FF1F9A95E1F7EE0DFF1DE25FFB4F80839C
:100A90009394E3CFCF93DF93CDB7DEB76B970FB6C9
:100AA000F894DEBF0FBECDBF26E040E855E260E01F
:100AB00070E08CEB96E00E946A1E67E273E08CEBBC
:100AC00096E00E94AD1F6FE08EE594E00E94EC0975
:100AD000811118C00E94F90220E044E150E063E077
:100AE00070E08FE393E00E94AD020E94140368EB74
:100AF0007BE080E090E00E94041C10920A041092B7
:100B00000B0453C069E473E08CEB96E00E94AD1FC8
:100B100021E04EE553E06EE574E0CE0101960E94BF
:100B2000050B8B819C8190934104809340048D81BF
:100B30009E81AF81B8858093420490934304A09333
:100B40004404B093450489859A85AB85BC85809320
:100B5000460490934704A0934804B09349048DE061
:100B6000FE013D96AAE4B4E001900D928A95E1F76A
:100B70008A8D9B8D909358048093570480E00E9447
:100B8000160480E00E94F90221E044E150E063E0B5
:100B900070E080E693E00E94AD020E94140368EECC
:100BA00073E080E090E00E94041C6B960FB6F8940E
:100BB000DEBF0FBECDBFDF91CF910895CF9380E010
:100BC0000E94F9020E94D51B24EF31E040E050E082
:100BD0000E947C22217033274427552781E0282753
:100BE000C22FC17080910A04811102C02C2F01C054
:100BF00021E040E050E063E070E08EE693E00E9488
:100C0000AD0280910A04813011F42C2F01C021E043
:100C100048E050E063E070E089E793E00E94AD02B5
:100C200080910A04823011F42C2F01C021E040E1B0
:100C300050E063E070E083E893E00E94AD028091B1
:100C40000A04833011F42C2F01C021E048E150E068
:100C500063E070E081E993E00E94AD020E9414031A
:100C600084E00E945E1D892BB1F480910A048823E0
:100C700091F0815080930A0424E630E040E050E097
:100C800064EC79E08EE00E94BF1F64E670E080E0D3
:100C900090E00E94041C87E00E945E1D892BB1F445
:100CA00080910A04833090F48F5F80930A0424E6D5
:100CB00030E040E050E064EC79E08EE00E94BF1F3D
:100CC00064E670E080E090E00E94041C82E00E94F4
:100CD0005E1D892B29F480910A048F5F80930B0499
:100CE000CF910895CF92DF92EF92FF920F93CF931F
:100CF00034EFC32EDD24D394E12CF12C83E00E9449
:100D00005E1D892B09F44CC00E94D51BA7019601DA
:100D10000E947C22217033274427552781E0282711
:100D2000C22FC17088E00E945E1D892B39F480912A
:100D300006018F3718F48F5F8093060186E00E94CA
:100D40005E1D892B39F480910601882319F08150AA
:100D500080930601809106010E94290380E00E9491
:100D6000F9022C2F44E150E063E070E08AE993E05F
:100D70000E94AD024091060184E5489FA001112424
:100D8000440F452F441F550B01E02EE130E06EE18A
:100D900070E080E090E00E94CD010E941403AECF8D
:100DA00010920B04CF910F91FF90EF90DF90CF90B6
:100DB0000895CF92DF92EF92FF920F93CF9344EF7B
:100DC000C42EDD24D394E12CF12C83E00E945E1D1F
:100DD000892B09F44CC00E94D51BA70196010E94E3
:100DE0007C22217033274427552781E02827C22FF2
:100DF000C17088E00E945E1D892B39F480915904EE
:100E00008F3F19F08F5F8093590486E00E945E1D2A
:100E1000892B39F480915904882319F081508093EB
:100E20005904809159040E94880180E00E94F902CF
:100E30002C2F44E150E063E070E087EA93E00E94E9
:100E4000AD028091590424E5829FC0011124592FDD
:100E5000550F550B01E02EE130E0492F6EE170E0B7
:100E600080E090E00E94CD010E941403AECF10926A
:100E70000B04CF910F91FF90EF90DF90CF900895EA
:100E80002F923F924F925F926F927F928F929F929A
:100E9000AF92BF92CF92DF92EF92FF920F931F9388
:100EA000CF93DF931C01912C10E0C62FD0E0E4EF2C
:100EB000CE2EDD24D394E12CF12C3E0181E0681A82
:100EC000710880E00E94F902812E412E512C5201BE
:100ED00086E0A80EB11C082D10E0C501CA15DB057F
:100EE0000CF4CE01081719071CF5891009C00E94DF
:100EF000D51BA70196010E947C222095217001C07C
:100F000021E02170A8014419550963E0440F551FE1
:100F10006A95E1F7C80173E0880F991F7A95E1F7A8
:100F200063E070E0820D931D0E94AD028394D3CFE5
:100F30000E94140387E00E945E1D892B11F5892D04
:100F400090E086159705ECF4892D66E00E947022EA
:100F5000953039F480910C048F5F80930C040E94CB
:100F60006A04939424E630E040E050E064EC79E0D9
:100F70008EE00E94BF1F64E670E080E090E00E9477
:100F8000041C84E00E945E1D892BF9F49920E9F08D
:100F9000892D66E00E947022911107C080910C0497
:100FA000815080930C040E946A049A9424E630E0F5
:100FB00040E050E064EC79E08EE00E94BF1F64E600
:100FC00070E080E090E00E94041C82E00E945E1DC0
:100FD000892B79F083E00E945E1D892B41F082E02D
:100FE000891518F41DEF190D6CCF10E06ACF8FEF43
:100FF00001C0892DDF91CF911F910F91FF90EF904C
:10100000DF90CF90BF90AF909F908F907F906F9028
:101010005F904F903F902F900895CF93DF930E9461
:101020006A0461EB73E08CEB96E00E94AD1F609167
:101030000D048EE094E00E944007C82F8F3F39F4E2
:1010400010920A0410920B04DF91CF91089580E072
:101050000E94F90221E040E050E063E070E087EB9D
:1010600093E00E94AD0288E0C89FE0011124C25FB6
:10107000DB4F21E048E050E063E070E0CE010E94E9
:10108000AD0221E040E150E063E070E085EC93E0E8
:101090000E94AD020E941403CE01EEEFFFE3DF9148
:1010A000CF91099480910B04813041F028F0823077
:1010B00039F0833039F008950C94DE050C947206F3
:1010C0000C94D9060C940D088EE394E00C945C0902
:1010D000CF93CFB7F89480915D04811127C0EAE8DF
:1010E000F2E08491E6E7F2E09491E82FF0E0EE0F71
:1010F000FF1FE855FD4FA591B4918C91892321F4F0
:1011000061E08AE00E94281D61E08AE00E94EF1CF5
:101110008CB580618CBD8CB580648CBD61E08DE048
:101120000E94EF1C61E08BE00E94EF1C80915D0447
:101130008F5F80935D04CFBFCF910895CF93DF93EE
:101140001F92CDB7DEB76983DC01ED91FC9102807F
:10115000F381E02D41E050E0BE016F5F7F4F0995C4
:101160000F90DF91CF910895CF93DF93EC01898D9C
:101170009A8D009759F0FC01138212820E9430155B
:10118000E98DFA8D22813381232B31F081E090E0CB
:101190009B838A8380E090E0DF91CF910895FC01EA
:1011A000818D928D009711F00C94D0120895CF93F9
:1011B000DF931F92CDB7DEB741E050E0BE016F5F15
:1011C0007F4F0E94AD10019719F4898190E002C011
:1011D0008FEF9FEF0F90DF91CF910895FC01818DEC
:1011E000928D009711F00C94D7088FEF9FEF089520
:1011F0000F931F93CF93DF938C01FC01818D928D10
:101200000097B9F00E94D708EC018F3FFFEF9F07CE
:1012100099F0F801818D928DFC014285538564859A
:10122000758541505109610971090E943412CE013E
:1012300005C080E090E002C08FEF9FEFDF91CF917B
:101240001F910F910895CF92DF92EF92FF920F932B
:101250001F93CF93DF93EC017B016A011B821A82FB
:1012600008EE13E020E030E00C831D832E833F83E3
:1012700086ED93E0998388838DE190E00E94DD22E2
:101280009A8F898F009779F02DE1F701DC010190A9
:101290000D922A95E1F74CE050E0B601CE010C9694
:1012A0000E941C24188EDF91CF911F910F91FF9007
:1012B000EF90DF90CF900895FC011382128248EEE8
:1012C00053E060E070E0448355836683778386ED66
:1012D00093E091838083128E118E148608950C966C
:1012E0000895DC015996ED91FC915A97309721F0C1
:1012F00081E09581923008F480E00895DC015996F0
:10130000ED91FC915A97309729F062857385848519
:10131000958508956FEF7FEFCB010895DC01599615
:10132000ED91FC915A97309729F0638974898589EA
:101330009689089560E070E0CB010895CF92DF9226
:10134000EF92FF92CF93DF93EC01898D9A8D892BD9
:10135000D9F0CE010E948E096B017C01CE010E9462
:101360007E09A7019601261B370B480B590BDA01A2
:10137000C901811530E89307A105B10538F08FEF59
:101380009FE7A0E0B0E002C080E090E0DF91CF9165
:10139000FF90EF90DF90CF900895CF93DF93EC0113
:1013A000898D9A8D009741F00E941713898D9A8D2F
:1013B0000E9475231A8E198EDF91CF910895DC015A
:1013C0005996ED91FC915A97309721F081E09581E3
:1013D000911101C080E008950F931F93CF93DF9385
:1013E000EC01462F61E00E94530D811102C080E0A4
:1013F0001DC08E01045F1F4F41E0BE01C8010E9465
:10140000771A882359F0B801CE018A960E945D10A0
:1014100091E0811101C090E0892F08C040E0BE0139
:10142000C8010E94771A882311F3EDCFDF91CF9185
:101430001F910F910895FC01DB0112968D919C91F3
:1014400013979383828386EE93E09183808314962F
:101450008C911497848315968C9115978583169695
:101460004D915D916D917C9119974683578360876B
:1014700071871A964D915D916D917C911D97428770
:101480005387648775871E964D915D916D917C9110
:10149000519746875787608B718B52968C915297E4
:1014A000828B53964D915D916D917C915697438BB4
:1014B000548B658B768B57964D915D916D917C9198
:1014C0005A97478B508F618F728F5B968D919C914D
:1014D0005C97948F838F08954F925F926F927F9263
:1014E0008F929F92AF92BF92CF92DF92EF92FF9234
:1014F0000F931F93CF93DF93CDB7DEB7C754D109B6
:101500000FB6F894DEBF0FBECDBF6C014A013901A2
:10151000665D7F4F5E018EE1A80EB11CC5010E9481
:101520001B0A1C821B8286EE93E09A8389831E82AB
:101530008401FE0131967F015A2C4B2C6FE270E042
:10154000C8010E9411240097E9F1F80120812F328F
:1015500019F40F5F1F4FF2CF801B8D3008F08CE025
:10156000A82EB12CA501B801CE01CB960E941C2457
:10157000EBE3F0E0EC0FFD1FEA0DFB1D1082C7014D
:101580000E94171321E0AE01455C5F4F652D742D5D
:10159000C7010E944B14811109C0F6011382128207
:1015A00086EE93E091838083158216C00A0D1B1D81
:1015B000852D942D0E941713C2015E2C4F2CE92E0D
:1015C000F82EBCCF08191909F30111830083652D8A
:1015D000742DC6010E941B0AC601C95BDF4F0FB6FE
:1015E000F894DEBF0FBECDBFDF91CF911F910F9159
:1015F000FF90EF90DF90CF90BF90AF909F908F9033
:101600007F906F905F904F9008959F92AF92BF929E
:10161000CF92DF92EF92FF920F931F93CF93DF93BE
:10162000CDB7DEB7C955D1090FB6F894DEBF0FBEEE
:10163000CDBF7C016B015A01922E9E01285A3F4F6B
:10164000CE01CB960E946C0A6A960EAD1FAD6A97CA
:101650000A0D1B1DF801808181110AC0BE01655C65
:101660007F4FCE0101960E941B0A4EE553E041C018
:1016700019A218A286EE93E09F8F8E8F1BA221964F
:101680008FAD2197811104C0C7010E945C0937C04A
:101690008250823060F4B601665D7F4F292DA8012B
:1016A000CE014E960E944B14811110C0EDCF292D12
:1016B000A801BE01655C7F4FCE014E960E944B147F
:1016C000882311F3CE01CB960E941713892D8670C3
:1016D00041F049A95AA96BA97CA9CE014E960E9456
:1016E0003412BE01625E7F4FCE0101960E941B0A3A
:1016F000A801BE016F5F7F4FC7010E942309C70188
:10170000C75ADF4F0FB6F894DEBF0FBECDBFDF91D3
:10171000CF911F910F91FF90EF90DF90CF90BF90EE
:10172000AF909F900895DF92EF92FF920F931F93D7
:10173000CF93DF93CDB7DEB7C756D1090FB6F89474
:10174000DEBF0FBECDBF8C017B01D42EBE016F5F0B
:101750007F4FF701818D928D0E94B5111816D4F537
:1017600089818823B9F1853E89F38E3279F38C859E
:1017700083FDECCF22961FAE1EAE229786EE93E03D
:101780009FAF8EAF24961FAE2497BE01655A7F4F40
:10179000CE0101960E940710F701618D728D2D2DEB
:1017A000AE01455A5F4FCE01CE960E944B1488235E
:1017B00089F0BE01625C7F4FCE0181960E941B0AB8
:1017C000AE01455A5F4FBE016F5D7F4FC8010E9459
:1017D000230903C0C8010E945C09C801C959DF4F31
:1017E0000FB6F894DEBF0FBECDBFDF91CF911F9132
:1017F0000F91FF90EF90DF900895CF93DF93EC016E
:101800000E947109882351F0E98DFA8D16821782A2
:10181000108611861286138614861586DF91CF9165
:101820000895109263041092640410926704109259
:10183000690482E090E0A0E0B0E080936A049093B5
:101840006B04A0936C04B0936D0410928104109209
:101850008B0410928A0486EE93E09093890480931F
:10186000880410928D0408959FB7F89420915C0429
:1018700080915A04213019F48DBB9FBF08958FBF0A
:10188000089520915C04222399F03FB7F8942091A9
:101890005C04213059F42DB320935A044DB32091A8
:1018A0005B04209524232DBB3FBF02C030935A0414
:1018B0008CBD9DBD08958EBD00000DB407FEFDCF0B
:1018C0008EB508958FEF0C945B0C61E0FC01848170
:1018D0000E94281D8091A704882339F01092A70444
:1018E00080915C0481110C94340C0895CF93DF93A4
:1018F000EC018091A704811109C081E08093A704C5
:101900008091A8049091A9040E94410C60E08C8110
:10191000DF91CF910C94281DCF93DF93EC018E8142
:10192000882389F08F8198859C012F5F3F4F3887EE
:101930002F838230924018F40E94620CF3CFCE01C4
:101940000E94650C1E82DF91CF910895673028F0C8
:1019500026E1FC01258380E008956230A1F050F477
:10196000662379F06130D9F480E58093A804609310
:10197000A9041AC0643059F040F0653081F482E562
:1019800008C080E506C080E50BC081E502C081E5A6
:1019900007C08093A80481E08093A904089582E59C
:1019A0008093A8041092A90481E008950F931F93D7
:1019B000CF93DF93EB010E94D51B8B010E94620C39
:1019C0008F3F49F00E94D51B601B710B6C177D0780
:1019D000A8F380E001C081E0DF91CF911F910F91CA
:1019E0000895CF92DF92FF920F931F93CF93DF93CF
:1019F00000D000D0CDB7DEB76C01F62E29833A8334
:101A00004B835C830E948C0CC6010E94760C6CE2B6
:101A100071E0C6010E94D60C8F2D80640E945B0C81
:101A200008E110E05C814B813A812981DA01C9012A
:101A3000002E04C0B695A795979587950A94D2F77E
:101A400029833A834B835C830E945B0C0850110905
:101A500029813A814B815C81083F8FEF180731F76C
:101A6000FF2029F0E8E0FE1621F08FEF03C085E9A2
:101A700001C087E80E945B0C10E00E94620CF60136
:101A8000828787FF04C01F3F11F01F5FF6CF0F90C2
:101A90000F900F900F90DF91CF911F910F91FF90BA
:101AA000DF90CF900895BF92CF92DF92EF92FF9296
:101AB0000F931F93CF93DF93EC01B62E1B861986ED
:101AC0001E821D824C830E94D51B8B0161E08C819C
:101AD0000E94EF1C61E08C810E94281D0E94680812
:101AE00082E58093A80481E08093A9048091A804F2
:101AF0009091A9040E94410C2AE0F22E8FEF0E94DF
:101B00005B0CFA94D9F780915C0481110E94340C2B
:101B1000CE010E94760C20E030E0A90160E0CE0109
:101B20000E94F10CF82E8A8781E0F81649F00E9495
:101B3000D51B601B710B613D774068F381E04BC0A2
:101B40002AEA31E040E050E068E0CE010E94F10C6A
:101B500082FF02C0FB860DC094E0F92E0E94620C49
:101B60008A87FA94D9F78A3A11F082E034C082E089
:101B70008B878B85823031F4C12CD12CE12C80E411
:101B8000F82E03C0C12CD12C760120E030E0A90151
:101B900067E3CE010E94F10CA701960169E2CE0134
:101BA0000E94F10C8A87882349F00E94D51B601B94
:101BB000710B613D774048F388E00DC08B85823022
:101BC00031F520E030E0A9016AE3CE010E94F10C7A
:101BD000882381F086E08D83CE010E94650C80E031
:101BE000DF91CF911F910F91FF90EF90DF90CF90F9
:101BF000BF9008950E94620C807C803C11F483E0C9
:101C00008B870E94620C0E94620C0E94620CCE01C3
:101C10000E94650C6B2DCE01DF91CF911F910F912A
:101C2000FF90EF90DF90CF90BF900C94A60C0F9395
:101C30001F93CF93DF93EC010E94D51B8B010E9471
:101C4000620C8A878F3F49F40E94D51B601B710B81
:101C50006D327140A0F38FE003C08E3F39F08DE00C
:101C60008D83CE010E94650C80E001C081E0DF9190
:101C7000CF911F910F910895CF92DF92EF92FF9233
:101C80000F931F93CF93DF93EC01690101151105A9
:101C900009F462C0C801820F931F8130924008F09E
:101CA0005DC08E81882371F088819981AA81BB8172
:101CB000481759076A077B0729F48F819885C8164A
:101CC000D90610F5488359836A837B838B858330DB
:101CD00039F039E0440F551F661F771F3A95D1F749
:101CE0009A01AB0161E1CE010E94F10C882319F049
:101CF00083E08D8333C0CE010E94170E882371F1DB
:101D000018861F8281E08E838F8198858C159D05B2
:101D100040F40E94620C8F819885019698878F838A
:101D2000F3CF6701E00EF11ECE14DF0431F00E9404
:101D3000620CF60181936F01F7CF8F819885800F38
:101D4000911F98878F832985222319F0811592404E
:101D500018F0CE010E948C0C81E004C0CE010E94DC
:101D6000650C80E0DF91CF911F910F91FF90EF9074
:101D7000DF90CF900895EF92FF920F931F93790118
:101D800000E012E020E030E00E943C0E1F910F9135
:101D9000FF90EF900895CF92DF92EF92FF920F9312
:101DA0001F93CF93DF9300D0CDB7DEB78C01862F82
:101DB00049835A830E945B0C4981C42E5A81D52ED7
:101DC000E12CF12CF60181916F010E945B0CFFEF79
:101DD000EF1AFF0AE11482E0F806A1F78FEF0E94E4
:101DE0005B0C8FEF0E945B0C0E94620CF8018287F3
:101DF0008F71853039F081E18583C8010E94650CBF
:101E000080E001C081E00F900F90DF91CF911F9192
:101E10000F91FF90EF90DF90CF9008950F931F9355
:101E2000CF93DF93EC0189014115510561057105DF
:101E300011F482E132C08B85833039F089E0440FA0
:101E4000551F661F771F8A95D1F79A01AB0168E18C
:101E5000CE010E94F10C882311F084E01EC0A8017D
:101E60006EEFCE010E94CB0E8823C1F068E572E0D0
:101E7000CE010E94D60C811102C085E10EC020E087
:101E800030E0A9016DE0CE010E94F10C811104C087
:101E90000E94620C882339F084E18D83CE010E9478
:101EA000650C80E004C0CE010E94650C81E0DF91EA
:101EB000CF911F910F91089580E58093A80481E050
:101EC0008093A9040895CF93DF93EC019C012A5FCE
:101ED0003F4F41E050E060E070E08B8D9C8D0E94B0
:101EE0000C198823A1F04F89588D698D7A8D452B67
:101EF000462B472B71F44E815F81688579854F8B26
:101F0000588F698F7A8F8C8180688C8302C080E0C3
:101F100001C081E0DF91CF910895CF92DF92EF92DF
:101F2000FF921F93CF93DF93EC010E94630F811107
:101F300002C080E04BC0EB8DFC8DCE80DF80E8845A
:101F4000F98482E0C81AD108E108F108058404C0C8
:101F5000CC0CDD1CEE1CFF1C0A94D2F7468557857D
:101F600060897189C40ED51EE61EF71E148181E0BA
:101F7000C81AD108E108F108112361F0C701B601C0
:101F8000610F711D811D911D0E945617882389F2D2
:101F90001150F2CFEB8DFC8DC12C82E0D82EE12CBC
:101FA000F12C058404C0CC0CDD1CEE1CFF1C0A9433
:101FB000D2F74B895C896D897E894C0D5D1D6E1D44
:101FC0007F1D4B8B5C8B6D8B7E8B81E0DF91CF9186
:101FD0001F91FF90EF90DF90CF900895CF93DF9304
:101FE000EC01462F6E857F85888999890E941B1791
:101FF000882341F08A8920E2829FC00111248D54F8
:102000009B4F02C080E090E0DF91CF91089530E0D7
:1020100020E04EE2DC015C91503271F0383029F45E
:10202000FB01E20FF11D40832F5FFB01E20FF11D69
:10203000DC015C9150832F5F3F5F01963B3051F78D
:10204000FB01E20FF11D10820895282FFB018BE0A8
:1020500030E231938150E9F7A22FB92F20E037E029
:102060009D91992319F19E3219F0E8E4F2E008C03D
:102070003A3011F128E03AE0F3CF31964917E1F018
:1020800044914111FACF3217B8F04FED490F4E3558
:1020900098F441E0420FFB01E20FF11D2FE9290FF7
:1020A0002A3108F490529083242FDACF81E0FB018B
:1020B0009081903209F480E008950F931F93CF939D
:1020C000DF93EC018B018D81882311F080E040C00B
:1020D000FB0187898031B1F482E08D831F8A188EDD
:1020E000198E1A8E408D518D60E070E095E0440F9E
:1020F000551F661F771F9A95D1F74B8B5C8B6D8BA5
:102100007E8B15C0803211F783E08D83FB01428DF9
:10211000538D648D758D4F8B588F698F7A8F9E018B
:102120002D5E3F4FC8010E940018882379F21C8F52
:102130000B8F81E08C831E821F82188619861A8677
:102140001B861C861D861E861F86188A198A1A8A77
:10215000DF91CF911F910F9108952F923F924F924F
:102160005F926F927F928F929F92AF92BF92CF9227
:10217000DF92EF92FF920F931F93CF93DF93EC01C7
:102180006B015A018D81811103C08FEF9FEFDAC07F
:102190008C8180FFFACF4B895C896D897E898A8525
:1021A0009B85AC85BD852501612C712C8A019B0125
:1021B000081B190B2A0B3B0B0415150526053705C3
:1021C00018F45A01A81AB90A25011E0126E0220EA8
:1021D000311C4114510409F47BC04A855B856C8530
:1021E0007D854A0181E09822ED818A019B01F9E019
:1021F0003695279517950795FA95D1F78B8D9C8D78
:10220000E23051F4FC01628D738D848D958D600FE9
:10221000711F821F931F3EC0FC0174807A9470224C
:1022200081149104C9F4711017C0452B462B472B1C
:1022300049F48F89988DA98DBA8D8E839F83A88745
:10224000B9870AC04E815F816885798591010E94B6
:102250007C17882309F499CFEB8DFC8D6E817F81EB
:10226000888599856250710981099109058404C0A6
:10227000660F771F881F991F0A94D2F70685178566
:1022800020893189600F711F821F931F670D711D97
:10229000811D911D20E032E02819390932012415F1
:1022A000350508F439012C8126FD04C06114F2E0E3
:1022B0007F06A1F50091FF02109100032091010318
:1022C00030910203601771078207930719F426C043
:1022D000C50138C0760183019401AB01BC01809136
:1022E000B1049091B2040E943C0E882309F44DCFB2
:1022F000C60CD71C04C0E81BF90BCE0EDF1E8A8566
:102300009B85AC85BD85860D971DA11DB11D8A8756
:102310009B87AC87BD87461857085BCF40E00E947B
:102320001B17882309F431CFC4018D549B4FD6016C
:102330009C01260D371DFC01E217F307E1F24191E4
:102340004D93FACFDF91CF911F910F91FF90EF90B6
:10235000DF90CF90BF90AF909F908F907F906F90C5
:102360005F904F903F902F9008950F931F93CF93BE
:10237000DF93EC018B018D81823010F48FEF24C04C
:102380004A855B856C857D854F7155276627772744
:10239000452B462B472B91F740E250E0B801CE0188
:1023A0000E94AD10803269F4F8018081882359F0D1
:1023B000853E91F38E3281F3838583FDEDCF80E2FC
:1023C00003C087FDDBCF80E0DF91CF911F910F919C
:1023D0000895FF920F931F93CF93DF931F92CDB772
:1023E000DEB78C01FC018581823018F480E090E03A
:1023F00034C0F8014285538564857585A5E07695DE
:10240000679557954795AA95D1F7F42FFF70FF2E42
:1024100041E050E0BE016F5F7F4FC8010E94AD10E8
:10242000019719F4298130E002C02FEF3FEF2F3FD1
:102430003F4FE1F2F8014285538564857585415E21
:102440005F4F6F4F7F4F4287538764877587F0E2F6
:10245000FF9EC00111248D549B4F0F90DF91CF91AF
:102460001F910F91FF9008954F925F926F927F920C
:10247000AF92BF92CF92DF92EF92FF920F931F9392
:10248000CF93DF93EC016A017B012D81222309F4B4
:1024900057C08B899C89AD89BE8984179507A6078B
:1024A000B70708F44DC04EC08A859B85AC85BD85B5
:1024B000EB8DFC8DE585F0E03996AC01BD01415016
:1024C0005109610971090E2E04C0769567955795DB
:1024D00047950A94D2F79701860101501109210905
:1024E000310904C03695279517950795EA95D2F7D7
:1024F0000417150726073707B0F58F89988DA98D22
:10250000BA8D8E839F83A887B987280139015E0120
:1025100086E0A80EB11C411451046104710461F1FC
:102520004E815F816885798595018B8D9C8D0E9498
:102530007C1791E0491A5108610871088111EBCFAD
:1025400080E01FC02230C1F0C114D104E104F104C5
:1025500009F0AACF1E821F82188619861A861B864A
:102560001C861D860DC0892B8A2B8B2B31F2041BF8
:10257000150B260B370BC9CFCA86DB86EC86FD868A
:1025800081E0DF91CF911F910F91FF90EF90DF904D
:10259000CF90BF90AF907F906F905F904F900895D5
:1025A0000F931F93CF93DF93EC018D818823C9F1A3
:1025B0008C8187FF30C061E0CE010E94EE0F8C015C
:1025C000009779F18D81823048F44B895C896D895F
:1025D0007E89F801448F558F668F778F4F89588D8C
:1025E000698D7A8DF801538F428F758B648BE091E2
:1025F000AA04F091AB04309759F0B8016A5E7F4F9E
:10260000C80148960995F801808D918D938B828B36
:102610008C818F778C83DF91CF911F910F910C94D8
:10262000E01680E0DF91CF911F910F910895CF9335
:10263000DF93EC010E94D012882319F01D8281E003
:1026400001C080E0DF91CF9108954F925F926F9229
:102650007F92AF92BF92CF92DF92EF92FF920F9351
:102660001F93CF93DF9300D000D0CDB7DEB75C01CE
:102670006A017B01FC0185818130F1F4848181FF55
:102680001BC0F50183899489A589B68984179507AC
:10269000A607B70788F0892B8A2B8B2B09F479C002
:1026A000F5014284538464847584B701A601C50191
:1026B0000E943412811102C080E06CC0F501838D4C
:1026C000948DC114D104E104F10471F44789508D53
:1026D000618D728D0E94211A882371F3F501178A8A
:1026E000108E118E128E3AC0F50146815781608599
:1026F00071859E012F5F3F4F0E947C178823E1F276
:1027000049815A816B817C81F501838D948DFC0117
:102710002789203129F408EF1FEF20E030E004C0C2
:1027200008EF1FEF2FEF3FE04017510762077307D5
:10273000A8F40E94211A882309F4BECFF50146812E
:102740005781608571850FEF1FEF2FEF3FE0838D7D
:10275000948D0E946B18882309F4AECFF501C38ACB
:10276000D48AE58AF68A848180688483C5010E94C0
:10277000D012882309F4A0CFB701A6014C145D0440
:102780006E047F0410F4B301A201C5010E9434124B
:1027900001C081E00F900F900F900F90DF91CF91CB
:1027A0001F910F91FF90EF90DF90CF90BF90AF906F
:1027B0007F906F905F904F900895FF920F931F93BB
:1027C000CF93DF93EC01F42E80E2689FF001112497
:1027D000ED54FB4F8385817129F0842F827411F0B1
:1027E00080E053C06A8B8091FF0290910003A0911A
:1027F0000103B09102038E879F87A88BB98B448910
:10280000558960E070E0BA0155274427028D138D89
:1028100020E030E0402B512B622B732B4F8B588FD5
:10282000698F7A8F8385887151F4048D158D268D7B
:10283000378D0B8B1C8B2D8B3E8B81E00CC0803138
:1028400079F69E012D5E3F4F8B8D9C8D0E94001866
:10285000882331F284E08D838F2D8F708C831E82CC
:102860001F82188619861A861B861C861D86F6FE10
:102870000BC040E050E0BA01CE01DF91CF911F9133
:102880000F91FF900C94251381E0DF91CF911F9160
:102890000F91FF900895AF92BF92CF92DF92EF9287
:1028A000FF920F931F93CF93DF93CDB7DEB72B9794
:1028B0000FB6F894DEBF0FBECDBF7C016B01CA011D
:1028C000B22EF70125812111B9C0BE016F5F7F4F84
:1028D0000E942510882309F4B1C0F601838D948DE0
:1028E000F701948F838FF601168217821086118666
:1028F0001286138614861586A12CF601028513858F
:102900002485358583899489A589B689081719078F
:102910002A073B07E8F545E0369527951795079573
:102920004A95D1F70F70C6010E94E911009709F48A
:1029300085C0FC012081222311F0253EB9F4A110AD
:102940000EC0F701028B4091FF025091000360918D
:1029500001037091020346875787608B718BFC01DE
:102960008081AA24A3948111C8CF12C04BE050E00B
:10297000BC01CE0101960E940424892B09F0BDCF31
:102980008B2D8073803309F459C04B2D602F52C0BA
:102990008B2D8271823109F051C0AA2041F061E093
:1029A000C7010E94EE0F8C01009779F447C0F60131
:1029B0008581823009F442C0C6010E948D0F8823B0
:1029C000E9F1F701128A03EB14E080E2F8011192B9
:1029D0008A95E9F78BE0FE013196D80101900D92BE
:1029E0008A95E1F7E091AA04F091AB04309739F0B1
:1029F000B801625F7F4FC8014096099509C081E226
:102A000098E2F801918B808B80E098E09787868729
:102A1000F80180899189938B828B918F808F868535
:102A20009785978B868B0E94E016882339F04B2D73
:102A3000F7016289C7010E94DD1301C080E02B9677
:102A40000FB6F894DEBF0FBECDBFDF91CF911F91BF
:102A50000F91FF90EF90DF90CF90BF90AF900895CF
:102A60002F923F924F925F926F927F928F929F929E
:102A7000AF92BF92CF92DF92EF92FF920F931F938C
:102A8000CF93DF9300D000D01F92CDB7DEB78C017B
:102A90007B013A01DC0115968C9115978130C9F4C0
:102AA00014968C9181FF15C082FF1BC0F8014389E9
:102AB00054896589768982859385A485B58584172F
:102AC0009507A607B70769F0C8010E943412811163
:102AD00008C081E090E0F8019383828380E090E079
:102AE00046C1630180C0D8015B968D919C915C9733
:102AF000FC01F481F150B501A40129E076956795B8
:102B0000579547952A95D1F7F423FD8321E092222A
:102B1000FF2309F474C080E092E0881999095601F6
:102B20008C159D0508F45C01D8015B96ED91FC9134
:102B30005C9716962D903D904D905C901997B2E061
:102B40002B1A310841085108058404C0220C331C9B
:102B5000441C551C0A94D2F786859785A089B189B3
:102B6000280E391E4A1E5B1EED812E0E311C411CA3
:102B7000511CA114F2E0BF0609F088C08091FF0249
:102B800090910003A0910103B09102038215930577
:102B9000A405B50559F48FEF9FEFDC018093FF0288
:102BA00090930003A0930103B09302039701B20135
:102BB000A1018091B1049091B2040E940E0F88236C
:102BC00009F487CF9EEFF91ACA18DB08F80182854D
:102BD0009385A485B5858A0D9B1DA11DB11D828796
:102BE0009387A487B587D8011A968D909D90AD9054
:102BF000BC901D97C114D10409F075CF8AC081140F
:102C0000910409F088CF16964D915D916D917C915C
:102C10001997411551056105710559F457968D9124
:102C20009D910D90BC91A02D0097A105B10541F596
:102C300021C09E012F5F3F4F0E947C17882309F41B
:102C40004ECF89819A81AB81BC81F801238D348D6F
:102C5000F9012789203129F448EF5FEF60E070E047
:102C600004C048EF5FEF6FEF7FE084179507A6077A
:102C7000B70730F0C8010E94630F81114CCF29CFF4
:102C8000F80186839783A087B18745CF811491048B
:102C900029F5D8011A964D915D916D917C911D9702
:102CA00053968D919D910D90BC91A02D4817590779
:102CB0006A077B0798F00E94E016882309F409CF81
:102CC0002092FF02309200034092010350920203CF
:102CD0008091B00481608093B00408C041E0C201DB
:102CE000B1010E941B17882309F4F3CEC4018D544F
:102CF0009B4FD7019C012A0D3B1DFC01E217F307F6
:102D000019F04D914193FACFE81BF90BEE0EFF1E1F
:102D10005BCF53968D919D910D90BC91A02DF801A4
:102D2000248188159905AA05BB0538F4838A948AFD
:102D3000A58AB68A206824830CC08091AA04909149
:102D4000AB04892B31F06114710419F02068F8018B
:102D50002483D80114968C9183FD02C0C30107C05F
:102D6000C8010E94D012882309F4B3CEF7CF0F9088
:102D70000F900F900F900F90DF91CF911F910F91B7
:102D8000FF90EF90DF90CF90BF90AF909F908F908B
:102D90007F906F905F904F903F902F900895CF93CA
:102DA000DF931F92CDB7DEB7698341E050E0BE01EB
:102DB0006F5F7F4F0E9430150F90DF91CF91089584
:102DC0008091B004882399F14091FF025091000353
:102DD000609101037091020323EB34E08091B10410
:102DE0009091B2040E940E0F882319F14091AC0417
:102DF0005091AD046091AE047091AF04411551053E
:102E00006105710591F023EB34E08091B10490915C
:102E1000B2040E940E0F882361F01092AC0410924D
:102E2000AD041092AE041092AF041092B00481E091
:102E3000089580E00895CF92DF92EF92FF92CF93B2
:102E40006B017C01C42F8091FF0290910003A0913F
:102E50000103B09102038C159D05AE05BF05D1F0AD
:102E60000E94E016811102C080E01AC023EB34E01A
:102E7000B701A6018091B1049091B2040E94BB0EEB
:102E8000882391F3C092FF02D0920003E0920103E5
:102E9000F09202038091B0048C2B8093B00481E007
:102EA000CF91FF90EF90DF90CF900895CF92DF9277
:102EB000EF92FF926B017C010E94E0168823B1F033
:102EC000E3EBF4E0119286E0E33BF807D9F7C09218
:102ED000FF02D0920003E0920103F092020380917E
:102EE000B00481608093B00481E001C080E0FF9075
:102EF000EF90DF90CF9008958F929F92AF92BF9204
:102F0000CF92DF92EF92FF920F931F93CF93DF93B5
:102F10008C016A017B01E901FC0181859285A38511
:102F2000B4850196A11DB11D84179507A607B707A3
:102F300010F480E058C0F801438954896589768986
:102F40008789803129F4BB27AF2D9E2D8D2D09C097
:102F5000D701C60127E0B695A795979587952A953D
:102F6000D1F74C015D01840E951EA61EB71EC5014A
:102F7000B4018090FF0290900003A0900103B090F4
:102F80000203681579058A059B0589F4F80187898C
:102F9000803199F4DD24EE24FF24F601EE0FFF1FAB
:102FA000ED54FB4F80819181A0E0B0E017C040E07C
:102FB0000E941B178111EACFBCCFE894C7F8DD242B
:102FC000EE24FF24F601EE0FFF1FEE0FFF1FED545E
:102FD000FB4F80819181A281B381BF7088839983E7
:102FE000AA83BB8381E0DF91CF911F910F91FF9066
:102FF000EF90DF90CF90BF90AF909F908F9008950B
:103000004F925F926F927F92AF92BF92CF92DF9278
:10301000EF92FF920F931F93CF93DF9300D000D0D6
:10302000CDB7DEB78C0149835A836B837C8359010A
:10303000C12CD12C7601412C42E0542E612C712CF4
:1030400049815A816B817C819E012F5F3F4FC8016E
:103050000E947C17882359F1D301C201F80105842D
:1030600004C0880F991FAA1FBB1F0A94D2F7C80E6D
:10307000D91EEA1EFB1E49815A816B817C8187899A
:10308000803129F488EF9FEFA0E0B0E004C088EF22
:103090009FEFAFEFBFE0481759076A077B0780F241
:1030A000F501C082D182E282F38281E001C080E03A
:1030B0000F900F900F900F90DF91CF911F910F9174
:1030C000FF90EF90DF90CF90BF90AF907F906F9088
:1030D0005F904F9008954F925F926F927F928F9280
:1030E0009F92AF92BF92CF92DF92EF92FF920F9397
:1030F0001F93CF93DF93EC016A017B012801390113
:10310000423051056105710508F474C049855A853E
:103110006B857C854F5F5F4F6F4F7F4F4C155D0513
:103120006E057F0508F466C08B889C88AD88BE88D4
:103130008F89803129F477276F2D5E2D4D2D09C0A1
:10314000B701A601E7E07695679557954795EA950B
:10315000D1F7840E951EA61EB71E4091FF02509116
:103160000003609101037091020384169506A60680
:10317000B70671F48F89803199F4DD24EE24FF24A1
:10318000F601EE0FFF1FED54FB4F5182408218C035
:1031900040E0C501B4010E941B178111EBCF2AC08A
:1031A000E894C7F8DD24EE24FF24F601EE0FFF1F9C
:1031B000EE0FFF1FED54FB4F4082518262827382FB
:1031C0008091B00481608093B0048A89823080F05D
:1031D0008D819E81AF81B885880D991DAA1DBB1D6B
:1031E0008093AC049093AD04A093AE04B093AF046D
:1031F00081E001C080E0DF91CF911F910F91FF909E
:10320000EF90DF90CF90BF90AF909F908F907F9086
:103210006F905F904F9008952F923F924F925F92E0
:103220006F927F929F92AF92BF92CF92DF92EF9276
:10323000FF920F931F93CF93DF93CDB7DEB76097C5
:103240000FB6F894DEBF0FBECDBF5C014D875E8721
:103250006F87788B1901D9014D905D906D907C90AE
:10326000411451046104710431F0BFEF4B1A5B0A41
:103270006B0A7B0A10C0FC01408051806280738021
:10328000992493940D851E852F8538890130110569
:103290002105310509F0912CD50119962D913D910B
:1032A0004D915C911C972F5F3F4F4F4F5F4F298788
:1032B0003A874B875C87730162011D821E821F82E1
:1032C0001886F50181859285A385B4850D811E81BF
:1032D0002F813885081719072A073B0708F056C0C1
:1032E00029853A854B855C852C153D054E055F0586
:1032F00050F4A2E0CA2ED12CE12CF12CB2E04B2EDE
:10330000512C612C712C9E012F5F3F4FB701A601FC
:10331000C5010E947C178823C9F149815A816B81BC
:103320007C81D701C6010196A11DB11D452B462BFD
:10333000472B19F02C013D010FC0AC01BD01441910
:103340005509660977090D851E852F85388940172F
:1033500051076207730779F02D813E814F815885AF
:103360002F5F3F4F4F4F5F4F2D833E834F835887D3
:103370006C017D01A6CF0FEF1FEF2FEF3FE0B701EC
:10338000A601C5010E946B18811118C080E041C0E0
:10339000D701C6010197A109B1098D839E83AF832F
:1033A000B88797018601AC01BD01C5010E946B1869
:1033B000882361F3CD80DE80EF80F8844C145D04B7
:1033C0006E047F0428F3D1014D915D916D917C9144
:1033D000411551056105710599F4F1014082518251
:1033E000628273829920A1F0FFEF4F1A5F0A6F0A81
:1033F0007F0AD5014D925D926D927C92139708C021
:1034000093018201C5010E946B188111E6CFBECFE6
:1034100081E060960FB6F894DEBF0FBECDBFDF919E
:10342000CF911F910F91FF90EF90DF90CF90BF90C1
:10343000AF909F907F906F905F904F903F902F90B4
:103440000895AF92BF92CF92DF92EF92FF920F93C7
:103450001F93CF93DF9300D000D0CDB7DEB75C01D0
:103460006A017B0182E090E0A0E0B0E0F50180839A
:103470009183A283B3839E012F5F3F4FB701A601C3
:10348000C5010E947C17882311F100E010E098012B
:10349000B701A601C5010E946B188823C1F0C9803D
:1034A000DA80EB80FC80F5018789803129F488EF90
:1034B0009FEFA0E0B0E004C088EF9FEFAFEFBFE068
:1034C000C816D906EA06FB06B0F281E001C080E02A
:1034D0000F900F900F900F90DF91CF911F910F9150
:1034E000FF90EF90DF90CF90BF90AF9008958F92B4
:1034F0009F92AF92BF92CF92DF92EF92FF920F9383
:103500001F93CF93DF93EC01142F7093B204609359
:10351000B104442341F1453010F080E0EFC040E0B9
:1035200060E070E0CB010E941B178823B1F320E11B
:10353000129FF0011124EF59F94F80818F7769F7BD
:1035400084859585A685B78584369105A105B10545
:1035500020F3C084D184E284F384C114D104E10453
:10356000F10421F4DACFC12CD12C760140E0C7015F
:10357000B6010E941B17882381F28091BE049091AE
:10358000BF048115924049F63091C304332329F2D8
:103590008091C1049091C204892B09F4BECF20917F
:1035A000C004222309F4B9CF3A8B2C831D8630E066
:1035B00041E050E06D85062FCA01062E02C0880F3B
:1035C000991F0A94E2F72817390731F081E0860F36
:1035D0008D87683078F3A1CF2091C9043091CA0457
:1035E0002115310519F040E050E008C02091D704C2
:1035F0003091D8044091D9045091DA042D833E8350
:103600004F8358878091C1049091C20446015701AD
:10361000880E991EA11CB11C8B8A9C8AAD8ABE8A19
:10362000E091C404F091C504F98FE88FA091C30420
:10363000B0E00E94BD22680D791D8A1D9B1D6A8F16
:103640007B8F8C8F9D8F15E0EE0FFF1F1A95E1F792
:10365000E150FE4FEF2FFF27E695DC01CB018E0FE7
:103660009F1FA11DB11D8E879F87A88BB98B80904E
:10367000C6049090C7048114910419F0A12CB12CB8
:1036800008C08090D3049090D404A090D504B0904A
:10369000D604A7019601281B390B4A0B5B0BDA01F4
:1036A000C901880D991DAA1DBB1D04C0B695A7951B
:1036B000979587950A95D2F789879A87AB87BC87B4
:1036C000853F3FE09307A105B10510F48CE014C0DD
:1036D000853F9F4FA105B10510F480E10DC0809199
:1036E000DF049091E004A091E104B091E2048A8F9C
:1036F0009B8FAC8FBD8F80E28F8B81E0DF91CF916C
:103700001F910F91FF90EF90DF90CF90BF90AF90FF
:103710009F908F9008951F920F920FB60F921124D1
:103720002F933F938F939F93AF93BF938091B40652
:103730009091B506A091B606B091B7063091B30648
:1037400026E0230F2D3720F40296A11DB11D05C0E0
:1037500029E8230F0396A11DB11D2093B306809382
:10376000B4069093B506A093B606B093B7068091C1
:10377000B8069091B906A091BA06B091BB06019621
:10378000A11DB11D8093B8069093B906A093BA0607
:10379000B093BB06BF91AF919F918F913F912F91B5
:1037A0000F900FBE0F901F9018952FB7F89460914F
:1037B000B4067091B5068091B6069091B7062FBFFA
:1037C00008953FB7F8948091B8069091B906A091FA
:1037D000BA06B091BB0626B5A89B05C02F3F19F0CD
:1037E0000196A11DB11D3FBF6627782F892F9A2F03
:1037F000620F711D811D911D43E0660F771F881FA9
:10380000991F4A95D1F70895CF92DF92EF92FF92D8
:10381000CF93DF936B017C010E94E11BEB01C1148C
:10382000D104E104F10489F00E946F220E94E11B9F
:103830006C1B7D0B683E734090F381E0C81AD10881
:10384000E108F108C851DC4FEACFDF91CF91FF903A
:10385000EF90DF90CF900895789484B5826084BD16
:1038600084B5816084BD85B5826085BD85B5816084
:1038700085BDEEE6F0E0808181608083E1E8F0E0E4
:103880001082808182608083808181608083E0E813
:10389000F0E0808181608083E1EBF0E080818460F2
:1038A0008083E0EBF0E0808181608083EAE7F0E0F4
:1038B00080818460808380818260808380818E7F2C
:1038C00080838081806880831092C10008951F9357
:1038D000CF93DF93182FEB0161E00E94EF1C20973C
:1038E00011F460E004C0CF3FD10539F461E0812FCD
:1038F000DF91CF911F910C94281DE12FF0E0E85A41
:10390000FD4FE491E330F9F048F4E130B9F0E230F2
:10391000A1F584B5806284BDC8BD34C0E730E9F04C
:10392000E83019F1E43049F580918000806280939D
:103930008000D0938B00C0938A0024C084B5806837
:1039400084BDC7BD1FC080918000806880938000C7
:10395000D0938900C093880015C08091B000806822
:103960008093B000C093B3000DC08091B00080621E
:103970008093B000C093B40005C0C038D1050CF0EE
:10398000B5CFAFCFDF91CF911F910895833081F0F4
:1039900028F4813099F08230A1F008958730A9F0A1
:1039A0008830B9F08430D1F4809180008F7D03C0DD
:1039B000809180008F7780938000089584B58F7701
:1039C00002C084B58F7D84BD08958091B0008F774B
:1039D00003C08091B0008F7D8093B0000895CF9395
:1039E000DF9390E0FC01E459FD4F2491FC01E05885
:1039F000FD4F8491882349F190E0880F991FFC01C5
:103A0000E855FD4FA591B49182569D4FFC01C5919B
:103A1000D4919FB7611108C0F8948C9120958223AE
:103A20008C93888182230AC0623051F4F8948C917F
:103A3000322F309583238C938881822B888304C016
:103A4000F8948C91822B8C939FBFDF91CF91089536
:103A50000F931F93CF93DF931F92CDB7DEB7282F1D
:103A600030E0F901E85AFD4F8491F901E459FD4F26
:103A70001491F901E058FD4F04910023C9F0882307
:103A800021F069830E94C61C6981E02FF0E0EE0FEF
:103A9000FF1FE256FD4FA591B4919FB7F8948C910A
:103AA000611103C01095812301C0812B8C939FBFAE
:103AB0000F90DF91CF911F910F910895CF93DF93D6
:103AC000282F30E0F901E85AFD4F8491F901E459BB
:103AD000FD4FD491F901E058FD4FC491CC2391F0F2
:103AE00081110E94C61CEC2FF0E0EE0FFF1FEC5678
:103AF000FD4FA591B4912C912D2381E090E021F40C
:103B000080E002C080E090E0DF91CF910895FC0159
:103B1000818D228D90E0805C9F4F821B91098F7375
:103B200099270895FC01918D828D981731F0828D2F
:103B3000E80FF11D858D90E008958FEF9FEF0895B8
:103B4000FC01918D828D981761F0828DDF01A80FA5
:103B5000B11D5D968C91928D9F5F9F73928F90E0C7
:103B600008958FEF9FEF08958EE19FE1892B49F033
:103B700080E090E0892B29F00E941E1F81110C9497
:103B800000000895FC01848DDF01A80FB11DA35A28
:103B9000BF4F2C91848D90E001968F739927848F6D
:103BA000A689B7892C93A089B1898C9180648C9364
:103BB000938D848D981306C00288F389E02D80814F
:103BC0008F7D80830895CF93DF93EC01888D8823C8
:103BD000C9F0EA89FB89808185FD05C0A889B9897A
:103BE0008C9186FD0FC00FB607FCF5CF808185FF55
:103BF000F2CFA889B9898C9185FFEDCFCE010E94C3
:103C0000C21DE7CFDF91CF910895CF92DF92FF924F
:103C10000F931F93CF93DF931F92CDB7DEB76C0145
:103C200081E0D60158968C9358975B969C915B9750
:103C30005C968C915C97981307C05096ED91FC911F
:103C40005197808185FD2EC0F601038D10E00F5F36
:103C50001F4F0F731127F02EF601848DF81211C03B
:103C60000FB607FCF9CFD6015096ED91FC91519714
:103C7000808185FFF1CFC60169830E94C21D6981E1
:103C8000EBCF838DE80FF11DE35AFF4F6083D60120
:103C90005B960C935B975296ED91FC9153978081C4
:103CA00080620CC0D6015696ED91FC9157976083C7
:103CB0005096ED91FC91519780818064808381E0E2
:103CC00090E00F90DF91CF911F910F91FF90DF90C7
:103CD000CF900895BF92CF92DF92EF92FF92CF9351
:103CE000DF93EC016A017B01B22E60E874E88EE19B
:103CF00090E0A70196010E947C22215031094109E0
:103D000051095695479537952795E889F98982E0B5
:103D10008083211580E1380798F0E889F9891082BD
:103D200060E472E48FE090E0A70196010E947C229B
:103D300021503109410951095695479537952795E5
:103D4000EC85FD853083EE85FF852083188EEC8918
:103D5000FD89B082EA89FB89808180618083EA895C
:103D6000FB89808188608083EA89FB898081806803
:103D70008083EA89FB8980818F7D8083DF91CF9169
:103D8000FF90EF90DF90CF90BF9008951F920F9219
:103D90000FB60F9211242F938F939F93EF93FF935E
:103DA000E091CC06F091CD068081E091D206F091B1
:103DB000D30682FD12C090818091D5068F5F8F73EC
:103DC0002091D606821751F0E091D506F0E0E45438
:103DD000F94F958F8093D50601C08081FF91EF91B7
:103DE0009F918F912F910F900FBE0F901F9018955C
:103DF0001F920F920FB60F9211242F933F934F9360
:103E00005F936F937F938F939F93AF93BF93EF9342
:103E1000FF938CEB96E00E94C21DFF91EF91BF9142
:103E2000AF919F918F917F916F915F914F913F9152
:103E30002F910F900FBE0F901F9018958CEB96E06E
:103E40000E94871D21E0892B09F420E0822F08952C
:103E50001092BF061092BE0688EE93E0A0E0B0E09C
:103E60008093C0069093C106A093C206B093C30688
:103E70008EEE93E09093BD068093BC0685EC90E0B7
:103E80009093C9068093C80684EC90E09093CB068B
:103E90008093CA0680EC90E09093CD068093CC0688
:103EA00081EC90E09093CF068093CE0682EC90E078
:103EB0009093D1068093D00686EC90E09093D30641
:103EC0008093D2061092D5061092D6061092D7068D
:103ED0001092D8060895CF92DF92EF92FF920F933F
:103EE0001F93CF93DF937C016A01EB0100E010E0A8
:103EF0000C151D0571F06991D701ED91FC910190B0
:103F0000F081E02DC7010995892B19F00F5F1F4F34
:103F1000EFCFC801DF91CF911F910F91FF90EF90EC
:103F2000DF90CF9008956115710581F0DB010D9050
:103F30000020E9F7AD0141505109461B570BDC0148
:103F4000ED91FC910280F381E02D099480E090E0F6
:103F500008956AEF73E00C94931F0F931F93CF9310
:103F6000DF93EC010E94931F8C01CE010E94A91FD8
:103F7000800F911FDF91CF911F910F9108953F9274
:103F80004F925F926F927F928F929F92AF92BF9269
:103F9000CF92DF92EF92FF920F931F93CF93DF9315
:103FA00000D000D0CDB7DEB78B0129013A01909146
:103FB0000303981721F09F3F09F0DAC104C0E2EB38
:103FC000F2E0349081C080930303E2EBF2E0E491ED
:103FD000EF3F09F4CDC1E13031F1E23009F44BC0DB
:103FE000E11171C014BC15BC94B5926094BD95B537
:103FF000916095BD282F30E0F901E058FD4FE49124
:10400000F0E0EE0FFF1FE256FD4F459154915093A3
:10401000690740936807F901E459FD4F2491209303
:104020006707312C53C0109280001092810090914C
:1040300081009860909381009091810091609093AD
:104040008100282F30E0F901E058FD4FE491F0E0C5
:10405000EE0FFF1FE256FD4F4591549150936207BA
:1040600040936107F901E459FD4F249120936007C3
:10407000332433942BC01092B0001092B100909171
:10408000B00092609093B0009091B10091609093D5
:10409000B100282F30E0F901E058FD4FE491F0E045
:1040A000EE0FFF1FE256FD4F4591549150935B0771
:1040B00040935A07F901E459FD4F24912093590781
:1040C00052E0352E03C03E2E37FC52C161E00E9403
:1040D000EF1C4801A12CB12C832D8D7F09F0C7C0A6
:1040E00060E079E08DE390E0A50194010E949E22BA
:1040F00029833A834B835C8369017A0181E0C81A82
:10410000D108E108F1089FEFC916D104E104F104D8
:1041100009F008F49AC060E271EA87E090E0A50136
:1041200094010E949E2269017A01E1E0CE1AD10831
:10413000E108F108F2E03F1219C08FEFC816D10470
:10414000E104F10409F008F48AC068E478EE81E043
:1041500090E0A50194010E949E2269017A0191E0FC
:10416000C91AD108E108F10883E001C082E0EFEF4D
:10417000CE16D104E104F10409F008F467C064E24A
:1041800074EF80E090E0A50194010E949E226901F5
:104190007A01F1E0CF1AD108E108F1083320E1F00B
:1041A00082E038121BC09FEFC916D104E104F1046C
:1041B00009F008F4DBC062E17AE780E090E0A50155
:1041C00094010E949E2269017A01E1E0CE1AD10891
:1041D000E108F10885E003C083E001C084E0FFEF5F
:1041E000CF16D104E104F10489F180F169E07DE3A7
:1041F00080E090E0A50194010E949E2269017A016D
:1042000081E0C81AD108E108F108311002C084E049
:1042100001C086E09FEFC916D104E104F104B1F0BA
:10422000A8F0C980DA80EB80FC809AE0F594E794EE
:10423000D794C7949A95D1F7E1E0CE1AD108E10856
:10424000F108332031F087E00BC081E0332011F01A
:1042500007C085E095B5987F982B95BD38C082E062
:104260009091B100987F982B9093B10030C060E09E
:1042700079E08DE390E0A50194010E949E226901FE
:104280007A01F1E0CF1AD108E108F108C114D10494
:1042900081E0E806F10488F064E274EF80E090E0E9
:1042A000A50194010E949E2269017A0191E0C91A38
:1042B000D108E108F10893E001C091E0E1E03E128D
:1042C00006C080918100887F892B809381004114F2
:1042D00051046104710471F0D801AA0FBB1FA3013E
:1042E00092010E94BD2228EE33E040E050E00E949F
:1042F0007C2203C02FEF3FEFA901F1E03F16A1F0B0
:1043000082E0381619F1311033C0C7BC20936A0718
:1043100030936B0740936C0750936D0780916E004C
:10432000826080936E0024C0D0928900C092880081
:1043300020936307309364074093650750936607A3
:1043400080916F00826080936F0012C0C092B300B2
:1043500020935C0730935D0740935E0750935F079F
:104360008091700082608093700002C084E078CFFA
:104370000F900F900F900F90DF91CF911F910F91A1
:10438000FF90EF90DF90CF90BF90AF909F908F9075
:104390007F906F905F904F903F900895813039F0FB
:1043A00018F0823051F0089510926E0008958091B7
:1043B0006F008D7F80936F000895809170008D7FD6
:1043C0008093700081E08093B0008091B100887F7D
:1043D00084608093B1001092B3000895CF93C82FEA
:1043E000809103038C1307C0E2EBF2E084919FEF0E
:1043F0009093030301C08FEF0E94CE2160E08C2FC9
:10440000CF910C94281D1F920F920FB60F9211247A
:104410002F933F934F935F936F937F938F939F93CC
:10442000AF93BF93EF93FF9380915C0790915D07EB
:10443000A0915E07B0915F07892B8A2B8B2B51F1DE
:1044400090915907E0915A07F0915B078081892785
:10445000808380915C0790915D07A0915E07B09189
:104460005F07181619061A061B06C4F480915C072C
:1044700090915D07A0915E07B0915F070197A10938
:10448000B10980935C0790935D07A0935E07B0939A
:104490005F0704C0809103030E94EE21FF91EF911A
:1044A000BF91AF919F918F917F916F915F914F914C
:1044B0003F912F910F900FBE0F901F901895089568
:1044C0000E942C1C0E945F220E944A05C4EBDDE181
:1044D0000E9452082097E1F30E94B41DF9CF08957D
:1044E000991B79E004C0991F961708F0961B881F46
:1044F0007A95C9F780950895A1E21A2EAA1BBB1BD5
:10450000FD010DC0AA1FBB1FEE1FFF1FA217B3079F
:10451000E407F50720F0A21BB30BE40BF50B661FB5
:10452000771F881F991F1A9469F760957095809579
:1045300090959B01AC01BD01CF010895052E97FB1D
:104540001EF400940E94B52257FD07D00E947C22E1
:1045500007FC03D04EF40C94B5225095409530954D
:1045600021953F4F4F4F5F4F0895909580957095DF
:1045700061957F4F8F4F9F4F08950E94CE22A59F38
:10458000900DB49F900DA49F800D911D112408954E
:10459000EE0FFF1F0590F491E02D0994A29FB0014A
:1045A000B39FC001A39F700D811D1124911DB29F67
:1045B000700D811D1124911D0895CF93DF938230DA
:1045C000910510F482E090E0E0917007F09171079E
:1045D00020E030E0A0E0B0E0309739F14081518137
:1045E00048175907B8F04817590771F48281938129
:1045F000109729F013969C938E9312972CC090934A
:1046000071078093700727C02115310531F04217DB
:10461000530718F0A901DB0101C0EF019A01BD01A8
:10462000DF010280F381E02DD7CF21153105F9F0AC
:10463000281B390B2430310580F48A819B81611558
:10464000710521F0FB019383828304C0909371076D
:1046500080937007FE01329644C0FE01E20FF31F03
:104660008193919322503109398328833AC0209154
:104670006E0730916F07232B41F420910201309196
:10468000030130936F0720936E0720910001309152
:1046900001012115310541F42DB73EB740910401C8
:1046A00050910501241B350BE0916E07F0916F07C7
:1046B000E217F307A0F42E1B3F0B2817390778F0F9
:1046C000AC014E5F5F4F2417350748F04E0F5F1F58
:1046D00050936F0740936E078193919302C0E0E07F
:1046E000F0E0CF01DF91CF910895CF93DF93009752
:1046F00009F487C0FC01329713821282C0917007BF
:10470000D0917107209781F420813181280F391FC2
:1047100080916E0790916F078217930779F5F09358
:104720006F07E0936E076DC0DE0120E030E0AE174A
:10473000BF0750F412964D915C9113979D0141155E
:10474000510509F1DA01F3CFB383A283408151818E
:10475000840F951F8A179B0771F48D919C91119777
:10476000840F951F02969183808312968D919C9160
:104770001397938382832115310529F4F0937107F0
:10478000E09370073EC0D9011396FC93EE93129705
:104790004D915D91A40FB51FEA17FB0779F4808155
:1047A0009181840F951F0296D90111969C938E9347
:1047B0008281938113969C938E931297E0E0F0E0B0
:1047C0008A819B81009719F0FE01EC01F9CFCE019F
:1047D000029628813981820F931F20916E073091B4
:1047E0006F072817390769F4309729F41092710779
:1047F0001092700702C013821282D0936F07C09389
:104800006E07DF91CF910895FB01DC0104C08D910B
:104810000190801921F441505040C8F7881B990B32
:104820000895FC018191861721F08823D9F79927F3
:1048300008953197CF010895FB01DC0141505040AC
:1048400048F001900D920020C9F701C01D9241501F
:0A4850005040E0F70895F894FFCF00
:10485A000000720780003C00000000000000000019
:10486A00000000000000000000000000000000003E
:10487A0000000000000000000000E0F0F8FCFCFE70
:10488A00FEFEFE1E0E0200000000000000000000F6
:10489A00000000000000000000000000000000000E
:1048AA0000000000000000000000000000000000FE
:1048BA0000000000000000000000000000000000EE
:1048CA000000000000000000000000000000030FCC
:1048DA001F3F7FFFFFFFFFFFFEFCF8F8F0F8FEFE28
:1048EA00FCF8E000000000000000000000000000EA
:1048FA0000000000000000000000000000000000AE
:10490A00000000000000000000000000000000009D
:10491A00000000000000000000F8FCFEFEFFFFF3AC
:10492A00E0E0C0C0C0E0E0F1FFFFFFFFFFFFFFFFD4
:10493A00FFFFFFFFFFFFFF3E000000000000000036
:10494A00000000000000000000000000000000005D
:10495A00000000000000000000000000000000004D
:10496A0000000000000000000000000000FFFFFF40
:10497A00FFFFFFFFFFFFFFFFFFFFFFFFFFFFFFFF3D
:10498A00FFFFFFFFFFFF7F3F1F070100000000003E
:10499A00000000000000000000000000000000000D
:1049AA0000000000000000000000000000000000FD
:1049BA0000000000000000000000000000000000ED
:1049CA0000FFFFFFFFFFFFFF7F3F1F0F0F0F0707CC
:1049DA0007070707070303010100000000000000A2
:1049EA0000000000000000000000000000000000BD
:1049FA0000000000000000000000000000000000AD
:104A0A00000000000000000000000000000000009C
:104A1A0000000000003F1F0F070301000000000014
:104A2A00000000000000000000000000000000007C
:104A3A00000000000000000000000000000000006C
:104A4A00000000000000000000000000000000FF5D
:104A5A00FFFFFFFF4B6974636F004E6F206D6F722B
:104A6A00652066696C657300636865636B696E6768
:104A7A002046696C653A00496E697469616C697AA5
:104A8A00696E6720534420636172642E2E2E00459E
:104A9A00727265757220534400696E697469616C3B
:104AAA00697A6174696F6E20646F6E652E002F00DB
:104ABA00436F6E66696775726174696F6E00436FE2
:104ACA006E737472617374650045636C61697261B7
:104ADA006765004368616E6765722070726F672E42
:104AEA0000412070726F706F73002D436F6E737484
:104AFA0072617374652D002D4C756D696572652D33
:104B0A0000646F6E6521004368617267656D656E4A
:104B1A00742064650050617469656E74657A2E2E1E
:104B2A002E00000000009E08B4089E09EE08F8084E
:104B3A00CF0800000000CF166B1F00000000051E02
:104B4A006B1F871DA01D921DE31D0D0A006E616E6D
:0A4B5A0000696E66006F76660000C9
:00000001FF
