:100000000C941C030C9444030C9444030C9444037C
:100010000C9444030C9444030C9444030C94B519BD
:100020000C9444030C9444030C9444030C94440334
:100030000C9444030C9444030C9444030C94440324
:100040000C9465120C9444030C9494150C94C615EE
:100050000C9444030C9444030C9444030C94440304
:100060000C9444030C9444030000010307030100B3
:1000700018284F81814F2818000004060706040045
:100080001814F28181F2141802020202020705021A
:100090003C2424E7814224180205070202020202DE
:1000A00018244281E724243C3CC39981FF81FF004E
:1000B000003E7F497F7F3E2A3C7EDFFFFFE7420014
:1000C0003C7E3B1F1F3F7E3C0042E7FFFFDF7E3C44
:1000D0003C7EDCF8F8FC7E3C00000000003E5B4FFC
:1000E0005B3E3E6B4F6B3E1C3E7C3E1C183C7E3C98
:1000F000181C577D571C1C5E7F5E1C00183C1800A6
:10010000FFE7C3E7FF0018241800FFE7DBE7FF3035
:10011000483A060E2629792926407F050507407FA3
:1001200005253F5A3CE73C5A7F3E1C1C08081C1C16
:100130003E7F14227F22145F5F005F5F06097F010C
:100140007F006689956A606060606094A2FFA294F7
:1001500008047E040810207E201008082A1C0808C5
:100160001C2A08081E101010100C1E0C1E0C303813
:100170003E3830060E3E0E06000000000000005F14
:1001800000000007000700147F147F14242A7F2A30
:1001900012231308646236495620500008070300F2
:1001A000001C2241000041221C002A1C7F1C2A083E
:1001B000083E0808008070300008080808080000A1
:1001C00060600020100804023E5149453E00427F15
:1001D000400072494949462141494D331814127F64
:1001E0001027454545393C4A494931412111090704
:1001F0003649494936464949291E00001400000085
:100200004034000000081422411414141414004156
:1002100022140802015909063E415D594E7C121113
:10022000127C7F494949363E414141227F4141414B
:100230003E7F494949417F090909013E41415173C6
:100240007F0808087F00417F41002040413F017F37
:10025000081422417F404040407F021C027F7F04FF
:1002600008107F3E4141413E7F090909063E415148
:10027000215E7F09192946264949493203017F0138
:10028000033F4040403F1F2040201F3F4038403F39
:10029000631408146303047804036159494D43004F
:1002A0007F4141410204081020004141417F040286
:1002B000010204404040404000030708002054541D
:1002C00078407F28444438384444442838444428FB
:1002D0007F385454541800087E090218A4A49C784E
:1002E0007F0804047800447D40002040403D007FAA
:1002F0001028440000417F40007C047804787C088A
:100300000404783844444438FC182424181824245D
:1003100018FC7C08040408485454542404043F4442
:10032000243C4040207C1C2040201C3C4030403C71
:1003300044281028444C9090907C4464544C4400D1
:100340000836410000007700000041360800020135
:100350000204023C2623263C1EA1A161123A404021
:10036000207A38545455592155557941225454789E
:1003700042215554784020545579400C1E52721237
:1003800039555555593954545459395554545800C0
:1003900000457C410002457D420001457C407D12C4
:1003A00011127DF0282528F07C5455450020545426
:1003B0007C547C0A097F4932494949323A444444D1
:1003C0003A324A4848303A4141217A3A424020780C
:1003D000009DA0A07D3D4242423D3D4040403D3C0D
:1003E00024FF2424487E4943662B2FFC2F2BFF0932
:1003F00029F620C0887E0903205454794100004426
:100400007D413048484A32384040227A007A0A0A10
:10041000727D0D19317D2629292F28262929292683
:1004200030484D4020380808080808080808382FC8
:1004300010C8ACBA2F102834FA00007B0000081452
:100440002A142222142A14085500550055AA55AA28
:1004500055AAFF55FF55FF000000FF00101010FFC8
:1004600000141414FF001010FF00FF1010F010F023
:10047000141414FC001414F700FF0000FF00FF1414
:1004800014F404FC141417101F10101F101F141460
:10049000141F00101010F0000000001F10101010AA
:1004A0001F10101010F010000000FF10101010109E
:1004B00010101010FF10000000FF140000FF00FFDC
:1004C00000001F10170000FC04F414141710171478
:1004D00014F404F40000FF00F7141414141414149A
:1004E000F700F7141414171410101F101F1414140D
:1004F000F4141010F010F000001F101F0000001F77
:1005000014000000FC140000F010F01010FF10FFA9
:10051000141414FF141010101F00000000F010FF3E
:10052000FFFFFFFFF0F0F0F0F0FFFFFF0000000022
:1005300000FFFF0F0F0F0F0F3844443844FC4A4AA6
:100540004A347E02020606027E027E02635549415B
:10055000633844443C04407E201E2006027E020292
:1005600099A5E7A5991C2A492A1C4C7201724C30A6
:100570004A4D4D303048784830BC625A463D3E497D
:100580004949007E0101017E2A2A2A2A2A44445F21
:10059000444440514A444040444A51400000FF0115
:1005A00003E080FF000008086B6B08361236243623
:1005B000060F090F06000018180000001010003088
:1005C00040FF0101001F01011E00191D1712003C10
:1005D0003C3C3C000000000000000008000201005C
:1005E00000030407000000000000000001020408EE
:1005F000102040800102040810200102040810208D
:1006000004040404040404040202020202020303B8
:10061000030303030000000023002600290000005C
:100620000000250028002B00000000002400270007
:100630002A000200510BF61511241FBECFEFD8E09F
:10064000DEBFCDBF14E0A0E0B1E0E6E0FCE302C015
:1006500005900D92AE3CB107D9F726E0AEECB4E0C0
:1006600001C01D92A332B207E1F716E0C8E3D6E05D
:1006700004C02297FE010E94B11BC433D107C9F701
:100680000E941F1B0C94011E0C940000CF93DF935B
:1006900000D0CDB7DEB720911F063091200621157E
:1006A000310511F423E236E0CE010196821B930B53
:1006B0000F900F90DF91CF91089584E00E942C1449
:1006C00021E0892B09F020E0822F089587E00E9425
:1006D0002C1421E0892B09F020E0822F089586E078
:1006E0000E942C1421E0892B09F020E0822F08952C
:1006F00088E00E942C1421E0892B09F020E0822F51
:10070000089582E00E942C1421E0892B09F020E05A
:10071000822F089583E00E942C1421E0892B09F098
:1007200020E0822F08950E945D0381111BC00E946A
:100730006603811117C00E946F03811113C00E94CC
:10074000780381110FC00E94810381110BC00E94A8
:100750008A03811107C06AE070E080E090E00E94A7
:10076000D212E1CF08950E945D03811114C00E944E
:100770006603811110C00E946F0381110CC00E949A
:100780007803811108C00E948103811104C00E9476
:100790008A03882339F06AE070E080E090E00E94EC
:1007A000D212E1CF0895682F81E10C94F613682FDF
:1007B00080E10C94F613682F81E10C94F613682FF6
:1007C00080E10C94F613CF93DF93CDB7DEB7629739
:1007D0000FB6F894DEBF0FBECDBF8EE395E00E944A
:1007E000511261E08EE395E00E94451061E070E0F7
:1007F0008EE395E00E944B108EE395E00E945E1020
:1008000097FD0196AC01559547954750510963E016
:1008100070E08EE395E00E943F1061E873E08EE3A4
:1008200095E00E94A4166BE873E0CE0107960E9443
:100830007F1ABE01695F7F4FCE0101960E94AC1AFC
:1008400062E8CE0101960E940E1B61E973E00E94EE
:10085000F41ABC01CE010D960E94AC1ACE0101968D
:100860000E94111ACE0107960E94111ABE01635F01
:100870007F4F8EE395E00E9492168EE395E00E94F2
:100880007E1181E00E94D30324EF31E040E050E08C
:1008900068EE73E08EE00E94711764EF71E080E013
:1008A00090E00E94D21280E00E94D30381E00E9477
:1008B000D70324EF31E040E050E06CED75E08EE0CE
:1008C0000E94711764EF71E080E090E00E94D21204
:1008D00080E00E94D70381E00E94DB0324EF31E037
:1008E00040E050E060ED77E08EE00E94711764EF29
:1008F00071E080E090E00E94D21280E00E94DB0371
:1009000081E00E94DF0324EF31E040E050E064EC3E
:1009100079E08EE00E94711768EE73E080E090E06D
:100920000E94D21280E00E94DF038EE00E94A01994
:1009300064EF71E080E090E00E94D21281E00E94BA
:10094000D30381E00E94D70381E00E94DB0381E0B2
:100950000E94DF0324EF31E040E050E060EA7FE0F6
:100960008EE00E94711768EE73E080E090E00E94D4
:10097000D2128EE00E94A01980E00E94D30380E092
:100980000E94D70380E00E94DB0380E00E94DF0327
:1009900068EE73E080E090E00E94D212CE010D96E6
:1009A0000E94111A62960FB6F894DEBF0FBECDBF3B
:1009B000DF91CF910895CF93C82F853608F0C4E614
:1009C00064E670E09B012C1B31094FEF429FC00190
:1009D000439F900D11240E943B1B85E00E9435131C
:1009E000C0938601CF910895CF93C82F279A2F984F
:1009F00064EF71E080E090E00E94D2122F9A61E0F3
:100A00008EE00E94BD1361E081E10E94BD1361E0B0
:100A100080E10E94BD1361E08FE00E94BD1360E0A1
:100A200084E00E94BD1361E084E00E94F61360E060
:100A300088E00E94BD1361E088E00E94F61360E048
:100A400087E00E94BD1361E087E00E94F61360E03A
:100A500086E00E94BD1361E086E00E94F61360E02C
:100A600082E00E94BD1361E082E00E94F61360E024
:100A700083E00E94BD1361E083E00E94F61326E04C
:100A800040E855E260E070E08DE695E00E943815A0
:100A9000809186010E94DB0444E068E28EE395E0E9
:100AA0000E94C41161E08EE395E00E9457106091AE
:100AB00087018EE395E00E9467118EE395E00E9426
:100AC0005112CC2319F0CF910C94E303CF910895E8
:100AD0000E9446034AE050E0BC018DE695E00E948A
:100AE000591781E00E94F404E0913A05F0E0EE0F1E
:100AF000FF1FE05EFE4F0190F081E02DF093CF04E8
:100B0000E093CE04828180933B0508958F929F925B
:100B1000AF92BF92CF92DF92EF92FF920F931F930B
:100B2000CF93DF93909137059A3018F499E020E045
:100B300002C094E024E0C82FD0E0A22EB12C892E70
:100B4000912C8091370590E0C817D90724F5FE0154
:100B5000ED52FB4F8081F501E80FF11DEE0FFF1FF5
:100B6000E05FFE4F20813181C89DB001C99D700DAD
:100B7000D89D700D1124CC24C394D12C58E0E52EBF
:100B8000F12C08E010E046E250E08EE395E00E9490
:100B9000360D2196D6CFDF91CF911F910F91FF9007
:100BA000EF90DF90CF90BF90AF909F908F9008957F
:100BB0002F923F924F925F926F927F928F929F926D
:100BC000AF92BF92CF92DF92EF92FF920F931F935B
:100BD000CF93DF93CDB7DEB760970FB6F894DEBF43
:100BE0000FBECDBFE091CE04F091CF0440802181B3
:100BF0002D8380913B05642D0E942F1B782E692E3A
:100C000083810E942F1B8C839B830AEF409E102DB3
:100C10001124165D8EE395E00E9451123D81309FB4
:100C2000802D11248E5EA82FB0E0BF83AE836D01AE
:100C3000BCE0CB0ED11C1A82512CE12FF0E0F987D9
:100C4000E8873C96FE87ED878D81581609F4DAC057
:100C500046019CE0891A9108D6011797BB87AA879D
:100C6000ED85FE85F88BEF87212C312CFA81FC5F16
:100C7000FC872982241408F0BDC0AC84A20CB12CDE
:100C8000E091CE04F091CF04EA0DFB1D808180FF3E
:100C900014C0E0913E05F0913F050680F781E02DFC
:100CA000EE24E394F12C86016F8578896C507109EC
:100CB0009B01A4018EE395E00995E091CE04F091AB
:100CC000CF04EA0DFB1D808181FF25C0E0913E0528
:100CD000F0913F050680F781E02DEE24E394F12C9E
:100CE00086012F853889A401B9018EE395E0099525
:100CF000F981F63081F4E0913E05F0913F050680E0
:100D0000F781E02D6F857889615071099B01A401FD
:100D10008EE395E00995E091CE04F091CF04EA0DC1
:100D2000FB1D808182FF14C0E0913E05F0913F05DC
:100D30000680F781E02DEE24E394F12C84012F85C9
:100D40003889A401B9016C5071098EE395E00995C9
:100D5000E091CE04F091CF04EA0DFB1D808183FF6A
:100D600014C0E0913E05F0913F050680F781E02D2B
:100D7000EE24E394F12C86012F853889A601B90170
:100D80006C5071098EE395E009952981261102C006
:100D9000571439F139818B81381303C09C8159165E
:100DA00001F1E091CE04F091CF04EA0DFB1D8081AA
:100DB0008823B9F0E0913E05F0913F050484F58564
:100DC000E02DEE24E394F12C02E010E022E030E08C
:100DD0004A855B856F857889675071098EE395E058
:100DE0000995AFEF2A1A3A0AEF85F8893C96F88BF5
:100DF000EF873FCF53942CE0C20ED11C3A81340DC3
:100E00003A8322CF80913C05823091F038F48823D8
:100E100061F08130B1F488EC90E00FC0833059F07C
:100E2000843079F480EB90E008C080ED90E005C05C
:100E300080EC90E002C088EB90E09093D104809326
:100E4000D004AE80BF8022E0A20EB11C88849984B9
:100E500032E0830E911C2091D0043091D104A50181
:100E60008CE0789E400D511D1124B4019CE0699ED8
:100E7000600D711D1124CC24C394D12CB8E0EB2E4D
:100E8000F12C08E010E08EE395E00E94360DAB8176
:100E90006A1203C0BC817B16E1F0A501FC81ECE085
:100EA000FE9F400D511D1124B4013B812CE0329F67
:100EB000600D711D1124CC24C394D12CF8E0EF2EC9
:100EC000F12C08E010E028EA30E08EE395E00E9483
:100ED000360D8091D2040E9486058EE395E06096DF
:100EE0000FB6F894DEBF0FBECDBFDF91CF911F913B
:100EF0000F91FF90EF90DF90CF90BF90AF909F90B9
:100F00008F907F906F905F904F903F902F900C94B8
:100F10007E1122E330E040E050E068EE73E08EE0C6
:100F20000E94711762E370E080E090E00E94D212AC
:100F30008EE00E94A019E091CE04F091CF04909130
:100F40003B058381981303C085E080933D05809124
:100F50003C058430A9F428EC30E040E050E068EC37
:100F600070E08EE00E94711768EC70E080E090E025
:100F70000E94D2128EE00E94A01986E080933D0567
:100F80000C94D805E091CE04F091CF0420813091EB
:100F90003B05832F622F0E942F1B41E040933C05AD
:100FA0003C5FE30FF11D308132FD02C0815003C070
:100FB00034E030933C05829F900D112490933B05C3
:100FC0000C948907E091CE04F091CF0420813091F8
:100FD0003B05832F622F0E942F1B43E040933C056B
:100FE0003C5FE30FF11D308133FD02C08F5F03C012
:100FF00034E030933C05829F900D112490933B0583
:101000000C948907E091CE04F091CF0420813091B7
:101010003B05832F622F0E942F1B42E040933C052B
:101020003C5FE30FF11D308130FD02C0915003C0E1
:1010300034E030933C05829F900D112490933B0542
:101040000C948907E091CE04F091CF042081309177
:101050003B05832F622F0E942F1B10923C053C5FA3
:10106000E30FF11D308131FD02C09F5F03C034E00A
:1010700030933C05829F900D112490933B050C9476
:1010800089070E9446034AE050E0BC018DE695E0E6
:101090000E94591781E00E94D3031092D2049091CC
:1010A000D20480913705981719F168EE73E080E05B
:1010B00090E00E94D212E091D20481E08E0F8093E2
:1010C000D204F0E0ED52FB4F8081813059F038F0CE
:1010D000823059F0833019F70E940208E0CF0E9455
:1010E000C207DDCF0E94E207DACF0E942208D7CFE5
:1010F00080E00E94D303E091CE04F091CF04909160
:101100003B058381981759F064EF71E080E090E02F
:101110000E94D21284E080933C050C9489070895C4
:101120008EE080933B0510923C051092D2040C9403
:10113000D8058F929F92AF92BF92CF92DF92EF929B
:10114000FF920F931F93CF93DF93CDB7DEB72C970A
:101150000FB6F894DEBF0FBECDBF61E08EE395E021
:101160000E94451061E070E08EE395E00E944B1014
:1011700040E050E060E070E08EE395E00E943F10B8
:10118000C12CD12C8EE395E00E945112A60161E0A2
:1011900070E08EE395E00E943F1067E973E08EE314
:1011A00095E00E94A41661EA73E08EE395E00E9448
:1011B000A41665EA73E08EE395E00E94A4168EE320
:1011C00095E00E947E1162E370E080E090E00E9472
:1011D000D2128FEFC81AD80AEAE0CE16D10491F6DF
:1011E000A12CB12CC12CD12CE0913E05F0913F05F2
:1011F000848495848EE395E00E945E108C010A0D34
:101200001B1D8EE395E00E945A109C012A0D3B1D88
:10121000EE24E394F12CA601B6018EE395E0F401EF
:1012200009958EE395E00E947E1162E370E080E014
:1012300090E00E94D212FFEFCF1ADF0A82E0A81AD4
:10124000B108E3E0CE16D10479F660ED77E080E0F6
:1012500090E00E94D2120E94B3038EE395E00E94B8
:10126000511261EB73E08EE395E00E94A4168EE3C9
:1012700095E00E947E110E9493030E94B3038EE3C7
:1012800095E00E9451126BED73E0CE0107960E942B
:101290007F1ABE01695F7F4FCE0101960E94AC1A92
:1012A00065E8CE0101960E940E1B63E074E00E9487
:1012B000F41A62E80E940E1B67E074E00E94F41AC0
:1012C000BC018EE395E00E949216CE0101960E9429
:1012D000111ACE0107960E94111A8EE395E00E9422
:1012E0007E110E94930381E080933D052C960FB6FA
:1012F000F894DEBF0FBECDBFDF91CF911F910F914C
:10130000FF90EF90DF90CF90BF90AF909F908F9025
:1013100008958EE080933B0510923C058EE395E0A6
:101320000E9451128EE395E00E947E110E94D80522
:101330000E9490080E94410860E271EA87E090E014
:101340000C94D2121F93CF93DF938EE395E00E940B
:1013500051121091380580913905181BC12FD0E02A
:101360002091380530E06091390570E0C901861B95
:10137000970B04968830910510F088E090E0C8172C
:10138000D90768F5AE01421B530B460F571F63E0A8
:10139000440F551F6A95E1F760E070E08EE395E039
:1013A0000E943F1080913805181305C041E050E0BD
:1013B00060E070E004C040E050E061E070E08EE387
:1013C00095E00E945110CC0FDD1FCA5FDE4F68818F
:1013D00079818EE395E00E9485161F5FBFCF40E0C4
:1013E00050E061E070E08EE395E00E94511080E0F3
:1013F0000E9486058EE395E0DF91CF911F910C94BA
:101400007E110E94A2090E9493030E946603882312
:1014100089F020913805822F90E00196089750F4CA
:1014200080913905833018F48F5F809339052F5FE1
:10143000209338050E945D03882371F08091380560
:10144000882351F090913905992319F09150909388
:1014500039058150809338050E948103882361F00B
:10146000E091370581E08E0F80933705F0E0ED5273
:10147000FB4F8091380580830E948A03882319F0EE
:1014800081E080933D050C94B3030E94D8050E942F
:10149000B3030E9493030E948103882321F00E94DA
:1014A000B3030C9441080E948A03882329F00E9408
:1014B000B30382E080933D050895109237051092A2
:1014C000D204E0913A05EF5FE0933A05F0E0EE0FC9
:1014D000FF1FE05EFE4F0190F081E02DF093CF04FE
:1014E000E093CE04828180933B0581E00E94DB0380
:1014F0002CE231E040E050E068EE73E08EE00E94C4
:1015000071176CE271E080E090E00E94D2128EE0F0
:101510000E94A0192CEB32E040E050E068EB7BE049
:101520008EE00E9471176CEB72E080E090E00E9408
:10153000D21280E00E94DB0310923C0581E0809390
:101540003D050895109237051092D20481E00E9463
:10155000DF032CE231E040E050E064EF71E08EE028
:101560000E9471176CE271E080E090E00E94D2125C
:101570008EE00E94A0192CEB32E040E050E068ECD5
:1015800070E08EE00E9471176CEB72E080E090E0FA
:101590000E94D21280E00E94DF0310923C05E0918D
:1015A000CE04F091CF04828180933B0581E080934B
:1015B0003D0508950E94B3038EE395E00E94511209
:1015C00063E174E08EE395E00E94A41660E274E0AB
:1015D0008EE395E00E94A4166EE274E08EE395E03F
:1015E0000E94A4166CE374E08EE395E00E94A416BA
:1015F0008EE395E00E947E110E9493030E94B30344
:1016000082E080933D0508950E94B3038EE395E048
:101610000E94511268E474E08EE395E00E94A416E3
:1016200061E574E08EE395E00E94A4166AE574E03B
:101630008EE395E00E94A4166CE374E08EE395E0DF
:101640000E94A4168EE395E00E947E110E949303EF
:101650000E94B30381E080933D05089580913D058C
:101660008530B9F030F4813091F058F0823069F073
:101670000895873091F078F0883089F0833619F03A
:1016800008950C9499080C9489090C94010A0C94FF
:10169000450A0C945D0A0C94A20A0C94DA0A0C9484
:1016A000040B2FEF49E06AE08EE395E00C94CE1036
:1016B000CF93CFB7F89480916305811127C0EAE0FA
:1016C000F6E08491E6EFF5E09491E82FF0E0EE0F7C
:1016D000FF1FE85DF94FA591B4918C91892321F406
:1016E00061E08AE00E94F61361E08AE00E94BD1387
:1016F0008CB580618CBD8CB580648CBD61E08DE063
:101700000E94BD1361E08BE00E94BD1380916305D0
:101710008F5F80936305CFBFCF9108952F923F9243
:101720004F925F926F927F928F929F92AF92BF92F1
:10173000CF92DF92EF92FF920F931F93CF93DF939D
:1017400000D000D0CDB7DEB74C017C836B836A013B
:101750005901C8018701AC014C195D0957FF03C04D
:1017600051954195510995016B817C81261B370B61
:1017700037FF03C031952195310922242394312C60
:101780002417350714F0212C312C2114310459F081
:101790003A2D2B2D5C01832F922F3B812C81DC82F3
:1017A000CB82C32ED22EAB81BC81AA16BB065CF4C1
:1017B0003C2D2D2D6C01832F922F3B812C81BC82DF
:1017C000AB82A32EB22E2501EB81FC814E1A5F0A5B
:1017D0003C016C187D0877FE03C071946194710818
:1017E000720157FE03C0FFEFEF1AFF0AF594E7946A
:1017F000C816D9062CF421E030E03A83298324C0AE
:101800006FEF7FEF7A8369831FC0D401ED91FC9164
:101810000480F581E02D980121143104D9F04B8129
:101820005C81B601C4010995E618F708F7FE06C009
:10183000E981FA81CE0EDF1EE40CF51C2B813C8180
:101840002F5F3F4F3C832B836B817C81A616B706AD
:10185000E4F604C0A6016B817C81E4CF0F900F9069
:101860000F900F90DF91CF911F910F91FF90EF900C
:10187000DF90CF90BF90AF909F908F907F906F90B0
:101880005F904F903F902F9008956F927F928F922C
:101890009F92AF92BF92CF92DF92EF92FF920F93FF
:1018A0001F93CF93DF93EC015B016A01390148017B
:1018B000E881F9810284F385E02D87010995E881AB
:1018C000F981A601480D591D415051090284F38543
:1018D000E02D9301B501CE010995E881F9810084DD
:1018E000F185E02D9401A601B501CE010995E881AD
:1018F000F981B501660D771D615071090084F1858C
:10190000E02D9401A601CE010995DF91CF911F91A1
:101910000F91FF90EF90DF90CF90BF90AF909F908E
:101920008F907F906F900895EF92FF920F931F9387
:10193000DC01ED91FC91240F351F21503109068007
:10194000F781E02D780189019B0109951F910F9185
:10195000FF90EF900895EF92FF920F931F93DC0199
:10196000ED91FC91260F371F215031090680F78138
:10197000E02D78018A0109951F910F91FF90EF905A
:1019800008956F927F928F929F92AF92BF92CF9263
:10199000DF92EF92FF920F931F93CF93DF935C013F
:1019A0004A0169013801EB01C60ED71ECC15DD05D1
:1019B00074F4D501ED91FC910084F185E02D87014F
:1019C0009301A401BE01C50109952196EFCFDF91D6
:1019D000CF911F910F91FF90EF90DF90CF90BF902C
:1019E000AF909F908F907F906F900895EF92FF92AD
:1019F0000F931F93DC01ED91FC9111971A960D91B5
:101A00001C911B9718962D913C9119970684F78588
:101A1000E02D7B0140E050E060E070E009951F910F
:101A20000F91FF90EF9008950895FC0113821282A8
:101A300082E894E09183808375836483578346832F
:101A40007187608753874287158A158614861786A3
:101A5000168621E0248B8FEF9FEF938B828B918BE7
:101A6000808B268B178A118E108E08952F923F92AD
:101A70004F925F926F927F929F92AF92BF92CF925E
:101A8000DF92EF92FF920F931F93CF93DF93CDB727
:101A9000DEB72A970FB6F894DEBF0FBECDBF5C014C
:101AA0007C836B835E834D83190127013601C80156
:101AB000079697FD07969C0193E0359527959A9593
:101AC000E1F73A832983C12CD12CE12CF12CE414C9
:101AD000F5040CF044C01A8619868D819E818E0D06
:101AE0009F1D98878F83E985FA85E017F1077CF5BC
:101AF00089859A8587709927892B11F0990C0EC0DA
:101B0000E985FA85F7FD379683E0F595E7958A959F
:101B1000E1F7EC0DFD1DE20DF31D949097FE11C051
:101B2000D501ED91FC910480F581E02D93014F8169
:101B300058856B817C8189859A85680F791FC501DD
:101B40000995A985BA851196BA87A987CCCFFFEFE9
:101B5000EF1AFF0A29813A81C20ED31EB8CF2A9606
:101B60000FB6F894DEBF0FBECDBFDF91CF911F91AE
:101B70000F91FF90EF90DF90CF90BF90AF909F902C
:101B80007F906F905F904F903F902F9008952F928D
:101B90003F924F925F926F927F928F929F92AF92FD
:101BA000BF92CF92DF92EF92FF920F931F93CF934A
:101BB000DF93CDB7DEB76A970FB6F894DEBF0FBEDE
:101BC000CDBF1C0158874F831C870B87FA86E98697
:101BD000CC82DC0158964D915C9159974115510585
:101BE00009F0A6C018968D919C91199768177907EE
:101BF0000CF056C11A968D919C911B97EF81F88538
:101C0000E817F9070CF04CC1D12CCB013C81F6E070
:101C10003F9F800D911D1124181619060CF040C12C
:101C2000C60103E0880F991F0A95E1F74F81588597
:101C3000840F951F181619060CF032C157968C9117
:101C4000811103C0203B08F02F5F7E876D874B0119
:101C5000198218EDA12E10E0B12EA61AB70A55E090
:101C6000259FA00CB11C11248981853039F0ED85A8
:101C7000FE85EA0DFB1D94919A8301C01A826F8044
:101C800078842301A8E0AD83BA81B0FF12C0D101EE
:101C9000ED91FC91BC81B13031F40480F581E02DEF
:101CA0002B853C8518C00684F785E02DEB84FC84E9
:101CB0001DC0E985FA852B853C85E217F307E1F025
:101CC000D101ED91FC91BC81B13059F40480F581D2
:101CD000E02D29853A85A2016D857E85C101099592
:101CE0000BC00684F785E02DE984FA84860196010D
:101CF000A301B401C1010995EA81E695EA83FD815A
:101D0000F150FD836C0C7D1C2FEF421A520AF11129
:101D1000BBCF39813F5F39838C0C9D1C4D855E851F
:101D20004F5F5F4F5E874D87363009F09DCFB8C05B
:101D3000FA0134963491329785919491231BA7E050
:101D40002A9F800D911D1124FA0125913491398B20
:101D5000288BFC01459154915A8F498FFC01329692
:101D6000549159873196A491AF873196E491FC0143
:101D70003596249131968491BC81B23050F0622E18
:101D8000772467FC7094E82FFF27E7FDF095FE8726
:101D9000ED87FC81CF2ED12C6C9C40016D9C900C6A
:101DA0007C9C900C1124860E971EA12C1982DE8A31
:101DB000CD8AAB01420F511D27FD5A955E834D839D
:101DC000AF81B885A80FB11D87FDBA95B88FAF8BCD
:101DD00059818F85581708F063C0852F90E02D85B5
:101DE0003E85280F391F2C9DD0012D9DB00D3C9DA7
:101DF000B00D1124EF81F885EA0FFB1FFB83EA8306
:101E00006D807E802401FA2D2D81F21BFA8B4F8983
:101E1000588D480F591F5C8B4B8B9A89960D862DD8
:101E20002D81821B39858317B0F5977061F4898DF8
:101E30009A8D0196E889F989298D3A8DE20FF31F71
:101E4000B4909A8F898FB7FE1DC0D101ED91FC919E
:101E5000BC81B13059F40480F581E02D2B853C859F
:101E60004B895C89B301C10109950CC00684F785D3
:101E7000E02DEB84FC84860196014A815B81B201EE
:101E8000C1010995BB0CED89FE894E0E5F1EFFEF67
:101E90006F1A7F0AC2CFA30E49814F5F498398CF43
:101EA0006A960FB6F894DEBF0FBECDBFDF91CF911B
:101EB0001F910F91FF90EF90DF90CF90BF90AF9068
:101EC0009F908F907F906F905F904F903F902F905A
:101ED0000895AF92BF92CF92EF92FF920F931F930C
:101EE000CF93DF93EC01262F888D998D009709F011
:101EF00042C06A3069F42C898E859F8538E0239F23
:101F0000800D911D11249F878E871D861C86ABC076
:101F10006D3009F4A8C08E898823C1F03C898C8576
:101F20009D8546E0349F800D911D1124488559857B
:101F3000841795075CF01D861C868E859F85E8E0DA
:101F40003E9F800D911D11249F878E87EA88FB8814
:101F5000088919894E855F856C857D85CC88CE0181
:101F60000E94C70D2C898C859D85F6E02F9F800DE2
:101F7000911D112441C06A3079F41D861C864C895C
:101F8000FC01369684912E853F85489F200D311D9A
:101F900011243F872E8767C06D3009F464C0AC01FF
:101FA0004C5F5F4FFA013491631708F45CC03196BF
:101FB000E491E61708F457C0FA014491362F341B18
:101FC000FC013296A590B490F7E03F9FA00CB11CA5
:101FD0001124F5013296A4913196E491AA2311F0CF
:101FE000E1110DC0F5013496A4902C898C859D8556
:101FF000A29E800D911D11249D878C8734C0F50110
:102000003596E4913E89332309F13C89B0E0AE0F67
:10201000B11DE7FDBA953A9FA0013B9F500D1124D9
:102020006C857D85460F571F68857985461757074C
:102030006CF01D861C86FC01369684914E855F856A
:10204000389F400D511D11245F874E87EA88FB8819
:10205000088919894E855F856C857D85CC88CE0180
:102060000E94C70DBFCF81E090E0DF91CF911F911B
:102070000F91FF90EF90CF90BF90AF900895FC012B
:1020800075876487578746870895611101C061E0AD
:10209000FC01648B0895FC01738B628B718B608BE8
:1020A0000895FC01718B608B538B428B0895FC016A
:1020B000678B0895FC01808591850895FC018285D8
:1020C00093850895FC0177FD68C080859185681728
:1020D00079070CF062C057FD60C082859385481770
:1020E00059070CF05AC08589823059F08330B1F01D
:1020F0008130D1F48FE290E0861B970BBA01AC01DE
:1021000013C083E590E0FC01E61BF70BBF018FE2F3
:1021100090E0FC01E41BF50BAF0106C083E590E005
:10212000841B950BAB01BC0164357105B0F54033E0
:10213000510598F5CA01E3E095958795EA95E1F791
:1021400047705527232BA1F024E5289FF001299FF4
:10215000F00D1124E60FF71FE857FE4F81E090E0E5
:10216000042E01C0880F0A94EAF79081982B14C0BE
:1021700024E5289FF001299FF00D1124E60FF71F99
:10218000E857FE4F81E090E0042E01C0880F0A94CA
:10219000EAF780959081982390830895EF92FF92BB
:1021A0000F931F93CF93DF931F92CDB7DEB77C01C0
:1021B000062F142F40E350E064E570E029830E946D
:1021C000150D8AE994E0F701918380838FEF828F68
:1021D000838F048F2981258F168F0F90DF91CF91E8
:1021E0001F910F91FF90EF900895FC01828D8F3F1A
:1021F00021F481E0938D9F3F09F080E008950F93D3
:102200001F93CF93DF931F92CDB7DEB78C01698305
:102210000E94F5106981882339F06EBD00000DB46D
:1022200007FEFDCF8EB52DC088E090E030E8D801E4
:102230009196ED91FC919297408194962C91949770
:102240002095242320835F96ED91FC91909793969F
:102250002C91432F462321F04081422B408304C020
:102260004081209524232083D8019196ED91FC9103
:102270009297208194964C91242B20833695019738
:10228000B1F60F90DF91CF911F910F9108951F9399
:10229000CF93DF93EC01162F60E08C8D0E94F61334
:1022A0008E8D18161CF460E00E94F613612FCE018B
:1022B0000E94FF108E8D181634F461E0DF91CF91EB
:1022C0001F910C94F613DF91CF911F9108951F93E6
:1022D000CF93DF93EC01162F67FD1FE761E2CE017C
:1022E0000E944711612F6068CE010E94471160E291
:1022F000CE01DF91CF911F910C944711DF92EF92A5
:10230000FF920F931F93CF93DF93EC01F8E8EF2E2A
:10231000F1E0FF2ED12C6D2D6064CE010E9447119B
:1023200060E8CE010E94471161E08C8D0E94F61397
:102330008E8D18161CF460E00E94F61300E010E089
:10234000F701E00FF11F6081CE010E94FF100F5FC7
:102350001F4F04351105A1F78E8D18161CF461E08E
:102360000E94F613D39484E5E80EF11C86E0D8129F
:10237000D2CF60E4CE01DF91CF911F910F91FF90FA
:10238000EF90DF900C9447110F931F93CF93DF933F
:10239000EC01162F042F0E94F510882379F00E947B
:1023A000580B8CB58C7F8CBD8DB58E7F8DBD8CB55B
:1023B000837F8CBD8CB58F7D8CBD34C061E08A8DF0
:1023C0000E94BD1361E08B8D0E94BD138B8D9927F8
:1023D00087FD9095FC01E050FA4FE491F0E0EE0F9C
:1023E000FF1FE25EF94F259134913AA329A3FC0126
:1023F000E451FA4F84918CA38A8D992787FD90959B
:10240000FC01E050FA4FE491F0E0EE0FFF1FE25EB6
:10241000F94F2591349138A32F8FFC01E451FA4FE5
:1024200084918BA361E08C8D0E94BD138D8D181655
:102430001CF461E00E94BD138E8D18161CF461E03F
:102440000E94BD138D8D18166CF460E00E94F61387
:1024500064EF71E080E090E00E94D21261E08D8D27
:102460000E94F61361E2CE010E944711602F606165
:10247000CE010E94471117FD1FE7612F6068CE0152
:102480000E94471160E2CE010E9447116CE0CE012C
:102490000E944711CE01DF91CF911F910F910C94B3
:1024A0007E1128EF31E0E8E8F1E0DF01A9011D929B
:1024B00041505040E1F7DC011D961C921E921C9782
:1024C0001F961C921E921E9708951F920F920FB690
:1024D0000F9211242F933F938F939F93AF93BF93AA
:1024E0008091650590916605A0916705B09168059A
:1024F0003091640526E0230F2D3720F40296A11DAC
:10250000B11D05C029E8230F0396A11DB11D20931D
:1025100064058093650590936605A0936705B09365
:1025200068058091690590916A05A0916B05B0914D
:102530006C050196A11DB11D8093690590936A05F4
:10254000A0936B05B0936C05BF91AF919F918F9154
:102550003F912F910F900FBE0F901F9018953FB78E
:10256000F8948091690590916A05A0916B05B091EE
:102570006C0526B5A89B05C02F3F19F00196A11D3B
:10258000B11D3FBF6627782F892F9A2F620F711DCB
:10259000811D911D43E0660F771F881F991F4A9583
:1025A000D1F70895CF92DF92EF92FF92CF93DF930E
:1025B0006B017C010E94AF12EB01C114D104E10454
:1025C000F10489F00E942E1B0E94AF126C1B7D0B40
:1025D000683E734090F381E0C81AD108E108F10821
:1025E000C851DC4FEACFDF91CF91FF90EF90DF90A1
:1025F000CF900895789484B5826084BD84B581605D
:1026000084BD85B5826085BD85B5816085BDEEE6FA
:10261000F0E0808181608083E1E8F0E010828081D9
:1026200082608083808181608083E0E8F0E0808147
:1026300081608083E1EBF0E0808184608083E0EB67
:10264000F0E0808181608083EAE7F0E0808184604F
:10265000808380818260808380818E7F808380817F
:10266000806880831092C10008951F93CF93DF93F9
:10267000182FEB0161E00E94BD13209711F460E078
:1026800004C0CF3FD10539F461E0812FDF91CF91B4
:102690001F910C94F613E12FF0E0E852FA4FE49109
:1026A000E330F9F048F4E130B9F0E230A1F584B557
:1026B000806284BDC8BD34C0E730E9F0E83019F16C
:1026C000E43049F580918000806280938000D0934F
:1026D0008B00C0938A0024C084B5806884BDC7BDC8
:1026E0001FC080918000806880938000D093890013
:1026F000C093880015C08091B00080688093B000BE
:10270000C093B3000DC08091B00080628093B00090
:10271000C093B40005C0C038D1050CF0B5CFAFCF21
:10272000DF91CF911F910895833081F028F481309B
:1027300099F08230A1F008958730A9F08830B9F07F
:102740008430D1F4809180008F7D03C0809180001F
:102750008F7780938000089584B58F7702C084B509
:102760008F7D84BD08958091B0008F7703C08091E4
:10277000B0008F7D8093B0000895CF93DF9390E0F9
:10278000FC01E451FA4F2491FC01E050FA4F84918E
:10279000882349F190E0880F991FFC01E85DF94F0B
:1027A000A591B491825E994FFC01C591D4919FB7D8
:1027B000611108C0F8948C91209582238C938881B4
:1027C00082230AC0623051F4F8948C91322F3095F4
:1027D00083238C938881822B888304C0F8948C9106
:1027E000822B8C939FBFDF91CF9108950F931F93FE
:1027F000CF93DF931F92CDB7DEB7282F30E0F901DA
:10280000E852FA4F8491F901E451FA4F1491F90119
:10281000E050FA4F04910023C9F0882321F0698326
:102820000E9494136981E02FF0E0EE0FFF1FE25E3B
:10283000F94FA591B4919FB7F8948C91611103C0A1
:102840001095812301C0812B8C939FBF0F90DF9146
:10285000CF911F910F910895CF93DF93282F30E0F0
:10286000F901E852FA4F8491F901E451FA4FD491F9
:10287000F901E050FA4FC491CC2391F081110E94EC
:102880009413EC2FF0E0EE0FFF1FEC5EF94FA591D3
:10289000B4912C912D2381E090E021F480E002C0DE
:1028A00080E090E0DF91CF910895FC01818D228D31
:1028B00090E0805C9F4F821B91098F739927089548
:1028C000FC01918D828D981731F0828DE80FF11DFA
:1028D000858D90E008958FEF9FEF0895FC01918D15
:1028E000828D981761F0828DDF01A80FB11D5D9672
:1028F0008C91928D9F5F9F73928F90E008958FEFE0
:102900009FEF08958CEE95E1892B49F080E090E0EF
:10291000892B29F00E94EC1581110C940000089578
:10292000FC01848DDF01A80FB11DA35ABF4F2C916C
:10293000848D90E001968F739927848FA689B7893B
:102940002C93A089B1898C9180648C93938D848D14
:10295000981306C00288F389E02D80818F7D8083E3
:102960000895CF93DF93EC01888D8823C9F0EA891D
:10297000FB89808185FD05C0A889B9898C9186FD78
:102980000FC00FB607FCF5CF808185FFF2CFA88975
:10299000B9898C9185FFEDCFCE010E949014E7CFCD
:1029A000DF91CF910895CF92DF92FF920F931F9303
:1029B000CF93DF931F92CDB7DEB76C0181E0D601D4
:1029C00058968C9358975B969C915B975C968C91EC
:1029D0005C97981307C05096ED91FC9151978081B8
:1029E00085FD2EC0F601038D10E00F5F1F4F0F73A2
:1029F0001127F02EF601848DF81211C00FB607FCD6
:102A0000F9CFD6015096ED91FC915197808185FFC9
:102A1000F1CFC60169830E9490146981EBCF838D49
:102A2000E80FF11DE35AFF4F6083D6015B960C93CC
:102A30005B975296ED91FC915397808180620CC018
:102A4000D6015696ED91FC91579760835096ED9183
:102A5000FC91519780818064808381E090E00F90A9
:102A6000DF91CF911F910F91FF90DF90CF9008954C
:102A7000BF92CF92DF92EF92FF92CF93DF93EC0160
:102A80006A017B01B22E60E874E88EE190E0A70154
:102A900096010E944F1B2150310941095109569559
:102AA000479537952795E889F98982E08083211534
:102AB00080E1380798F0E889F989108260E472E4CF
:102AC0008FE090E0A70196010E944F1B2150310931
:102AD000410951095695479537952795EC85FD8510
:102AE0003083EE85FF852083188EEC89FD89B082C6
:102AF000EA89FB89808180618083EA89FB89808102
:102B000088608083EA89FB89808180688083EA8984
:102B1000FB8980818F7D8083DF91CF91FF90EF9043
:102B2000DF90CF90BF9008951F920F920FB60F9233
:102B300011242F938F939F93EF93FF93E0917D0543
:102B4000F0917E058081E0918305F091840582FDFE
:102B500012C09081809186058F5F8F7320918705C9
:102B6000821751F0E0918605F0E0E359FA4F958F16
:102B70008093860501C08081FF91EF919F918F9195
:102B80002F910F900FBE0F901F9018951F920F92CC
:102B90000FB60F9211242F933F934F935F936F9330
:102BA0007F938F939F93AF93BF93EF93FF938DE6A4
:102BB00095E00E949014FF91EF91BF91AF919F918A
:102BC0008F917F916F915F914F913F912F910F90D6
:102BD0000FBE0F901F9018958DE695E00E9455143A
:102BE00021E0892B09F420E0822F089510927005CE
:102BF00010926F0588EE93E0A0E0B0E0809371053D
:102C000090937205A0937305B093740582EB94E0E2
:102C100090936E0580936D0585EC90E090937A0516
:102C20008093790584EC90E090937C0580937B05FC
:102C300080EC90E090937E0580937D0581EC90E0A0
:102C40009093800580937F0582EC90E090938205BD
:102C50008093810586EC90E09093840580938305B2
:102C600010928605109287051092880510928905AA
:102C70000895CF92DF92EF92FF920F931F93CF931D
:102C8000DF937C016A01EB0100E010E00C151D05EB
:102C900071F06991D701ED91FC910190F081E02DE7
:102CA000C7010995892B19F00F5F1F4FEFCFC8019E
:102CB000DF91CF911F910F91FF90EF90DF90CF9018
:102CC00008956115710581F0DB010D900020E9F791
:102CD000AD0141505109461B570BDC01ED91FC91B0
:102CE0000280F381E02D099480E090E00895DC01FA
:102CF000ED91FC91DB0114964D915C9115976D91CE
:102D00007C910280F381E02D09940C946116DC0122
:102D1000ED91FC910190F081E02D09946EEB74E04F
:102D20000C9461160F931F93CF93DF93EC010E94D5
:102D300077168C01CE010E948E16800F911FDF91B5
:102D4000CF911F910F9108950F931F93CF93DF930E
:102D5000EC010E9461168C01CE010E948E16800F3C
:102D6000911FDF91CF911F910F9108958F929F92A4
:102D7000AF92BF92CF92DF92EF92FF920F931F9389
:102D8000CF93DF93CDB7DEB7A1970FB6F894DEBF30
:102D90000FBECDBF7C01C42EE52FCB01D22E19A2D0
:102DA00021E02D1510F02AE0D22E8E010F5D1F4F6D
:102DB0008D2C912CA12CB12C6C2D7E2FA501940172
:102DC0000E944F1B8C2DD29E801911240150110995
:102DD0008A3014F4805D01C0895CF801808321157C
:102DE00031054105510521F0C22EE32FCA01E4CF80
:102DF000B801C7010E946116A1960FB6F894DEBF14
:102E00000FBECDBFDF91CF911F910F91FF90EF903B
:102E1000DF90CF90BF90AF909F908F900895CF920A
:102E2000DF92EF92FF920F931F93CF93DF93EC010A
:102E30006A017B012115310579F4E881F98101905E
:102E4000F081E02D642FDF91CF911F910F91FF90C2
:102E5000EF90DF90CF9009942A303105E9F477FFA5
:102E60001AC06DE20E9487168C0144275527BA01CB
:102E70004C195D096E097F092AE0CE010E94B61641
:102E8000800F911FDF91CF911F910F91FF90EF90D5
:102E9000DF90CF9008952AE0B701A601CE01DF911F
:102EA000CF911F910F91FF90EF90DF90CF900C94F6
:102EB000B6160F931F93CF93DF93EC019A01AB01EA
:102EC000662757FD6095762F0E940F178C01CE0163
:102ED0000E948E16800F911FDF91CF911F910F914D
:102EE00008953F924F925F926F927F928F929F923E
:102EF000AF92BF92CF92DF92EF92FF920F931F9308
:102F0000CF93DF9300D000D0CDB7DEB78B0129017E
:102F10003A0190918003981721F09F3F09F0DAC1A0
:102F200004C0E2E3F6E0349081C080938003E2E3E2
:102F3000F6E0E491EF3F09F4CDC1E13031F1E23048
:102F400009F44BC0E11171C014BC15BC94B592607A
:102F500094BD95B5916095BD282F30E0F901E05002
:102F6000FA4FE491F0E0EE0FFF1FE25EF94F45915A
:102F7000549150931A0640931906F901E451FA4FFF
:102F8000249120931806312C53C010928000109287
:102F900081009091810098609093810090918100D0
:102FA000916090938100282F30E0F901E050FA4FB2
:102FB000E491F0E0EE0FFF1FE25EF94F459154916E
:102FC0005093130640931206F901E451FA4F2491ED
:102FD00020931106332433942BC01092B00010922A
:102FE000B1009091B00092609093B0009091B100C8
:102FF00091609093B100282F30E0F901E050FA4F32
:10300000E491F0E0EE0FFF1FE25EF94F459154911D
:1030100050930C0640930B06F901E451FA4F2491AA
:1030200020930A0652E0352E03C03E2E37FC52C1D3
:1030300061E00E94BD134801A12CB12C832D8D7F2E
:1030400009F0C7C060E079E08DE390E0A50194014C
:103050000E94711B29833A834B835C8369017A0147
:1030600081E0C81AD108E108F1089FEFC916D10420
:10307000E104F10409F008F49AC060E271EA87E023
:1030800090E0A50194010E94711B69017A01E1E0C1
:10309000CE1AD108E108F108F2E03F1219C08FEF13
:1030A000C816D104E104F10409F008F48AC068E408
:1030B00078EE81E090E0A50194010E94711B690106
:1030C0007A0191E0C91AD108E108F10883E001C052
:1030D00082E0EFEFCE16D104E104F10409F008F428
:1030E00067C064E274EF80E090E0A50194010E9463
:1030F000711B69017A01F1E0CF1AD108E108F108EA
:103100003320E1F082E038121BC09FEFC916D104D2
:10311000E104F10409F008F4DBC062E17AE780E041
:1031200090E0A50194010E94711B69017A01E1E020
:10313000CE1AD108E108F10885E003C083E001C0A0
:1031400084E0FFEFCF16D104E104F10489F180F1AE
:1031500069E07DE380E090E0A50194010E94711B8D
:1031600069017A0181E0C81AD108E108F10831103B
:1031700002C084E001C086E09FEFC916D104E104DB
:10318000F104B1F0A8F0C980DA80EB80FC809AE00D
:10319000F594E794D794C7949A95D1F7E1E0CE1AC5
:1031A000D108E108F108332031F087E00BC081E05D
:1031B000332011F007C085E095B5987F982B95BD19
:1031C00038C082E09091B100987F982B9093B10025
:1031D00030C060E079E08DE390E0A50194010E94A9
:1031E000711B69017A01F1E0CF1AD108E108F108F9
:1031F000C114D10481E0E806F10488F064E274EFC0
:1032000080E090E0A50194010E94711B69017A01A0
:1032100091E0C91AD108E108F10893E001C091E0FA
:10322000E1E03E1206C080918100887F892B809367
:103230008100411451046104710471F0D801AA0F96
:10324000BB1FA30192010E94901B28EE33E040E0D7
:1032500050E00E944F1B03C02FEF3FEFA901F1E0A8
:103260003F16A1F082E0381619F1311033C0C7BC07
:1032700020931B0630931C0640931D0650931E0698
:1032800080916E00826080936E0024C0D09289008D
:10329000C0928800209314063093150640931606BA
:1032A0005093170680916F00826080936F0012C068
:1032B000C092B30020930D0630930E0640930F0684
:1032C000509310068091700082608093700002C05D
:1032D00084E078CF0F900F900F900F90DF91CF91F7
:1032E0001F910F91FF90EF90DF90CF90BF90AF9024
:1032F0009F908F907F906F905F904F903F90089538
:10330000813039F018F0823051F0089510926E003B
:10331000089580916F008D7F80936F000895809154
:1033200070008D7F8093700081E08093B000809169
:10333000B100887F84608093B1001092B30008953B
:10334000CF93C82F809180038C1307C0E2E3F6E08F
:1033500084919FEF9093800301C08FEF0E948019AA
:1033600060E08C2FCF910C94F6131F920F920FB642
:103370000F9211242F933F934F935F936F937F93FB
:103380008F939F93AF93BF93EF93FF9380910D061D
:1033900090910E06A0910F06B0911006892B8A2BF2
:1033A0008B2B51F190910A06E0910B06F0910C06DF
:1033B00080818927808380910D0690910E06A091CF
:1033C0000F06B0911006181619061A061B06C4F44B
:1033D00080910D0690910E06A0910F06B0911006F7
:1033E0000197A109B10980930D0690930E06A09351
:1033F0000F06B093100604C0809180030E94A019AC
:10340000FF91EF91BF91AF919F918F917F916F91BC
:103410005F914F913F912F910F900FBE0F901F9092
:103420001895FC01808191810C945C1CCF93DF93F3
:10343000EC0188819981009711F00E945C1C19822F
:1034400018821D821C821B821A82DF91CF910895FF
:103450000F931F93CF93DF93EC018B016F5F7F4F2F
:10346000888199810E94EB1C009731F099838883B1
:103470001B830A8381E001C080E0DF91CF911F911F
:103480000F910895CF93DF93EC0188819981892B67
:1034900029F08A819B818617970760F4CE010E94EC
:1034A000281A882341F08C819D81892B19F4E881A9
:1034B000F981108281E0DF91CF910895EF92FF9220
:1034C0000F931F93CF93DF93EC017B018A01BA0125
:1034D0000E94421A811104C0CE010E94161A07C030
:1034E0001D830C83B701888199810E94C31DCE0181
:1034F000DF91CF911F910F91FF90EF900895FC0104
:103500001182108213821282158214826115710554
:1035100059F0FB0101900020E9F7AF01415051093A
:10352000461B570B0C945E1A0895CF93DF93EC0162
:10353000FB018617970761F0608171816115710544
:1035400029F0448155810E945E1A02C00E94161A19
:10355000CE01DF91CF910895FC0111821082138278
:103560001282158214820C94951AEF92FF920F9397
:103570001F93CF93DF93EC017B010C811D816115BB
:10358000710511F480E016C04115510591F0040F4A
:10359000151FB8010E94421A8823A1F3288139819E
:1035A0008C819D81B701820F931F0E94C31D1D83D3
:1035B0000C8381E0DF91CF911F910F91FF90EF90ED
:1035C0000895CF93DF9300D0CDB7DEB769831A8219
:1035D00041E050E0BE016F5F7F4F0E94B51A0F902F
:1035E0000F90DF91CF910895CF93DF93EC01611598
:1035F000710569F0FB0101900020E9F7AF0141502E
:103600005109461B570B0E94B51A811103C0CE0108
:103610000E94161ACE01DF91CF910895CF93DF93C8
:10362000EC010E94E11A811103C0CE010E94161A1A
:10363000CE01DF91CF9108950E94B51D08950E949B
:10364000FA120E941E1B0E946805C2E8D4E10E9483
:103650002E0B2097E1F30E948214F9CF0895991B55
:1036600079E004C0991F961708F0961B881F7A9579
:10367000C9F78095089597FB072E16F4009407D09C
:1036800077FD09D00E949B1B07FC05D03EF4909566
:1036900081959F4F0895709561957F4F0895A1E2A0
:1036A0001A2EAA1BBB1BFD010DC0AA1FBB1FEE1FBC
:1036B000FF1FA217B307E407F50720F0A21BB30B07
:1036C000E40BF50B661F771F881F991F1A9469F783
:1036D00060957095809590959B01AC01BD01CF01DF
:1036E0000895052E97FB1EF400940E94881B57FD39
:1036F00007D00E944F1B07FC03D04EF40C94881B8C
:1037000050954095309521953F4F4F4F5F4F08950D
:1037100090958095709561957F4F8F4F9F4F08953D
:103720000E94B51BA59F900DB49F900DA49F800D86
:10373000911D11240895AA1BBB1B51E107C0AA1FAC
:10374000BB1FA617B70710F0A61BB70B881F991F42
:103750005A95A9F780959095BC01CD010895EE0F7B
:10376000FF1F0590F491E02D0994A29FB001B39F33
:10377000C001A39F700D811D1124911DB29F700D7A
:10378000811D1124911D0895CF93DF9382309105FF
:1037900010F482E090E0E0912106F091220620E012
:1037A00030E0A0E0B0E0309739F140815181481716
:1037B0005907B8F04817590771F48281938110971F
:1037C00029F013969C938E9312972CC09093220607
:1037D0008093210627C02115310531F04217530788
:1037E00018F0A901DB0101C0EF019A01BD01DF0161
:1037F0000280F381E02DD7CF21153105F9F0281B88
:10380000390B2430310580F48A819B816115710563
:1038100021F0FB019383828304C09093220680935E
:103820002106FE01329644C0FE01E20FF31F819390
:10383000919322503109398328833AC020911F0681
:1038400030912006232B41F4209102013091030195
:103850003093200620931F06209100013091010132
:103860002115310541F42DB73EB740910401509127
:103870000501241B350BE0911F06F0912006E2178D
:10388000F307A0F42E1B3F0B2817390778F0AC0183
:103890004E5F5F4F2417350748F04E0F5F1F509360
:1038A000200640931F068193919302C0E0E0F0E070
:1038B000CF01DF91CF910895CF93DF93009709F463
:1038C00087C0FC01329713821282C0912106D091E9
:1038D0002206209781F420813181280F391F8091A1
:1038E0001F06909120068217930779F5F093200622
:1038F000E0931F066DC0DE0120E030E0AE17BF0789
:1039000050F412964D915C9113979D01411551050C
:1039100009F1DA01F3CFB383A28340815181840F8F
:10392000951F8A179B0771F48D919C911197840FB5
:10393000951F02969183808312968D919C91139787
:10394000938382832115310529F4F0932206E093B5
:1039500021063EC0D9011396FC93EE9312974D9128
:103960005D91A40FB51FEA17FB0779F4808191815F
:10397000840F951F0296D90111969C938E93828194
:10398000938113969C938E931297E0E0F0E08A81E6
:103990009B81009719F0FE01EC01F9CFCE01029650
:1039A00028813981820F931F20911F0630912006B4
:1039B0002817390769F4309729F4109222061092DB
:1039C000210602C013821282D0932006C0931F06E4
:1039D000DF91CF910895A0E0B0E0E1EFFCE10C941D
:1039E000CE1DEC01CB01209719F40E94C41BB8C076
:1039F000FE01E60FF71F9E0122503109E217F3077F
:103A000008F4ACC0D9010D911C9111970617170746
:103A1000B8F00530110508F49FC0A80144505109C1
:103A20004617570708F498C002501109061B170BD8
:103A3000019311936D937C93CF010E945C1C8CC009
:103A40005B01A01AB10A4E01800E911EA0912106C1
:103A5000B0912206612C712C60E070E0109709F49F
:103A600049C0A815B905C9F5ED90FC9011976701FB
:103A700042E0C40ED11CCA14DB0478F147018A1855
:103A80009B08640142E0C40ED11C1296BC901297B0
:103A90001396AC91B5E0CB16D10440F0B282A3836B
:103AA00091828082D9018D939C9309C00E5F1F4F34
:103AB0000E0D1F1DF90111830083EB2DFA2F6115E7
:103AC000710531F0DB011396FC93EE93129744C01D
:103AD000F0932206E09321063FC06D917C911197EF
:103AE0006616770608F43B01BD0112960D90BC9155
:103AF000A02DB4CF60911F0670912006681579053E
:103B0000E9F468167906D0F4409100015091010162
:103B10004115510541F44DB75EB7609104017091B4
:103B20000501461B570BE417F507C0F4F093200678
:103B3000E0931F06F901918380830EC00E94C41B8D
:103B40007C01009759F0A801BE010E94BA1DCE0168
:103B50000E945C1CC70104C0CE0102C080E090E05E
:103B6000CDB7DEB7EEE00C94EA1D81E090E0F8946A
:103B70000C94011EFB01DC0102C001900D9241502A
:103B80005040D8F70895FB01DC0101900D92002010
:103B9000E1F708952F923F924F925F926F927F923A
:103BA0008F929F92AF92BF92CF92DF92EF92FF924D
:103BB0000F931F93CF93DF93CDB7DEB7CA1BDB0BF9
:103BC0000FB6F894DEBF0FBECDBF09942A8839889E
:103BD00048885F846E847D848C849B84AA84B984A5
:103BE000C884DF80EE80FD800C811B81AA81B981B1
:103BF000CE0FD11D0FB6F894DEBF0FBECDBFED01C5
:063C00000895F894FFCFC7
:103C060000002306800067046C047004770400003B
:103C1600A00090008000700098008800780068007E
:103C26007F0175016B015E0145012C0107030E0042
:103C360007050C0C060506090A0506090A030D0CFC
:103C46000A090C0C0A07030E14050C0C0C0C0C06C6
:103C5600010605060506030B090A090A090A0303F4
:103C66000602050C06030F03090C0A030203000DE6
:103C76000C060D0C0A030203020000070D0C0A03D2
:103C86000100020D0C0E643E000000000000000062
:103C9600000000000000000000000000000000001E
:103CA6000000000000000000000000000000C0E06E
:103CB600F0F8FCFCFEFFFCE0000000000000000045
:103CC60000000000000000000000000000000000EE
:103CD60000000000000000000000000000000000DE
:103CE60000000000000000000000000000F8F8F8E6
:103CF600F8F8F8F8F8F8F8F8F8F0F0E0E0C080C066
:103D0600FCFFFFFFFF7F3F7FFFFFFFFFFF0000007D
:103D1600000000000000000000000000000000009D
:103D2600000000000000000000000000000000008D
:103D3600000000000000000000000000000000007D
:103D460000000F1F3F7FFFFFFFFFFFFFFFFFE7C7DB
:103D5600C7878F9F9FFFFFFFC1C0E0FCFFFFFFFFEC
:103D6600FFFCFCFCFCFEFEFEFCFCF8F8F0E0C0C02C
:103D7600000000000000000000000000000000003D
:103D8600000000000000000000000000000000002D
:103D960000000000000000000080C0E0F1FBFFFF13
:103DA600FFFFFF7F1F0F0F87E7FFFFFF1F1F3FF973
:103DB600F8F8F8F8F8F8FDFFFFFFFFFFFFFFFFFF39
:103DC6007F3F0F0701000000000000000000000018
:103DD60000000000000000000000000000000000DD
:103DE6000000000000000000000000F0FEFFFFFFE2
:103DF600FFFFFFFFFFFFFFFE7E3F3F0F1FFFFFFF9F
:103E0600FCF0E0F1FFFFFFFFFFFCF0010101010103
:103E16000101010000000000000000000000000099
:103E2600000000000000000000000000000000008C
:103E36000000000000000000000000000000000379
:103E46000303030303030301010101000000000053
:103E56000000030F1F3F7F7FFFFFFFFF7F7F1F03D2
:103E6600000000000000000000000000000000004C
:103E7600000000000000000000000000000000003C
:103E8600FF204B6974636F2E6672002020205072EB
:103E96000073656E74650020205041432D524F42D9
:103EA60000206279002020506170616D616B65723F
:103EB600005041432D524F42206573742020756E89
:103EC60020726F626F742071756920732765737431
:103ED600207065726475202E2E2E00456E766F69F1
:103EE60065206C756920756E70726F6772616D6D95
:103EF6006520202020706F7572206C2761696465CB
:103F06007220002073270063686170706572202E2E
:103F16002E2E00413A616A6F757420636D646500E8
:103F2600423A766F6972206E6976656175007374C0
:103F36006172743A2073757070722E0073656C65C9
:103F460063743A6169646500413A6C616E636572D7
:103F560000423A7265746F75720073746172743AD6
:103F66007265746F757200686175740062617300C2
:103F760064726F6974650067617563686500000047
:103F86000000690F39161C1B8E0B940CAB0C450CEC
:103F9600C10CF60C140D00000000690F39166210F2
:103FA6008E0B940CAB0C450CC10CF60C140D0000DA
:103FB6000000D314391655146E146014B1140D0A8A
:0E3FC600006E616E00696E66006F7666000028
:00000001FF
