:100000000C9452010C946F010C946F010C946F01CD
:100010000C946F010C946F010C946F010C94800B85
:100020000C946F010C946F010C946F010C946F0190
:100030000C946F010C946F010C946F010C946F0180
:100040000C9440070C946F010C946F010C946F0199
:100050000C946F010C946F010C946F010C946F0160
:100060000C946F010C946F01000000000000005F11
:1000700000000007000700147F147F14242A7F2A41
:10008000122313086462364955225000050300000C
:10009000001C2241000041221C0014083E081408E4
:1000A000083E0808005030000008080808080060F2
:1000B00060000020100804023E5149453E00427F86
:1000C000400042615149462141454B311814127F8D
:1000D0001027454545393C4A494930017109050316
:1000E0003649494936064949291E0036360000007E
:1000F0005636000008142241001414141414004150
:100100002214080201510906324979413E7E11113B
:10011000117E7F494949363E414141227F4141227A
:100120001C7F494949417F090909013E4149497AF2
:100130007F0808087F00417F41002040413F017F48
:10014000081422417F404040407F020C027F7F0420
:1001500008107F3E4141413E7F090909063E415159
:10016000215E7F09192946464949493101017F012C
:10017000013F4040403F1F2040201F3F4038403F4C
:100180006314081463070870080761514945430068
:100190007F41410002040810200041417F00040219
:1001A0000102044040404040000102040020545439
:1001B00054787F48444438384444442038444448C0
:1001C0007F3854545418087E0901020C5252523E92
:1001D0007F0804047800447D40002040443D007FB7
:1001E0001028440000417F40007C041804787C08FB
:1001F00004047838444444387C1414140808141453
:10020000187C7C080404084854545420043F44409B
:10021000203C4040207C1C2040201C3C4030403C86
:1002200044281028440C5050503C4464544C440022
:100230000836410000007F00000041360800100829
:1002400008100878464146780000000800020100C6
:100250000003040700000000000000000102040881
:100260001020408001020408102001020408102020
:10027000040404040404040402020202020203034C
:1002800003030303000000002300260029000000F0
:100290000000250028002B0000000000240027009B
:1002A0002A00020011241FBECFEFD8E0DEBFCDBF71
:1002B00013E0A0E0B1E0E4E9F8E102C005900D929E
:1002C000A030B107D9F723E0A0E0B3E001C01D9250
:1002D000A932B207E1F70E94DD0B0C94480C0C9494
:1002E0000000CF93C62F682F8AE00E94DD0860E0EF
:1002F00089E00E94DD08CEBD00000DB407FEFDCFF1
:100300008EB561E089E0CF910C94DD0884359105CC
:1003100028F56033710510F59B012770332733E012
:10032000759567953A95E1F734E5369FF001379F6B
:10033000F00D1124E80FF91FEF5FFE4F81E090E010
:10034000022E01C0880F0A94EAF7442319F0908125
:10035000982B03C0809590819823908308953F92B5
:100360004F925F926F927F928F929F92AF92BF92C5
:10037000CF92DF92EF92FF920F931F93CF93DF9371
:100380007C01EB014A013901302E8901061B170B54
:100390006A01C81AD90A17FF07C0119501951109FA
:1003A000AA24AA94BA2C03C0AA24A394B12CD7FEE1
:1003B00007C0D194C194D10844244A94542C03C05A
:1003C00044244394512C000F111FCC0CDD1C432DF1
:1003D000BE01C7010E9486010C151D05CCF4C601A3
:1003E000959587953801681A790AE814F90449F156
:1003F00077FC04C0CA0DDB1D6C187D08E40CF51CED
:10040000600E711E432DBE01C7010E948601EDCF13
:10041000C801959587954601881A990AC615D7058A
:1004200081F097FC04C0E40CF51C801A910ACA0DF7
:10043000DB1D8C0C9D1C432DBE01C7010E94860153
:10044000EDCFDF91CF911F910F91FF90EF90DF9053
:10045000CF90BF90AF909F908F907F906F905F9064
:100460004F903F900895AF92BF92CF92DF92EF925C
:10047000FF920F931F93CF93DF935C017B01EA01FF
:1004800069019B010E94AF019601AE01B601C50151
:100490000E94AF019601A501B701C5010E94AF01FD
:1004A0009601AE01B701CE010E94AF01DF91CF915D
:1004B0001F910F91FF90EF90DF90CF90BF90AF9082
:1004C00008956F927F928F929F92AF92BF92CF9238
:1004D000DF92EF920F93CF93DF93EC014B016A0110
:1004E00039010023F9F04817590724F45C01A41AD4
:1004F000B50A12C05A01A81AB90A0EC00E2D9301EE
:10050000AE01B401CE010E94AF01CC16DD0644F469
:10051000219781E0A81AB1081A141B047CF305C0C6
:100520002196F7CF0E2D0E943302DF91CF910F91CC
:10053000EF90DF90CF90BF90AF909F908F907F9083
:100540006F9008954F925F926F927F928F929F92D9
:10055000AF92BF92CF92DF92EF92FF920F931F93D1
:10056000CF93DF93642E552E722E8B0195E0890276
:1005700050011124C12CD12CC501885390405C013D
:10058000442443944226F501EC0DFD1D8490C62DB4
:10059000D52DE12CF12C912CC4010E2C02C0959587
:1005A00087950A94E2F780FF02C0472D01C0442DD1
:1005B000BE01C8010E9486019FEFE91AF90A21963F
:1005C00088E0E816F10441F79FEFC91AD90A0F5FD6
:1005D0001F4F85E0C816D104B1F6DF91CF911F916E
:1005E0000F91FF90EF90DF90CF90BF90AF909F90D2
:1005F0008F907F906F905F904F9008956F927F9251
:100600008F929F92AF92BF92CF92DF92EF92FF9222
:100610000F931F93CF93DF93EB018A01622E6C013E
:10062000772473947226F60181916F01882319F162
:10063000262DA801BE010E94A2024E0185E0880E6F
:10064000911C78015801E7E0AE0EB11CAE14BF0456
:100650004CF0472DB701C4010E948601FFEFEF1A4D
:10066000FF0AF4CF2696C035D105ECF2085F1F4F84
:10067000C0E0D0E0D8CFDF91CF911F910F91FF90D4
:10068000EF90DF90CF90BF90AF909F908F907F9032
:100690006F900895E1E0F1E09FEF882311F09083DF
:1006A00001C01082319622E0E93FF207B1F70895C8
:1006B000CF93C62F682F606880E00E9471016C2F75
:1006C000606480E0CF910C947101CF93DF9360E080
:1006D00070E080E090E00E945803C1E0D1E06991B1
:1006E00081E00E94710182E0C93FD807C1F7DF9124
:1006F000CF910895CF93C82F61E280E00E947101ED
:100700006C2F606880E00E94710160E280E0CF9110
:100710000C94710161E089E00E94A40861E08AE024
:100720000E94A40861E08BE00E94A40861E08DE0D3
:100730000E94A40861E085E00E94A40860E070E0E7
:1007400085E00E941C080E940A078CB5837F8CBD3F
:100750008CB58F7D8CBD279A2F9864EF71E080E077
:1007600090E00E94B9072F9A61E280E00E94710137
:1007700060EB80E00E94710164E080E00E94710102
:1007800064E180E00E94710160E280E00E947101FA
:100790006CE080E00C94710180E00E944A0321E04B
:1007A00044E150E06CE170E08AEF92E00E94FE02CA
:1007B0000E94650361E081E10E94DD0860E080E164
:1007C0000E94DD0824EF31E040E050E068EE73E085
:1007D0008EE00E943C0964EF71E080E090E00E94AE
:1007E000B90760E081E10E94DD0861E080E10E94DC
:1007F000DD0824EF31E040E050E06CED75E08EE084
:100800000E943C0964EF71E080E090E00E94B9072B
:1008100061E081E10E94DD0860E080E10E94DD0886
:1008200024EF31E040E050E060ED77E08EE00E94A0
:100830003C0964EF71E080E090E00E94B90760E05D
:1008400081E10E94DD0860E080E10E94DD0824EF84
:1008500031E040E050E064EC79E08EE00E943C0939
:1008600068EE73E080E090E00E94B9078EE00E949D
:100870006B0B64EF71E080E090E00E94B90761E0EB
:1008800081E10E94DD0861E080E10E94DD0824EF43
:1008900031E040E050E060EA7FE08EE00E943C09F9
:1008A00068EE73E080E090E00E94B9078EE00E945D
:1008B0006B0B60E081E10E94DD0860E080E10E9456
:1008C000DD0860ED77E080E090E00C94B907CF930D
:1008D000C82F61E081E10E94A40861E080E10E94EC
:1008E000A40861E08FE00E94A40860E084E00E9418
:1008F000A40861E084E00E94DD0860E088E00E94D6
:10090000A40861E088E00E94DD0860E087E00E94C2
:10091000A40861E087E00E94DD0860E086E00E94B4
:10092000A40861E086E00E94DD0860E082E00E94A9
:10093000A40861E082E00E94DD0860E083E00E949C
:10094000A40861E083E00E94DD080E948A03809190
:1009500000010E947A0360E070E085E00E941C08BC
:1009600061E08EE00E94A408CC2319F0CF910C9492
:10097000CC03CF91089585E28093060388E18093AC
:1009800005038AE0809309030E948A0725E030E08E
:1009900040E050E00E94ED0B6F5F60930303089509
:1009A00090910903969588E1891B809308038093B1
:1009B000070310920103109200030C94BB0481E022
:1009C0000E9467040E948A038CE30E947A0388E0F5
:1009D0000E941309892B11F482E001C081E0809309
:1009E00002030C94D004EF920F9381E00E944A031B
:1009F00060910803772767FD7095809109039B013B
:100A0000280F311DE12C01E041E550E08FE490E03A
:100A10000E94610260910703772767FD70958091BE
:100A200009039B01280F311D43E050E085E090E071
:100A30000E94610260910503772767FD70958091A0
:100A40000603992787FD90959B012F5F3F4FAC01CF
:100A50004F5F5F4F00E00E94330220E330E04AE244
:100A600050E060E070E08AE290E00E94AF01809187
:100A7000000320E042E050E062E270E0805D0E940E
:100A8000A2028091010320E042E050E06EE270E0BB
:100A9000805D0E94A2020F91EF900C94650384E0A8
:100AA0000E941309892B21F480910703181654F131
:100AB00087E00E941309892B59F420910703809144
:100AC000090390E0820F911D27FD9A95C097F4F0DD
:100AD00082E00E941309892B21F4809108031816E3
:100AE000CCF083E00E941309892BD9F420910803EC
:100AF0008091090390E0820F911D27FD9A95C09780
:100B00006CF00895815080930703D2CF2F5F20931C
:100B10000703DECF815080930803E3CF2F5F20933C
:100B200008030895E09106032E2F332727FD309503
:100B30006091020370910503E03544F024503109BF
:100B4000862F90E0821793078CF54EC08FE490E0DB
:100B5000821B930B462F50E08417950724F5409194
:100B60000803741704F1F09109038F2F90E0840FAC
:100B7000911D47FD9A95472F552747FD509584179E
:100B800095078CF084E080930403909103039130E7
:100B900009F486E0809303038FEF8F0FF11101C0FA
:100BA00081E080930903E530FCF0C8CF2091070372
:100BB0007217D4F08091090390E0820F911D27FDF8
:100BC0009A95272F332727FD30958217930764F0D6
:100BD00085E08093040380910303843011F483E063
:100BE00001C081E08093030380910303813048F0CA
:100BF000843020F0873028F4E61B01C0E60FE09334
:100C00000603853028F4833048F4813019F009C098
:100C1000863039F4761B7093050303C0670F609329
:100C200005039091060397FF09C092E09093040397
:100C3000909101039F5F909301030AC0953544F0A2
:100C400091E090930403909100039F5F90930003C1
:100C50009091050397FF0DC0919590930503813006
:100C600011F483E001C084E08093030383E0809368
:100C7000040390910503913384F080E6891B8093EF
:100C8000050380910303833011F481E001C086E005
:100C90008093030383E080930403809101038930F0
:100CA00021F080910003893019F486E080930403D9
:100CB000089524E630E040E050E068EE73E08EE016
:100CC0000E943C0964E670E080E090E00E94B90771
:100CD00024E630E040E050E068EE73E08EE00E94F1
:100CE0003C0964E670E080E090E00E94B9072CE2E5
:100CF00031E040E050E068EE73E08EE00E943C0995
:100D00006CE271E080E090E00E94B90728EE33E0E9
:100D100040E050E060ED77E08EE00E943C0968EE34
:100D200073E080E090E00C94B90780910403833075
:100D3000B9F058F4813029F18230A9F52AE030E089
:100D400040E050E064EC79E022C0843081F08530EE
:100D500051F52AE030E040E050E060EB74E00DC077
:100D60002AE030E040E050E060ED77E006C02AE0A5
:100D700030E040E050E068EE73E08EE00E943C0915
:100D800012C02AE030E040E050E068EB7BE08EE00B
:100D90000E943C096AE070E080E090E00E94B907A0
:100DA0000E94BB0406C06AE070E080E090E00E9410
:100DB000B90780910403863011F50E94590684E03A
:100DC0000E941309892BC9F087E00E941309892B1F
:100DD000A1F088E00E941309892B79F086E00E9437
:100DE0001309892B51F082E00E941309892B29F005
:100DF00083E00E941309892B11F70E94D0041092FE
:100E0000040308950E944F050E9492050E94F30476
:100E10000C949506CF93CFB7F89480910A03811173
:100E200027C0EAE7F2E08491E6E6F2E09491E82F49
:100E3000F0E0EE0FFF1FE856FD4FA591B4918C91A5
:100E4000892321F461E08AE00E94DD0861E08AE004
:100E50000E94A4088CB580618CBD8CB580648CBD6B
:100E600061E08DE00E94A40861E08BE00E94A4088C
:100E700080910A038F5F80930A03CFBFCF910895BB
:100E80001F920F920FB60F9211242F933F938F93BF
:100E90009F93AF93BF9380910C0390910D03A0910A
:100EA0000E03B0910F0330910B0326E0230F2D3773
:100EB00020F40296A11DB11D05C029E8230F039659
:100EC000A11DB11D20930B0380930C0390930D0380
:100ED000A0930E03B0930F03809110039091110320
:100EE000A0911203B09113030196A11DB11D80932F
:100EF000100390931103A0931203B0931303BF91B7
:100F0000AF919F918F913F912F910F900FBE0F90B6
:100F10001F9018952FB7F89460910C0370910D03F2
:100F200080910E0390910F032FBF08953FB7F8945F
:100F30008091100390911103A0911203B0911303BB
:100F400026B5A89B05C02F3F19F00196A11DB11D24
:100F50003FBF6627782F892F9A2F620F711D811D41
:100F6000911D43E0660F771F881F991F4A95D1F79F
:100F70000895CF92DF92EF92FF92CF93DF936B01B0
:100F80007C010E949607EB01C114D104E104F10435
:100F900089F00E94EC0B0E9496076C1B7D0B683E4B
:100FA000734090F381E0C81AD108E108F108C851F4
:100FB000DC4FEACFDF91CF91FF90EF90DF90CF90A1
:100FC0000895789484B5826084BD84B5816084BDC1
:100FD00085B5826085BD85B5816085BDEEE6F0E0B2
:100FE000808181608083E1E8F0E01082808182600E
:100FF0008083808181608083E0E8F0E0808181608F
:101000008083E1EBF0E0808184608083E0EBF0E0BE
:10101000808181608083EAE7F0E080818460808362
:1010200080818260808380818E7F808380818068E0
:1010300080831092C10008951F93CF93DF93182FE0
:10104000EB0161E00E94A408209711F460E004C065
:10105000CF3FD10539F461E0812FDF91CF911F910E
:101060000C94DD08E12FF0E0E85BFD4FE491E33004
:10107000F9F048F4E130B9F0E230A1F584B58062CE
:1010800084BDC8BD34C0E730E9F0E83019F1E43080
:1010900049F580918000806280938000D0938B001E
:1010A000C0938A0024C084B5806884BDC7BD1FC0BA
:1010B00080918000806880938000D0938900C093E5
:1010C000880015C08091B00080688093B000C09304
:1010D000B3000DC08091B00080628093B000C093D7
:1010E000B40005C0C038D1050CF0B5CFAFCFDF914B
:1010F000CF911F910895833081F028F4813099F0C9
:101100008230A1F008958730A9F08830B9F084309A
:10111000D1F4809180008F7D03C0809180008F7713
:1011200080938000089584B58F7702C084B58F7D49
:1011300084BD08958091B0008F7703C08091B00086
:101140008F7D8093B0000895CF93DF9390E0FC01F2
:10115000E45AFD4F2491FC01E059FD4F849188230E
:1011600049F190E0880F991FFC01E856FD4FA591C9
:10117000B49182579D4FFC01C591D4919FB76111E5
:1011800008C0F8948C91209582238C9388818223C7
:101190000AC0623051F4F8948C91322F3095832339
:1011A0008C938881822B888304C0F8948C91822B45
:1011B0008C939FBFDF91CF9108950F931F93CF938F
:1011C000DF931F92CDB7DEB7282F30E0F901E85B3F
:1011D000FD4F8491F901E45AFD4F1491F901E05952
:1011E000FD4F04910023C9F0882321F069830E94F8
:1011F0007B086981E02FF0E0EE0FFF1FE257FD4F03
:10120000A591B4919FB7F8948C91611103C010958A
:10121000812301C0812B8C939FBF0F90DF91CF91D1
:101220001F910F910895CF93DF93282F30E0F9019C
:10123000E85BFD4F8491F901E45AFD4FD491F90127
:10124000E059FD4FC491CC2391F081110E947B089D
:10125000EC2FF0E0EE0FFF1FEC57FD4FA591B4917E
:101260002C912D2381E090E021F480E002C080E009
:1012700090E0DF91CF9108953F924F925F926F92ED
:101280007F928F929F92AF92BF92CF92DF92EF9216
:10129000FF920F931F93CF93DF9300D000D0CDB771
:1012A000DEB78B0129013A019091F902981721F0DC
:1012B0009F3F09F0DAC104C0E2EAF2E0349081C055
:1012C0008093F902E2EAF2E0E491EF3F09F4CDC144
:1012D000E13031F1E23009F44BC0E11171C014BCCE
:1012E00015BC94B5926094BD95B5916095BD282FBD
:1012F00030E0F901E059FD4FE491F0E0EE0FFF1FFF
:10130000E257FD4F4591549150932403409323039A
:10131000F901E45AFD4F249120932203312C53C04C
:1013200010928000109281009091810098609093BB
:10133000810090918100916090938100282F30E08E
:10134000F901E059FD4FE491F0E0EE0FFF1FE25785
:10135000FD4F4591549150931D0340931C03F90197
:10136000E45AFD4F249120931B03332433942BC064
:101370001092B0001092B1009091B00092609093E2
:10138000B0009091B10091609093B100282F30E0AF
:10139000F901E059FD4FE491F0E0EE0FFF1FE25735
:1013A000FD4F459154915093160340931503F90155
:1013B000E45AFD4F24912093140352E0352E03C0CC
:1013C0003E2E37FC52C161E00E94A4084801A12CC6
:1013D000B12C832D8D7F09F0C7C060E079E08DE3EB
:1013E00090E0A50194010E940F0C29833A834B835E
:1013F0005C8369017A0181E0C81AD108E108F1082B
:101400009FEFC916D104E104F10409F008F49AC071
:1014100060E271EA87E090E0A50194010E940F0C60
:1014200069017A01E1E0CE1AD108E108F108F2E0A1
:101430003F1219C08FEFC816D104E104F10409F07E
:1014400008F48AC068E478EE81E090E0A501940198
:101450000E940F0C69017A0191E0C91AD108E108D4
:10146000F10883E001C082E0EFEFCE16D104E10481
:10147000F10409F008F467C064E274EF80E090E0E2
:10148000A50194010E940F0C69017A01F1E0CF1AC5
:10149000D108E108F1083320E1F082E038121BC0E6
:1014A0009FEFC916D104E104F10409F008F4DBC090
:1014B00062E17AE780E090E0A50194010E940F0CC0
:1014C00069017A01E1E0CE1AD108E108F10885E06E
:1014D00003C083E001C084E0FFEFCF16D104E10434
:1014E000F10489F180F169E07DE380E090E0A501FD
:1014F00094010E940F0C69017A0181E0C81AD10899
:10150000E108F108311002C084E001C086E09FEFDD
:10151000C916D104E104F104B1F0A8F0C980DA8061
:10152000EB80FC809AE0F594E794D794C7949A9561
:10153000D1F7E1E0CE1AD108E108F108332031F00B
:1015400087E00BC081E0332011F007C085E095B53E
:10155000987F982B95BD38C082E09091B100987F1C
:10156000982B9093B10030C060E079E08DE390E07B
:10157000A50194010E940F0C69017A01F1E0CF1AD4
:10158000D108E108F108C114D10481E0E806F104B2
:1015900088F064E274EF80E090E0A50194010E947D
:1015A0000F0C69017A0191E0C91AD108E108F1082C
:1015B00093E001C091E0E1E03E1206C0809181001D
:1015C000887F892B80938100411451046104710448
:1015D00071F0D801AA0FBB1FA30192010E942E0C2B
:1015E00028EE33E040E050E00E94ED0B03C02FEF07
:1015F0003FEFA901F1E03F16A1F082E0381619F1A2
:10160000311033C0C7BC2093250330932603409389
:1016100027035093280380916E00826080936E00B0
:1016200024C0D0928900C092880020931E0330937A
:101630001F03409320035093210380916F00826029
:1016400080936F0012C0C092B300209317033093B1
:1016500018034093190350931A038091700082601D
:101660008093700002C084E078CF0F900F900F90AD
:101670000F90DF91CF911F910F91FF90EF90DF902E
:10168000CF90BF90AF909F908F907F906F905F9022
:101690004F903F900895813039F018F0823051F02A
:1016A000089510926E00089580916F008D7F809351
:1016B0006F000895809170008D7F8093700081E0AD
:1016C0008093B0008091B100887F84608093B100E6
:1016D0001092B3000895CF93C82F8091F9028C1314
:1016E00007C0E2EAF2E084919FEF9093F90201C013
:1016F0008FEF0E944B0B60E08C2FCF910C94DD0894
:101700001F920F920FB60F9211242F933F934F9376
:101710005F936F937F938F939F93AF93BF93EF9359
:10172000FF938091170390911803A0911903B09132
:101730001A03892B8A2B8B2B51F190911403E09182
:101740001503F09116038081892780838091170308
:1017500090911803A0911903B0911A031816190655
:101760001A061B06C4F48091170390911803A091E8
:101770001903B0911A030197A109B10980931703C6
:1017800090931803A0931903B0931A0304C0809197
:10179000F9020E946B0BFF91EF91BF91AF919F9166
:1017A0008F917F916F915F914F913F912F910F900A
:1017B0000FBE0F901F90189508950E94E1070E9498
:1017C000DC0B0E94DF04C0E0D0E00E9402072097FB
:1017D000E1F30E940000F9CF0895A1E21A2EAA1B9E
:1017E000BB1BFD010DC0AA1FBB1FEE1FFF1FA217D1
:1017F000B307E407F50720F0A21BB30BE40BF50BCE
:10180000661F771F881F991F1A9469F76095709556
:10181000809590959B01AC01BD01CF010895052EE7
:1018200097FB1EF400940E94260C57FD07D00E94DF
:10183000ED0B07FC03D04EF40C94260C509540950C
:10184000309521953F4F4F4F5F4F0895909580956C
:10185000709561957F4F8F4F9F4F08950E94390C6F
:10186000A59F900DB49F900DA49F800D911D1124F4
:101870000895A29FB001B39FC001A39F700D811D69
:101880001124911DB29F700D811D1124911D089589
:04189000F894FFCFFA
:101894003C00000000000000000000000000000008
:1018A4000000000000000000000000000000000034
:1018B40000000000E0F0F8FCFCFEFEFEFE1E0E023E
:1018C4000000000000000000000000000000000014
:1018D4000000000000000000000000000000000004
:1018E40000000000000000000000000000000000F4
:1018F40000000000000000000000000000000000E4
:101904000000000000000000030F1F3F7FFFFFFFE7
:10191400FFFFFEFCF8F8F0F8FEFEFCF8E000000023
:1019240000000000000000000000000000000000B3
:1019340000000000000000000000000000000000A3
:101944000000000000000000000000000000000093
:10195400000000F8FCFEFEFFFFF3E0E0C0C0C0E0C2
:10196400E0F1FFFFFFFFFFFFFFFFFFFFFFFFFFFFB0
:10197400FF3E000000000000000000000000000026
:101984000000000000000000000000000000000053
:101994000000000000000000000000000000000043
:1019A40000000000000000FFFFFFFFFFFFFFFFFF3C
:1019B400FFFFFFFFFFFFFFFFFFFFFFFFFFFFFFFF33
:1019C4007F3F1F070100000000000000000000002E
:1019D4000000000000000000000000000000000003
:1019E40000000000000000000000000000000000F3
:1019F4000000000000000000000000FFFFFFFFFFE8
:101A0400FFFF7F3F1F0F0F0F070707070707070396
:101A140003010100000000000000000000000000BD
:101A240000000000000000000000000000000000B2
:101A340000000000000000000000000000000000A2
:101A44000000000000000000000000000000003F53
:101A54001F0F070301000000000000000000000049
:101A64000000000000000000000000000000000072
:101A74000000000000000000000000000000000062
:101A8400000000000000000000FF4B6974636F0059
:00000001FF
