:100000000C94E4020C940C030C940C030C940C035D
:100010000C940C030C940C030C940C030C94BF165E
:100020000C940C030C940C030C940C030C940C0314
:100030000C940C030C940C030C940C030C940C0304
:100040000C94730F0C940C030C94AE120C94E012ED
:100050000C940C030C940C030C940C030C940C03E4
:100060000C940C030C940C0300000000003E5B4F4A
:100070005B3E3E6B4F6B3E1C3E7C3E1C183C7E3C08
:10008000181C577D571C1C5E7F5E1C00183C180016
:10009000FFE7C3E7FF0018241800FFE7DBE7FF30A6
:1000A000483A060E2629792926407F050507407F14
:1000B00005253F5A3CE73C5A7F3E1C1C08081C1C87
:1000C0003E7F14227F22145F5F005F5F06097F017D
:1000D0007F006689956A606060606094A2FFA29468
:1000E00008047E040810207E201008082A1C080836
:1000F0001C2A08081E101010100C1E0C1E0C303884
:100100003E3830060E3E0E06000000000000005F84
:1001100000000007000700147F147F14242A7F2AA0
:100120001223130864623649562050000807030062
:10013000001C2241000041221C002A1C7F1C2A08AE
:10014000083E080800807030000808080808000011
:1001500060600020100804023E5149453E00427F85
:10016000400072494949462141494D331814127FD4
:100170001027454545393C4A494931412111090774
:100180003649494936464949291E000014000000F5
:1001900040340000000814224114141414140041C7
:1001A00022140802015909063E415D594E7C121184
:1001B000127C7F494949363E414141227F414141BC
:1001C0003E7F494949417F090909013E4141517337
:1001D0007F0808087F00417F41002040413F017FA8
:1001E000081422417F404040407F021C027F7F0470
:1001F00008107F3E4141413E7F090909063E4151B9
:10020000215E7F09192946264949493203017F01A8
:10021000033F4040403F1F2040201F3F4038403FA9
:10022000631408146303047804036159494D4300BF
:100230007F4141410204081020004141417F0402F6
:10024000010204404040404000030708002054548D
:1002500078407F284444383844444428384444286B
:100260007F385454541800087E090218A4A49C78BE
:100270007F0804047800447D40002040403D007F1A
:100280001028440000417F40007C047804787C08FA
:100290000404783844444438FC18242418182424CE
:1002A00018FC7C08040408485454542404043F44B3
:1002B000243C4040207C1C2040201C3C4030403CE2
:1002C00044281028444C9090907C4464544C440042
:1002D00008364100000077000000413608000201A6
:1002E0000204023C2623263C1EA1A161123A404092
:1002F000207A38545455592155557941225454780F
:1003000042215554784020545579400C1E527212A7
:100310003955555559395454545939555454580030
:1003200000457C410002457D420001457C407D1234
:1003300011127DF0282528F07C5455450020545496
:100340007C547C0A097F4932494949323A44444441
:100350003A324A4848303A4141217A3A424020787C
:10036000009DA0A07D3D4242423D3D4040403D3C7D
:1003700024FF2424487E4943662B2FFC2F2BFF09A2
:1003800029F620C0887E0903205454794100004496
:100390007D413048484A32384040227A007A0A0A81
:1003A000727D0D19317D2629292F282629292926F4
:1003B00030484D4020380808080808080808382F39
:1003C00010C8ACBA2F102834FA00007B00000814C3
:1003D0002A142222142A14085500550055AA55AA99
:1003E00055AAFF55FF55FF000000FF00101010FF39
:1003F00000141414FF001010FF00FF1010F010F094
:10040000141414FC001414F700FF0000FF00FF1484
:1004100014F404FC141417101F10101F101F1414D0
:10042000141F00101010F0000000001F101010101A
:100430001F10101010F010000000FF10101010100E
:1004400010101010FF10000000FF140000FF00FF4C
:1004500000001F10170000FC04F4141417101714E8
:1004600014F404F40000FF00F7141414141414140A
:10047000F700F7141414171410101F101F1414147D
:10048000F4141010F010F000001F101F0000001FE7
:1004900014000000FC140000F010F01010FF10FF1A
:1004A000141414FF141010101F00000000F010FFAF
:1004B000FFFFFFFFF0F0F0F0F0FFFFFF0000000093
:1004C00000FFFF0F0F0F0F0F3844443844FC4A4A17
:1004D0004A347E02020606027E027E0263554941CC
:1004E000633844443C04407E201E2006027E020203
:1004F00099A5E7A5991C2A492A1C4C7201724C3017
:100500004A4D4D303048784830BC625A463D3E49ED
:100510004949007E0101017E2A2A2A2A2A44445F91
:10052000444440514A444040444A51400000FF0185
:1005300003E080FF000008086B6B08361236243693
:10054000060F090F060000181800000010100030F8
:1005500040FF0101001F01011E00191D1712003C80
:100560003C3C3C00000000000000000800020100CC
:10057000000304070000000000000000010204085E
:1005800010204080010204081020010204081020FD
:100590000404040404040404020202020202030329
:1005A00003030303000000002300260029000000CD
:1005B0000000250028002B00000000002400270078
:1005C0002A000200D807101311241FBECFEFD8E075
:1005D000DEBFCDBF13E0A0E0B1E0E4E2F7E302C08C
:1005E00005900D92AA38B107D9F724E0AAE8B3E044
:1005F00001C01D92A937B207E1F715E0C8ECD5E0BC
:1006000004C02297FE010E94DB18C43CD107C9F741
:100610000E9455180C94901B0C94000084E00E94DA
:10062000461121E0892B09F020E0822F089587E010
:100630000E94461121E0892B09F020E0822F0895C5
:1006400086E00E94461121E0892B09F020E0822FEC
:10065000089588E00E94461121E0892B09F020E0EE
:10066000822F0895682F81E10C941011682F80E18A
:100670000C941011682F81E10C941011682F80E107
:100680000C941011CF93DF93CDB7DEB762970FB6FE
:10069000F894DEBF0FBECDBF84E993E00E945F0FE8
:1006A00061E084E993E00E94590D61E070E084E923
:1006B00093E00E945F0D84E993E00E946C0D97FD2A
:1006C0000196AC01559547954750510963E070E09C
:1006D00084E993E00E94530D65E073E084E993E0C0
:1006E0000E94BE136FE073E0CE0107960E94B5171B
:1006F000BE01695F7F4FCE0101960E94E21762E85A
:10070000CE0101960E94441865E173E00E942A1808
:10071000BC01CE010D960E94E217CE0101960E9407
:100720004717CE0107960E944717BE01635F7F4FB0
:1007300084E993E00E94AC1384E993E00E948C0E5C
:1007400081E00E94320324EF31E040E050E068EEA7
:1007500073E08EE00E947B1464EF71E080E090E033
:100760000E94EC0F80E00E94320381E00E94360379
:1007700024EF31E040E050E06CED75E08EE00E9447
:100780007B1464EF71E080E090E00E94EC0F80E069
:100790000E94360381E00E943A0324EF31E040E0FA
:1007A00050E060ED77E08EE00E947B1464EF71E032
:1007B00080E090E00E94EC0F80E00E943A0381E02C
:1007C0000E943E0324EF31E040E050E064EC79E029
:1007D0008EE00E947B1468EE73E080E090E00E945F
:1007E000EC0F80E00E943E038EE00E94AA1664EFA8
:1007F00071E080E090E00E94EC0F81E00E94320303
:1008000081E00E94360381E00E943A0381E00E9469
:100810003E0324EF31E040E050E060EA7FE08EE00C
:100820000E947B1468EE73E080E090E00E94EC0F81
:100830008EE00E94AA1680E00E94320380E00E94AF
:10084000360380E00E943A0380E00E943E0368EE97
:1008500073E080E090E00E94EC0FCE010D960E94C4
:10086000471762960FB6F894DEBF0FBECDBFDF917B
:10087000CF910895CF93C82F853608F0C4E664E67B
:1008800070E09B012C1B31094FEF429FC001439F39
:10089000900D11240E94651885E00E944F10C093AE
:1008A0000A01CF910895CF93C82F279A2F9864EF0C
:1008B00071E080E090E00E94EC0F2F9A61E08EE002
:1008C0000E94D71061E081E10E94D71061E080E1D1
:1008D0000E94D71061E08FE00E94D71060E084E0B2
:1008E0000E94D71061E084E00E94101160E088E06F
:1008F0000E94D71061E088E00E94101160E087E05C
:100900000E94D71061E087E00E94101160E086E04D
:100910000E94D71061E086E00E94101160E082E042
:100920000E94D71061E082E00E94101160E083E035
:100930000E94D71061E083E00E94101126E040E899
:1009400055E260E070E083EC93E00E9452128091E7
:100950000A010E943A0444E068E284E993E00E94BC
:10096000D20E61E084E993E00E94650D60910B0175
:1009700084E993E00E94750E84E993E00E945F0F82
:10098000CC2319F0CF910C944203CF9108950F938B
:100990001F93CF93DF93C0919003D0919103209741
:1009A00061F14A815B816881798101E010E021E099
:1009B00030E084E993E00E94BD09688179814AE0D2
:1009C00050E083EC93E00E94731461E273E083ECE7
:1009D00093E00E949F136A817B814AE050E083ECA0
:1009E00093E00E9473140C80DD81C02D6AE773E0F0
:1009F00083EC93E00E949F13D2CF6AE773E083EC0D
:100A000093E00E949F136AE773E083EC93E0DF9129
:100A1000CF911F910F910C949F130F931F934091AF
:100A20008C0350918D0360918A0370918B0301E0D8
:100A300010E021E030E084E993E00E94BD091F91BD
:100A40000F910895EF92FF920F931F93CF93DF932F
:100A5000E0919403F0919503C485D58584E993E0F2
:100A60000E946C0D8C0184E993E00E94680DEE24D5
:100A7000E394F12C9C0140E050E060E070E084E9F8
:100A800093E0FE010995DF91CF911F910F91FF90A7
:100A9000EF9008950E94BD0F24E630E040E050E062
:100AA0000E9479180E941B1780918A0390918B03F2
:100AB0000196C1F462E570E080E090E00E942317A7
:100AC0006E5F7F4F70938B0360938A036EE270E0DA
:100AD00080E090E00E9423176E5F7F4F70938D033C
:100AE00060938C030895EF92FF920F931F93CF931F
:100AF000DF9384E993E00E94680D63E070E00E9458
:100B000065187B0184E993E00E946C0D97FD0196C6
:100B10008C011595079584E993E00E94680D97FD77
:100B200001969595879590938B0380938A0384E92A
:100B300093E00E946C0D97FD019695958795909393
:100B40008D0380938C0386E090E00E94EE18FC01F8
:100B5000F182E082138302831582148290939103C1
:100B600080939003C1E0D0E086E090E00E94EE1810
:100B7000FC01C7018C1B9D0B91838083138302832F
:100B8000809190039091910395838483F0939103D6
:100B9000E09390032196CF30D10531F7D0939303A2
:100BA000C0939203DF91CF911F910F91FF90EF902F
:100BB00008950E940E0381110FC00E941703811136
:100BC0000EC00E94200381110DC00E9429038823BA
:100BD00061F083E090E0089580E090E0089581E086
:100BE00090E0089582E090E0089584E090E0089518
:100BF000CF93DF93CDB7DEB72C970FB6F894DEBF57
:100C00000FBECDBF26E040E855E260E070E083EC27
:100C100093E00E94521281E00E94530484E993E021
:100C20000E945F0F61E084E993E00E94590D61E04A
:100C300070E084E993E00E945F0D84E993E00E94F4
:100C40006C0D97FD0196AC0155954795475051099C
:100C500063E070E084E993E00E94530D6BE173E080
:100C600084E993E00E94BE1363E273E0CE0107962D
:100C70000E94B517BE01695F7F4FCE0101960E94A9
:100C8000E21762E8CE0101960E9444186CE273E01C
:100C90000E942A18BC0184E993E00E94AC13CE01A3
:100CA00001960E944717CE0107960E94471784E9D4
:100CB00093E00E948C0E60ED77E080E090E00E946F
:100CC000EC0F84E993E00E945F0F0E9473050E947D
:100CD000C7040E940D0584E993E00E948C0E2C96B7
:100CE0000FB6F894DEBF0FBECDBFDF91CF91089550
:100CF00068EE73E080E090E00E94EC0F84E993E0FE
:100D00000E945F0F84E993E00E946C0D97FD0196AD
:100D1000AC01559547954750510963E070E084E96F
:100D200093E00E94530D60E373E084E993E00E9436
:100D3000BE1384E993E00E948C0E81E00E943E0382
:100D40002CE231E040E050E064EF71E08EE00E9480
:100D50007B146CE271E080E090E00E94EC0F8EE08A
:100D60000E94AA162CEB32E040E050E068EC70E004
:100D70008EE00E947B146CEB72E080E090E00E94B9
:100D8000EC0F68E873E180E090E00E94EC0F80E0F7
:100D90000E943E030C94F8058F929F92AF92BF92EF
:100DA000CF92DF92EF92FF920F931F93CF93DF9337
:100DB000E0909003F0909103D7018D909D90AD90BD
:100DC000BC9013971496ED91FC9115972481358171
:100DD0002115310579F040815181628173814D93F4
:100DE0005D936D937C93139714960D90BC91A02DF9
:100DF000F901ECCF408151812D913C9111976A010D
:100E0000C21AD30A2281338112966D917C91139775
:100E1000E901C61BD70BBE018A010C0D1D1DE9019E
:100E2000C60FD71F009729F4CD28E9F0E9012197D3
:100E300007C08130910531F4CD28A9F0E901219650
:100E40008A0111C08230910531F4672B61F08A016B
:100E50000150110907C0039731F4672B21F08A0173
:100E60000F5F1F4FE90140815181628173814D9372
:100E70005D936D937C93139711830083D383C28317
:100E800080918A0390918B038017910791F580914F
:100E90008C0390918D038C179D0759F58FEF9FEF71
:100EA00090938B0380938A0390938D0380938C039C
:100EB00086E090E00E94EE18FC0180829182A2827E
:100EC000B382F582E482909391038093900322E3AE
:100ED00030E040E050E068EE73E08EE00E947B146A
:100EE0008091920390919303019690939303809342
:100EF000920301301105B1F1C130D10599F184E9B6
:100F000093E00E94680D0F5F1F4F0817190751F1FA
:100F100084E993E00E946C0D2196C817D90711F15E
:100F2000E0919003F0919103C481D5818C819D81E2
:100F3000892BD9F0E0919003F091910320813181C8
:100F4000888199812817390749F4228133818A8160
:100F50009B812817390711F40E9478060C80DD81E7
:100F6000C02DE4CF0E947806DBCFDF91CF911F9197
:100F70000F91FF90EF90DF90CF90BF90AF909F9038
:100F80008F9008950E94D9050E94CC0684E993E0D1
:100F90000E945F0F81E090E00E9422050E94C7043A
:100FA0000E940D050E944A0584E993E00C948C0E82
:100FB0002FEF49E06AE084E993E00C94DC0DCF93D5
:100FC000CFB7F8948091B903811127C0EAE9F5E021
:100FD0008491E6E8F5E09491E82FF0E0EE0FFF1F32
:100FE000E854FA4FA591B4918C91892321F461E0E2
:100FF0008AE00E94101161E08AE00E94D7108CB54F
:1010000080618CBD8CB580648CBD61E08DE00E94F8
:10101000D71061E08BE00E94D7108091B9038F5FF9
:101020008093B903CFBFCF9108952F923F924F92F3
:101030005F926F927F928F929F92AF92BF92CF9268
:10104000DF92EF92FF920F931F93CF93DF9300D025
:1010500000D0CDB7DEB74C017C836B836A015901A8
:10106000C8018701AC014C195D0957FF03C05195B8
:101070004195510995016B817C81261B370B37FF08
:1010800003C031952195310922242394312C241752
:10109000350714F0212C312C2114310459F03A2D4C
:1010A0002B2D5C01832F922F3B812C81DC82CB8204
:1010B000C32ED22EAB81BC81AA16BB065CF43C2D9C
:1010C0002D2D6C01832F922F3B812C81BC82AB8212
:1010D000A32EB22E2501EB81FC814E1A5F0A3C0142
:1010E0006C187D0877FE03C07194619471087201D9
:1010F00057FE03C0FFEFEF1AFF0AF594E794C816F6
:10110000D9062CF421E030E03A83298324C06FEF24
:101110007FEF7A8369831FC0D401ED91FC91048035
:10112000F581E02D980121143104D9F04B815C81C7
:10113000B601C4010995E618F708F7FE06C0E98173
:10114000FA81CE0EDF1EE40CF51C2B813C812F5F53
:101150003F4F3C832B836B817C81A616B706E4F658
:1011600004C0A6016B817C81E4CF0F900F900F909B
:101170000F90DF91CF911F910F91FF90EF90DF9033
:10118000CF90BF90AF909F908F907F906F905F9027
:101190004F903F902F9008956F927F928F929F92E1
:1011A000AF92BF92CF92DF92EF92FF920F931F9375
:1011B000CF93DF93EC015B016A0139014801E881BB
:1011C000F9810284F385E02D87010995E881F98191
:1011D000A601480D591D415051090284F385E02DA7
:1011E0009301B501CE010995E881F9810084F1856B
:1011F000E02D9401A601B501CE010995E881F981A0
:10120000B501660D771D615071090084F185E02DEF
:101210009401A601CE010995DF91CF911F910F9105
:10122000FF90EF90DF90CF90BF90AF909F908F9006
:101230007F906F900895EF92FF920F931F93DC01C0
:10124000ED91FC91240F351F215031090680F78163
:10125000E02D780189019B0109951F910F91FF9065
:10126000EF900895EF92FF920F931F93DC01ED91A1
:10127000FC91260F371F215031090680F781E02DA0
:1012800078018A0109951F910F91FF90EF900895C1
:101290006F927F928F929F92AF92BF92CF92DF9286
:1012A000EF92FF920F931F93CF93DF935C014A015C
:1012B00069013801EB01C60ED71ECC15DD0574F4AB
:1012C000D501ED91FC910084F185E02D870193011A
:1012D000A401BE01C50109952196EFCFDF91CF9101
:1012E0001F910F91FF90EF90DF90CF90BF90AF9044
:1012F0009F908F907F906F900895EF92FF920F9341
:101300001F93DC01ED91FC9111971A960D911C91A0
:101310001B9718962D913C9119970684F785E02D1F
:101320007B0140E050E060E070E009951F910F9173
:10133000FF90EF9008950895FC01138212828DE3CF
:1013400093E0918380837583648357834683718799
:10135000608753874287158A1586148617861686F6
:1013600021E0248B8FEF9FEF938B828B918B808B6F
:10137000268B178A118E108E08952F923F924F92CE
:101380005F926F927F928F929F92AF92BF92CF9215
:10139000DF92EF92FF920F931F93CF93DF9300D0D2
:1013A00000D000D0CDB7DEB79E838D836B015A018C
:1013B000790166246394712C621A730A44245524BB
:1013C000421A530A440C551CDC01ED91FC91420F6A
:1013D000531F0480F581E02D98010995AD81BE81F0
:1013E000ED91FC911197A5014E195F090480F581DB
:1013F000E02D9801B601CD010995AD81BE81ED9139
:10140000FC911197B6016E0D7F1D0480F581E02DD2
:101410009801A501CD010995AD81BE81ED91FC91A9
:101420001197B6016E197F090480F581E02D9801AE
:10143000A501CD010995812C912C8E149F040CF0EF
:10144000A1C077FC08C0B1E0EB1AF108E2E04E0E53
:10145000511C640C751CFFEF8F1A9F0AC401880F82
:10146000991F0196680E791EC4018C0D9D1D9C83E9
:101470008B83AD81BE81ED91FC9111970480F58144
:10148000E02D980115012E0C3F1CA101BC01CD01DE
:101490000995F601E819F909FA83E983AD81BE815E
:1014A000ED91FC9111970480F581E02D9801A10147
:1014B00069817A81CD010995AD81BE81ED91FC9163
:1014C00011970480F581E02D980115012E183F0831
:1014D000A1016B817C81CD010995AD81BE81ED912A
:1014E000FC9111970480F581E02D9801A10169819B
:1014F0007A81CD01099514012A0C3B1CAD81BE8176
:10150000ED91FC9111970480F581E02D9801A101E6
:10151000C6018E0D9F1D9C838B83BC01CD01099557
:10152000AD81BE81ED91FC9111970480F581E02D94
:101530009801A101C6018E199F099A838983BC0174
:10154000CD010995150128183908AD81BE81ED91AD
:10155000FC9111970480F581E02D9801A1016B8128
:101560007C81CD010995AD81BE81ED91FC911197F2
:101570000480F581E02D9801A10169817A81CD0176
:1015800009955BCF26960FB6F894DEBF0FBECDBF90
:10159000DF91CF911F910F91FF90EF90DF90CF904F
:1015A000BF90AF909F908F907F906F905F904F9083
:1015B0003F902F9008952F923F924F925F926F929B
:1015C0007F928F929F92AF92BF92CF92DF92EF92D3
:1015D000FF920F931F93CF93DF93CDB7DEB76A9738
:1015E0000FB6F894DEBF0FBECDBF1C0158874F83E6
:1015F0001C870B87FA86E986CC82DC0158964D91D0
:101600005C9159974115510509F0A6C018968D9126
:101610009C911997681779070CF056C11A968D910D
:101620009C911B97EF81F885E817F9070CF04CC1E6
:10163000D12CCB013C81F6E03F9F800D911D112400
:10164000181619060CF040C1C60103E0880F991F57
:101650000A95E1F74F815885840F951F18161906D2
:101660000CF032C157968C91811103C0203B08F0D9
:101670002F5F7E876D874B01198218E6A12E10E03F
:10168000B12EA61AB70A55E0259FA00CB11C112453
:101690008981853039F0ED85FE85EA0DFB1D949139
:1016A0009A8301C01A826F8078842301A8E0AD83F9
:1016B000BA81B0FF12C0D101ED91FC91BC81B13073
:1016C00031F40480F581E02D2B853C8518C006841B
:1016D000F785E02DEB84FC841DC0E985FA852B8518
:1016E0003C85E217F307E1F0D101ED91FC91BC815B
:1016F000B13059F40480F581E02D29853A85A201A5
:101700006D857E85C10109950BC00684F785E02DA6
:10171000E984FA8486019601A301B401C101099507
:10172000EA81E695EA83FD81F150FD836C0C7D1C16
:101730002FEF421A520AF111BBCF39813F5F398333
:101740008C0C9D1C4D855E854F5F5F4F5E874D877E
:10175000363009F09DCFB8C0FA01349634913297F3
:1017600085919491231BA7E02A9F800D911D112440
:10177000FA0125913491398B288BFC0145915491C4
:101780005A8F498FFC013296549159873196A49112
:10179000AF873196E491FC0135962491319684917E
:1017A000BC81B23050F0622E772467FC7094E82F31
:1017B000FF27E7FDF095FE87ED87FC81CF2ED12C2A
:1017C0006C9C40016D9C900C7C9C900C1124860EAE
:1017D000971EA12C1982DE8ACD8AAB01420F511DC2
:1017E00027FD5A955E834D83AF81B885A80FB11D43
:1017F00087FDBA95B88FAF8B59818F85581708F040
:1018000063C0852F90E02D853E85280F391F2C9DC4
:10181000D0012D9DB00D3C9DB00D1124EF81F885B8
:10182000EA0FFB1FFB83EA836D807E802401FA2D83
:101830002D81F21BFA8B4F89588D480F591F5C8BF5
:101840004B8B9A89960D862D2D81821B39858317A6
:10185000B0F5977061F4898D9A8D0196E889F989C0
:10186000298D3A8DE20FF31FB4909A8F898FB7FEBE
:101870001DC0D101ED91FC91BC81B13059F40480BF
:10188000F581E02D2B853C854B895C89B301C10135
:1018900009950CC00684F785E02DEB84FC84860155
:1018A00096014A815B81B201C1010995BB0CED89AA
:1018B000FE894E0E5F1EFFEF6F1A7F0AC2CFA30E86
:1018C00049814F5F498398CF6A960FB6F894DEBF7F
:1018D0000FBECDBFDF91CF911F910F91FF90EF9081
:1018E000DF90CF90BF90AF909F908F907F906F9040
:1018F0005F904F903F902F900895AF92BF92CF92FC
:10190000EF92FF920F931F93CF93DF93EC01262F5B
:10191000888D998D009709F042C06A3069F42C894E
:101920008E859F8538E0239F800D911D11249F8710
:101930008E871D861C86ABC06D3009F4A8C08E89C9
:101940008823C1F03C898C859D8546E0349F800DBD
:10195000911D112448855985841795075CF01D86D3
:101960001C868E859F85E8E03E9F800D911D112489
:101970009F878E87EA88FB88088919894E855F854D
:101980006C857D85CC88CE010E94DB0A2C898C85F4
:101990009D85F6E02F9F800D911D112441C06A3076
:1019A00079F41D861C864C89FC01369684912E851F
:1019B0003F85489F200D311D11243F872E8767C02A
:1019C0006D3009F464C0AC014C5F5F4FFA01349193
:1019D000631708F45CC03196E491E61708F457C029
:1019E000FA014491362F341BFC013296A590B49035
:1019F000F7E03F9FA00CB11C1124F5013296A49191
:101A00003196E491AA2311F0E1110DC0F50134964D
:101A1000A4902C898C859D85A29E800D911D1124FA
:101A20009D878C8734C0F5013596E4913E89332338
:101A300009F13C89B0E0AE0FB11DE7FDBA953A9FC0
:101A4000A0013B9F500D11246C857D85460F571FCB
:101A500068857985461757076CF01D861C86FC0142
:101A6000369684914E855F85389F400D511D112417
:101A70005F874E87EA88FB88088919894E855F85CC
:101A80006C857D85CC88CE010E94DB0ABFCF81E0CA
:101A900090E0DF91CF911F910F91FF90EF90CF9049
:101AA000BF90AF900895FC0175876487578746877C
:101AB0000895611101C061E0FC01648B0895FC018F
:101AC000738B628B718B608B0895FC01678B08951B
:101AD000FC01808591850895FC0182859385089598
:101AE000FC0177FD68C080859185681779070CF047
:101AF00062C057FD60C082859385481759070CF076
:101B00005AC08589823059F08330B1F08130D1F4E8
:101B10008FE290E0861B970BBA01AC0113C083E5FE
:101B200090E0FC01E61BF70BBF018FE290E0FC01A7
:101B3000E41BF50BAF0106C083E590E0841B950B19
:101B4000AB01BC0164357105B0F54033510598F522
:101B5000CA01E3E095958795EA95E1F74770552727
:101B6000232BA1F024E5289FF001299FF00D1124DB
:101B7000E60FF71FE45FFE4F81E090E0042E01C006
:101B8000880F0A94EAF79081982B14C024E5289FC7
:101B9000F001299FF00D1124E60FF71FE45FFE4FBF
:101BA00081E090E0042E01C0880F0A94EAF7809546
:101BB0009081982390830895EF92FF920F931F9343
:101BC000CF93DF931F92CDB7DEB77C01062F142F82
:101BD00040E350E064E570E029830E949C0985E5BC
:101BE00093E0F701918380838FEF828F838F048F3F
:101BF0002981258F168F0F90DF91CF911F910F9123
:101C0000FF90EF900895FC01828D8F3F21F481E0D9
:101C1000938D9F3F09F080E008950F931F93CF931A
:101C2000DF931F92CDB7DEB78C0169830E94030E4C
:101C30006981882339F06EBD00000DB407FEFDCF29
:101C40008EB52DC088E090E030E8D8019196ED91F6
:101C5000FC919297408194962C91949720952423FF
:101C600020835F96ED91FC91909793962C91432F52
:101C7000462321F04081422B408304C040812095BF
:101C800024232083D8019196ED91FC919297208195
:101C900094964C91242B208336950197B1F60F90A2
:101CA000DF91CF911F910F9108951F93CF93DF93F1
:101CB000EC01162F60E08C8D0E9410118E8D18168D
:101CC0001CF460E00E941011612FCE010E940D0EE5
:101CD0008E8D181634F461E0DF91CF911F910C9432
:101CE0001011DF91CF911F9108951F93CF93DF9330
:101CF000EC01162F67FD1FE761E2CE010E94550E31
:101D0000612F6068CE010E94550E60E2CE01DF9126
:101D1000CF911F910C94550EDF92EF92FF920F938B
:101D20001F93CF93DF93EC01FCE0EF2EF1E0FF2E49
:101D3000D12C6D2D6064CE010E94550E60E8CE015D
:101D40000E94550E61E08C8D0E9410118E8D181628
:101D50001CF460E00E94101100E010E0F701E00FB9
:101D6000F11F6081CE010E940D0E0F5F1F4F0435E1
:101D70001105A1F78E8D18161CF461E00E94101158
:101D8000D39484E5E80EF11C86E0D812D2CF60E44B
:101D9000CE01DF91CF911F910F91FF90EF90DF90D7
:101DA0000C94550E0F931F93CF93DF93EC01162FD6
:101DB000042F0E94030E882379F00E94DF078CB560
:101DC0008C7F8CBD8DB58E7F8DBD8CB5837F8CBD9A
:101DD0008CB58F7D8CBD34C061E08A8D0E94D71098
:101DE00061E08B8D0E94D7108B8D992787FD909590
:101DF000FC01E057FA4FE491F0E0EE0FFF1FE255CF
:101E0000FA4F259134913AA329A3FC01E458FA4FE3
:101E100084918CA38A8D992787FD9095FC01E057CA
:101E2000FA4FE491F0E0EE0FFF1FE255FA4F2591D3
:101E3000349138A32F8FFC01E458FA4F84918BA37F
:101E400061E08C8D0E94D7108D8D18161CF461E016
:101E50000E94D7108E8D18161CF461E00E94D710D6
:101E60008D8D18166CF460E00E94101164EF71E023
:101E700080E090E00E94EC0F61E08D8D0E941011D7
:101E800061E2CE010E94550E602F6061CE010E947A
:101E9000550E17FD1FE7612F6068CE010E94550E99
:101EA00060E2CE010E94550E6CE0CE010E94550EFC
:101EB000CE01DF91CF911F910F910C948C0E28EFE2
:101EC00031E0ECE0F1E0DF01A9011D92415050400A
:101ED000E1F7DC011D961C921E921C971F961C9226
:101EE0001E921E9708951F920F920FB60F92112403
:101EF0002F933F938F939F93AF93BF938091BB0397
:101F00009091BC03A091BD03B091BE033091BA0380
:101F100026E0230F2D3720F40296A11DB11D05C028
:101F200029E8230F0396A11DB11D2093BA038093C6
:101F3000BB039093BC03A093BD03B093BE038091F9
:101F4000BF039091C003A091C103B091C203019659
:101F5000A11DB11D8093BF039093C003A093C10343
:101F6000B093C203BF91AF919F918F913F912F91F9
:101F70000F900FBE0F901F9018952FB7F894609197
:101F8000BB037091BC038091BD039091BE032FBF32
:101F900008953FB7F8948091BF039091C003A0913A
:101FA000C103B091C20326B5A89B05C02F3F19F00D
:101FB0000196A11DB11D3FBF6627782F892F9A2F4B
:101FC000620F711D811D911D43E0660F771F881FF1
:101FD000991F4A95D1F70895CF92DF92EF92FF9221
:101FE000CF93DF936B017C010E94C90FEB01C114F9
:101FF000D104E104F10489F00E9464180E94C90F21
:102000006C1B7D0B683E734090F381E0C81AD108C9
:10201000E108F108C851DC4FEACFDF91CF91FF9082
:10202000EF90DF90CF900895789484B5826084BD5E
:1020300084B5816084BD85B5826085BD85B58160CC
:1020400085BDEEE6F0E0808181608083E1E8F0E02C
:102050001082808182608083808181608083E0E85B
:10206000F0E0808181608083E1EBF0E0808184603A
:102070008083E0EBF0E0808181608083EAE7F0E03C
:1020800080818460808380818260808380818E7F74
:1020900080838081806880831092C10008951F939F
:1020A000CF93DF93182FEB0161E00E94D7102097A8
:1020B00011F460E004C0CF3FD10539F461E0812F15
:1020C000DF91CF911F910C941011E12FF0E0E859AE
:1020D000FA4FE491E330F9F048F4E130B9F0E2303E
:1020E000A1F584B5806284BDC8BD34C0E730E9F095
:1020F000E83019F1E43049F58091800080628093E6
:102100008000D0938B00C0938A0024C084B580687F
:1021100084BDC7BD1FC0809180008068809380000F
:10212000D0938900C093880015C08091B00080686A
:102130008093B000C093B3000DC08091B000806266
:102140008093B000C093B40005C0C038D1050CF036
:10215000B5CFAFCFDF91CF911F910895833081F03C
:1021600028F4813099F08230A1F008958730A9F0E9
:102170008830B9F08430D1F4809180008F7D03C025
:10218000809180008F7780938000089584B58F7749
:1021900002C084B58F7D84BD08958091B0008F7793
:1021A00003C08091B0008F7D8093B0000895CF93DD
:1021B000DF9390E0FC01E458FA4F2491FC01E057D2
:1021C000FA4F8491882349F190E0880F991FFC0110
:1021D000E854FA4FA591B49182559A4FFC01C591EC
:1021E000D4919FB7611108C0F8948C9120958223F7
:1021F0008C93888182230AC0623051F4F8948C91C8
:10220000322F309583238C938881822B888304C05E
:10221000F8948C91822B8C939FBFDF91CF9108957E
:102220000F931F93CF93DF931F92CDB7DEB7282F65
:1022300030E0F901E859FA4F8491F901E458FA4F76
:102240001491F901E057FA4F04910023C9F0882353
:1022500021F069830E94AE106981E02FF0E0EE0F5B
:10226000FF1FE255FA4FA591B4919FB7F8948C9156
:10227000611103C01095812301C0812B8C939FBFF6
:102280000F90DF91CF911F910F910895CF93DF931E
:10229000282F30E0F901E859FA4F8491F901E45808
:1022A000FA4FD491F901E057FA4FC491CC2391F041
:1022B00081110E94AE10EC2FF0E0EE0FFF1FEC55E5
:1022C000FA4FA591B4912C912D2381E090E021F457
:1022D00080E002C080E090E0DF91CF910895FC01A2
:1022E000818D228D90E0805C9F4F821B91098F73BE
:1022F00099270895FC01918D828D981731F0828D78
:10230000E80FF11D858D90E008958FEF9FEF089500
:10231000FC01918D828D981761F0828DDF01A80FED
:10232000B11D5D968C91928D9F5F9F73928F90E00F
:1023300008958FEF9FEF089586E093E1892B49F090
:1023400080E090E0892B29F00E94061381110C9403
:1023500000000895FC01848DDF01A80FB11DA35A70
:10236000BF4F2C91848D90E001968F739927848FB5
:10237000A689B7892C93A089B1898C9180648C93AC
:10238000938D848D981306C00288F389E02D808197
:102390008F7D80830895CF93DF93EC01888D882310
:1023A000C9F0EA89FB89808185FD05C0A889B989C2
:1023B0008C9186FD0FC00FB607FCF5CF808185FF9D
:1023C000F2CFA889B9898C9185FFEDCFCE010E940B
:1023D000AA11E7CFDF91CF910895CF92DF92FF92BC
:1023E0000F931F93CF93DF931F92CDB7DEB76C018E
:1023F00081E0D60158968C9358975B969C915B9799
:102400005C968C915C97981307C05096ED91FC9167
:102410005197808185FD2EC0F601038D10E00F5F7E
:102420001F4F0F731127F02EF601848DF81211C083
:102430000FB607FCF9CFD6015096ED91FC9151975C
:10244000808185FFF1CFC60169830E94AA1169814D
:10245000EBCF838DE80FF11DE35AFF4F6083D60168
:102460005B960C935B975296ED91FC91539780810C
:1024700080620CC0D6015696ED91FC91579760830F
:102480005096ED91FC91519780818064808381E02A
:1024900090E00F90DF91CF911F910F91FF90DF900F
:1024A000CF900895BF92CF92DF92EF92FF92CF9399
:1024B000DF93EC016A017B01B22E60E874E88EE1E3
:1024C00090E0A70196010E94791821503109410935
:1024D00051095695479537952795E889F98982E0FE
:1024E0008083211580E1380798F0E889F989108206
:1024F00060E472E48FE090E0A70196010E947918F1
:10250000215031094109510956954795379527952D
:10251000EC85FD853083EE85FF852083188EEC8960
:10252000FD89B082EA89FB89808180618083EA89A4
:10253000FB89808188608083EA89FB89808180684B
:102540008083EA89FB8980818F7D8083DF91CF91B1
:10255000FF90EF90DF90CF90BF9008951F920F9261
:102560000FB60F9211242F938F939F93EF93FF93A6
:10257000E091D303F091D4038081E091D903F091ED
:10258000DA0382FD12C090818091DC038F5F8F732C
:102590002091DD03821751F0E091DC03F0E0ED5370
:1025A000FC4F958F8093DC0301C08081FF91EF91F8
:1025B0009F918F912F910F900FBE0F901F901895A4
:1025C0001F920F920FB60F9211242F933F934F93A8
:1025D0005F936F937F938F939F93AF93BF93EF938B
:1025E000FF9383EC93E00E94AA11FF91EF91BF91BA
:1025F000AF919F918F917F916F915F914F913F919B
:102600002F910F900FBE0F901F90189583EC93E0C1
:102610000E946F1121E0892B09F420E0822F089598
:102620001092C6031092C50388EE93E0A0E0B0E0DC
:102630008093C7039093C803A093C903B093CA03C0
:102640008DE693E09093C4038093C30385EC90E000
:102650009093D0038093CF0384EC90E09093D203C7
:102660008093D10380EC90E09093D4038093D303C4
:1026700081EC90E09093D6038093D50382EC90E0B8
:102680009093D8038093D70386EC90E09093DA037D
:102690008093D9031092DC031092DD031092DE03C5
:1026A0001092DF030895CF92DF92EF92FF920F9383
:1026B0001F93CF93DF937C016A01EB0100E010E0F0
:1026C0000C151D0571F06991D701ED91FC910190F8
:1026D000F081E02DC7010995892B19F00F5F1F4F7D
:1026E000EFCFC801DF91CF911F910F91FF90EF9035
:1026F000DF90CF9008956115710581F0DB010D9099
:102700000020E9F7AD0141505109461B570BDC0190
:10271000ED91FC910280F381E02D099480E090E03E
:102720000895DC01ED91FC91DB0114964D915C91D3
:1027300015976D917C910280F381E02D09940C94A2
:102740007B13DC01ED91FC910190F081E02D099467
:1027500069E773E00C947B130F931F93CF93DF9380
:10276000EC010E9491138C01CE010E94A813800FEE
:10277000911FDF91CF911F910F9108950F931F9398
:10278000CF93DF93EC010E947B138C01CE010E945A
:10279000A813800F911FDF91CF911F910F91089582
:1027A0008F929F92AF92BF92CF92DF92EF92FF9261
:1027B0000F931F93CF93DF93CDB7DEB7A1970FB6DB
:1027C000F894DEBF0FBECDBF7C01C42EE52FCB0138
:1027D000D22E19A221E02D1510F02AE0D22E8E0162
:1027E0000F5D1F4F8D2C912CA12CB12C6C2D7E2FA9
:1027F000A50194010E9479188C2DD29E8019112474
:10280000015011098A3014F4805D01C0895CF8011F
:102810008083211531054105510521F0C22EE32F9A
:10282000CA01E4CFB801C7010E947B13A1960FB67D
:10283000F894DEBF0FBECDBFDF91CF911F910F91F6
:10284000FF90EF90DF90CF90BF90AF909F908F90D0
:102850000895CF92DF92EF92FF920F931F93CF9341
:10286000DF93EC016A017B012115310579F4E881E0
:10287000F9810190F081E02D642FDF91CF911F91BC
:102880000F91FF90EF90DF90CF9009942A3031059F
:10289000E9F477FF1AC06DE20E94A1138C0144276E
:1028A0005527BA014C195D096E097F092AE0CE014E
:1028B0000E94D013800F911FDF91CF911F910F9134
:1028C000FF90EF90DF90CF9008952AE0B701A60126
:1028D000CE01DF91CF911F910F91FF90EF90DF908C
:1028E000CF900C94D0139A01AB01662757FD6095E9
:1028F000762F0C9429143F924F925F926F927F92A1
:102900008F929F92AF92BF92CF92DF92EF92FF92FF
:102910000F931F93CF93DF9300D000D0CDB7DEB7D6
:102920008B0129013A0190910403981721F09F3FF0
:1029300009F0DAC104C0E2ECF5E0349081C0809384
:102940000403E2ECF5E0E491EF3F09F4CDC1E1309E
:1029500031F1E23009F44BC0E11171C014BC15BC77
:1029600094B5926094BD95B5916095BD282F30E0E7
:10297000F901E057FA4FE491F0E0EE0FFF1FE25546
:10298000FA4F459154915093700440936F04F901AC
:10299000E458FA4F249120936E04312C53C01092C6
:1029A0008000109281009091810098609093810046
:1029B00090918100916090938100282F30E0F9017F
:1029C000E057FA4FE491F0E0EE0FFF1FE255FA4FA7
:1029D000459154915093690440936804F901E45877
:1029E000FA4F249120936704332433942BC0109220
:1029F000B0001092B1009091B00092609093B0003E
:102A00009091B10091609093B100282F30E0F901CE
:102A1000E057FA4FE491F0E0EE0FFF1FE255FA4F56
:102A2000459154915093620440936104F901E45834
:102A3000FA4F24912093600452E0352E03C03E2EBD
:102A400037FC52C161E00E94D7104801A12CB12C83
:102A5000832D8D7F09F0C7C060E079E08DE390E0C1
:102A6000A50194010E949B1829833A834B835C83C0
:102A700069017A0181E0C81AD108E108F1089FEFE5
:102A8000C916D104E104F10409F008F49AC060E227
:102A900071EA87E090E0A50194010E949B1869010A
:102AA0007A01E1E0CE1AD108E108F108F2E03F1224
:102AB00019C08FEFC816D104E104F10409F008F43D
:102AC0008AC068E478EE81E090E0A50194010E945C
:102AD0009B1869017A0191E0C91AD108E108F1084F
:102AE00083E001C082E0EFEFCE16D104E104F104EF
:102AF00009F008F467C064E274EF80E090E0A5019B
:102B000094010E949B1869017A01F1E0CF1AD10863
:102B1000E108F1083320E1F082E038121BC09FEF9A
:102B2000C916D104E104F10409F008F4DBC062E144
:102B30007AE780E090E0A50194010E949B1869016A
:102B40007A01E1E0CE1AD108E108F10885E003C07E
:102B500083E001C084E0FFEFCF16D104E104F1046B
:102B600089F180F169E07DE380E090E0A5019401C6
:102B70000E949B1869017A0181E0C81AD108E10816
:102B8000F108311002C084E001C086E09FEFC91651
:102B9000D104E104F104B1F0A8F0C980DA80EB803F
:102BA000FC809AE0F594E794D794C7949A95D1F76E
:102BB000E1E0CE1AD108E108F108332031F087E0D6
:102BC0000BC081E0332011F007C085E095B5987FF8
:102BD000982B95BD38C082E09091B100987F982BDA
:102BE0009093B10030C060E079E08DE390E0A50102
:102BF00094010E949B1869017A01F1E0CF1AD10873
:102C0000E108F108C114D10481E0E806F10488F07C
:102C100064E274EF80E090E0A50194010E949B18AB
:102C200069017A0191E0C91AD108E108F10893E03D
:102C300001C091E0E1E03E1206C080918100887FF2
:102C4000892B80938100411451046104710471F057
:102C5000D801AA0FBB1FA30192010E94BA1828EE47
:102C600033E040E050E00E94791803C02FEF3FEFBF
:102C7000A901F1E03F16A1F082E0381619F13110F8
:102C800033C0C7BC20937104309372044093730423
:102C90005093740480916E00826080936E0024C013
:102CA000D0928900C092880020936A0430936B040C
:102CB00040936C0450936D0480916F008260809308
:102CC0006F0012C0C092B300209363043093640479
:102CD00040936504509366048091700082608093F5
:102CE000700002C084E078CF0F900F900F900F908B
:102CF000DF91CF911F910F91FF90EF90DF90CF90D8
:102D0000BF90AF909F908F907F906F905F904F900B
:102D10003F900895813039F018F0823051F00895D5
:102D200010926E00089580916F008D7F80936F00E8
:102D30000895809170008D7F8093700081E0809372
:102D4000B0008091B100887F84608093B1001092C0
:102D5000B3000895CF93C82F809104038C1307C04C
:102D6000E2ECF5E084919FEF9093040301C08FEFB4
:102D70000E948A1660E08C2FCF910C9410111F9244
:102D80000F920FB60F9211242F933F934F935F939F
:102D90006F937F938F939F93AF93BF93EF93FF9323
:102DA0008091630490916404A0916504B0916604DD
:102DB000892B8A2B8B2B51F190916004E091610457
:102DC000F0916204808189278083809163049091CF
:102DD0006404A0916504B0916604181619061A06D9
:102DE0001B06C4F48091630490916404A09165046F
:102DF000B09166040197A109B1098093630490938F
:102E00006404A0936504B093660404C08091040335
:102E10000E94AA16FF91EF91BF91AF919F918F9160
:102E20007F916F915F914F913F912F910F900FBEC6
:102E30000F901F901895611571058105910511F08E
:102E40000C94691A0895CF93DF9300D000D0CDB7CA
:102E5000DEB79B01AC01611571058105910569F033
:102E600069833A834B835C830E94641A29813A8187
:102E70004B815C810E949B1803C060E070E0CB0135
:102E80000F900F900F900F90DF91CF910895FC015C
:102E9000808191810C948619CF93DF93EC01888116
:102EA0009981009711F00E948619198218821D825B
:102EB0001C821B821A82DF91CF9108950F931F937A
:102EC000CF93DF93EC018B016F5F7F4F88819981F6
:102ED0000E94721A009731F0998388831B830A83BA
:102EE00081E001C080E0DF91CF911F910F910895A3
:102EF000CF93DF93EC0188819981892B29F08A8116
:102F00009B818617970760F4CE010E945E17882385
:102F100041F08C819D81892B19F4E881F98110821F
:102F200081E0DF91CF910895EF92FF920F931F936D
:102F3000CF93DF93EC017B018A01BA010E947817DD
:102F4000811104C0CE010E944C1707C01D830C8361
:102F5000B701888199810E944A1BCE01DF91CF91F0
:102F60001F910F91FF90EF900895FC011182108244
:102F700013821282158214826115710559F0FB01CA
:102F800001900020E9F7AF0141505109461B570B52
:102F90000C9494170895CF93DF93EC01FB018617EF
:102FA000970761F0608171816115710529F0448195
:102FB00055810E94941702C00E944C17CE01DF91E8
:102FC000CF910895FC011182108213821282158222
:102FD00014820C94CB17EF92FF920F931F93CF9311
:102FE000DF93EC017B010C811D816115710511F4EA
:102FF00080E016C04115510591F0040F151FB8016E
:103000000E9478178823A1F3288139818C819D81C2
:10301000B701820F931F0E944A1B1D830C8381E01E
:10302000DF91CF911F910F91FF90EF900895CF9373
:10303000DF9300D0CDB7DEB769831A8241E050E05C
:10304000BE016F5F7F4F0E94EB170F900F90DF91D3
:10305000CF910895CF93DF93EC016115710569F06D
:10306000FB0101900020E9F7AF0141505109461BD7
:10307000570B0E94EB17811103C0CE010E944C1721
:10308000CE01DF91CF910895CF93DF93EC010E94A1
:103090001718811103C0CE010E944C17CE01DF9199
:1030A000CF9108950E943C1B08950E9414100E9425
:1030B00054180E94F805CCE9D1E10E94C20720977C
:1030C000E1F30E949C11F9CF089597FB072E16F4A7
:1030D000009407D077FD09D00E94C51807FC05D0E1
:1030E0003EF4909581959F4F0895709561957F4F1F
:1030F0000895A1E21A2EAA1BBB1BFD010DC0AA1F39
:10310000BB1FEE1FFF1FA217B307E407F50720F050
:10311000A21BB30BE40BF50B661F771F881F991FCB
:103120001A9469F760957095809590959B01AC0114
:10313000BD01CF010895052E97FB1EF400940E9457
:10314000B21857FD07D00E94791807FC03D04EF43F
:103150000C94B21850954095309521953F4F4F4FA4
:103160005F4F089590958095709561957F4F8F4F33
:103170009F4F08950E94DF18A59F900DB49F900D5A
:10318000A49F800D911D11240895AA1BBB1B51E122
:1031900007C0AA1FBB1FA617B70710F0A61BB70BC7
:1031A000881F991F5A95A9F780959095BC01CD016C
:1031B0000895EE0FFF1F0590F491E02D0994A29F52
:1031C000B001B39FC001A39F700D811D1124911DFB
:1031D000B29F700D811D1124911D0895CF93DF932F
:1031E0008230910510F482E090E0E0917704F09154
:1031F000780420E030E0A0E0B0E0309739F1408181
:10320000518148175907B8F04817590771F482815E
:103210009381109729F013969C938E9312972CC04C
:10322000909378048093770427C02115310531F0FD
:103230004217530718F0A901DB0101C0EF019A0101
:10324000BD01DF010280F381E02DD7CF21153105CB
:10325000F9F0281B390B2430310580F48A819B81D9
:103260006115710521F0FB019383828304C0909363
:10327000780480937704FE01329644C0FE01E20F89
:10328000F31F8193919322503109398328833AC0E7
:103290002091750430917604232B41F42091020192
:1032A000309103013093760420937504209100013E
:1032B000309101012115310541F42DB73EB7409100
:1032C000040150910501241B350BE0917504F09128
:1032D0007604E217F307A0F42E1B3F0B28173907DB
:1032E00078F0AC014E5F5F4F2417350748F04E0F62
:1032F0005F1F50937604409375048193919302C0AD
:10330000E0E0F0E0CF01DF91CF910895CF93DF931C
:10331000009709F487C0FC01329713821282C09192
:103320007704D0917804209781F420813181280F8F
:10333000391F80917504909176048217930779F56F
:10334000F0937604E09375046DC0DE0120E030E078
:10335000AE17BF0750F412964D915C9113979D01E3
:103360004115510509F1DA01F3CFB383A2834081FE
:103370005181840F951F8A179B0771F48D919C9141
:103380001197840F951F02969183808312968D91D9
:103390009C911397938382832115310529F4F0932F
:1033A0007804E09377043EC0D9011396FC93EE9322
:1033B00012974D915D91A40FB51FEA17FB0779F4A1
:1033C00080819181840F951F0296D90111969C935B
:1033D0008E938281938113969C938E931297E0E053
:1033E000F0E08A819B81009719F0FE01EC01F9CF92
:1033F000CE01029628813981820F931F2091750496
:10340000309176042817390769F4309729F410921F
:1034100078041092770402C013821282D09376044B
:10342000C0937504DF91CF9108958F929F92AF92D0
:10343000BF92CF92DF92EF92FF92CF93DF93EC0196
:10344000688179818A819B8161157105810591056A
:1034500021F464E279ED8BE597E02DE133EF41E073
:1034600050E00E949B1849015A019B01AC01A7EA58
:10347000B1E40E94BA186B017C01ACEEB4EFA50177
:1034800094010E94541BC60ED71EE81EF91EF7FEBB
:1034900006C081E0C81AD108E10880E8F80AC882AD
:1034A000D982EA82FB82C701B6019F77DF91CF9173
:1034B000FF90EF90DF90CF90BF90AF909F908F9054
:1034C00008950E94151A089586E091E00E94151A49
:1034D000089560930601709307018093080190930B
:1034E00009010895A0E0B0E0E8E7FAE10C945D1B63
:1034F000EC01CB01209719F40E94EE18B8C0FE0130
:10350000E60FF71F9E0122503109E217F30708F476
:10351000ACC0D9010D911C91119706171707B8F08F
:103520000530110508F49FC0A80144505109461701
:10353000570708F498C002501109061B170B019396
:1035400011936D937C93CF010E9486198CC05B010F
:10355000A01AB10A4E01800E911EA0917704B0917D
:103560007804612C712C60E070E0109709F449C078
:10357000A815B905C9F5ED90FC901197670142E0D7
:10358000C40ED11CCA14DB0478F147018A189B08C9
:10359000640142E0C40ED11C1296BC90129713969F
:1035A000AC91B5E0CB16D10440F0B282A3839182F6
:1035B0008082D9018D939C9309C00E5F1F4F0E0D21
:1035C0001F1DF90111830083EB2DFA2F6115710581
:1035D00031F0DB011396FC93EE93129744C0F09305
:1035E0007804E09377043FC06D917C911197661643
:1035F000770608F43B01BD0112960D90BC91A02DF9
:10360000B4CF609175047091760468157905E9F47A
:1036100068167906D0F440910001509101014115DE
:10362000510541F44DB75EB76091040170910501F9
:10363000461B570BE417F507C0F4F0937604E093AC
:103640007504F901918380830EC00E94EE187C01FD
:10365000009759F0A801BE010E94411BCE010E94B3
:103660008619C70104C0CE0102C080E090E0CDB74A
:10367000DEB7EEE00C94791B81E090E0F8940C94B6
:10368000901BFB01DC0102C001900D9241505040A3
:10369000D8F70895FB01DC0101900D920020E1F7BD
:1036A0000895B7FF0C94BA180E94BA18821B930BA6
:1036B00008952F923F924F925F926F927F928F92D6
:1036C0009F92AF92BF92CF92DF92EF92FF920F93B1
:1036D0001F93CF93DF93CDB7DEB7CA1BDB0B0FB6BB
:1036E000F894DEBF0FBECDBF09942A883988488878
:1036F0005F846E847D848C849B84AA84B984C8840E
:10370000DF80EE80FD800C811B81AA81B981CE0F04
:10371000D11D0FB6F894DEBF0FBECDBFED010895E9
:04372000F894FFCF4B
:1037240000007904800001000000643E00000000F5
:103734000000000000000000000000000000000085
:103744000000000000000000000000000000000075
:103754000000C0E0F0F8FCFCFEFFFCE0000000000C
:103764000000000000000000000000000000000055
:103774000000000000000000000000000000000045
:103784000000000000000000000000000000000035
:1037940000F8F8F8F8F8F8F8F8F8F8F8F8F0F0E0C5
:1037A400E0C080C0FCFFFFFFFF7F3F7FFFFFFFFF04
:1037B400FF00000000000000000000000000000006
:1037C40000000000000000000000000000000000F5
:1037D40000000000000000000000000000000000E5
:1037E4000000000000000F1F3F7FFFFFFFFFFFFFEF
:1037F400FFFFE7C7C7878F9F9FFFFFFFC1C0E0FCA4
:10380400FFFFFFFFFFFCFCFCFCFEFEFEFCFCF8F8E7
:10381400F0E0C0C000000000000000000000000054
:103824000000000000000000000000000000000094
:103834000000000000000000000000000080C0E064
:10384400F1FBFFFFFFFFFF7F1F0F0F87E7FFFFFF66
:103854001F1F3FF9F8F8F8F8F8F8FDFFFFFFFFFF26
:10386400FFFFFFFF7F3F0F07010000000000000083
:103874000000000000000000000000000000000044
:10388400000000000000000000000000000000F044
:10389400FEFFFFFFFFFFFFFFFFFFFFFE7E3F3F0F27
:1038A4001FFFFFFFFCF0E0F1FFFFFFFFFFFCF00153
:1038B40001010101010101000000000000000000FD
:1038C40000000000000000000000000000000000F4
:1038D40000000000000000000000000000000000E4
:1038E40000000003030303030303030101010100B8
:1038F400000000000000030F1F3F7F7FFFFFFFFF5A
:103904007F7F1F0300000000000000000000000093
:1039140000000000000000000000000000000000A3
:1039240000000000FF204B6974636F2E6672002054
:10393400202050720073656E74650020536E616BB5
:103944006520002020202062792052006D7920001B
:10395400205065726475202100000000007D0C5326
:1039640013521815081B093209CC0848097D099B14
:1039740009000000007D0C5313700D15081B09325B
:1039840009CC0848097D099B0900000000ED11538A
:10399400136F1188117A11CB110D0A006E616E003C
:0A39A400696E66006F7666002E0063
:00000001FF
