:10780000112404B714BE57985F9A4F9914C001FD14
:1078100012C080E0CED068EA71E680E090E088D0C7
:107820004F9907C068EA71E680E090E081D04F9BF5
:10783000EFD08CE0BED001FFD3D082E08093C000B7
:1078400088E18093C10086E08093C20089E1809343
:10785000C4008EE0AED0CC24DD249FD0813461F40E
:107860009CD0082FACD0023811F0013811F484E01C
:1078700001C083E08AD056C0823411F484E103C091
:10788000853419F485E0A4D04DC0853579F485D0D0
:10789000E82EFF2482D0082F10E0102F00270E2999
:1078A0001F29000F111F8BD068013CC0863521F4C1
:1078B00084E08ED080E0DECF843671F46ED06DD05F
:1078C000082F6BD0C0E2D3E068D089930150E1F774
:1078D00076D0C60188D326C08437B1F45ED05DD09F
:1078E000F82E5BD06CD0F601EF2C8F010F5F1F4F8D
:1078F00084914BD0EA94F801C1F70894C11CD11CC3
:10790000FA94CF0CD11C0EC0853739F458D08EE1D3
:107910003CD085E93AD08FE0ADCF813511F488E0D5
:1079200048D04DD080E131D098CF3B9A439A08950A
:10793000DF93CF9300D000D0CDB7DEB79B01AC0171
:1079400019821A821B821C8219821A821B821C8253
:107950000CC0000089819A81AB81BC810196A11D78
:10796000B11D89839A83AB83BC8389819A81AB8162
:10797000BC8182179307A407B50758F30F900F90A7
:107980000F900F90CF91DF910895982F8091C000B4
:1079900085FFFCCF9093C60008958091C00087FFBB
:1079A000FCCF8091C00084FD01C0A8958091C600E5
:1079B0000895E0E6F0E098E1908380830895EDDF9C
:1079C000803221F088E0F5DF7894FFCF84E1DDCFCD
:1079D0001F93182FE2DF1150E9F7F1DF1F9108958F
:1079E00080E0E7DFEE27FF270994F8941124A7EF42
:1079F000B8E0FC0189E001900D928150E1F786EF3B
:107A000098E09EBF8DBF21D188E0D3DF7894FFCF6F
:107A100080E0CFDF83E48093000186E4809301015E
:107A200087E4809302011092030180E091E0DDCFB2
:107A30008EBD0DB407FEFDCF08951F93CF93DF9346
:107A40008FEFF6DF4198C3E0D1E08991F1DF81E06B
:107A5000C930D807D1F710E08FEFEADF8EB587FF86
:107A600003C01F5F1F3FC1F7DF91CF911F910895A2
:107A70001F93CF93DF93660F771F881F991F21E510
:107A80002093030180930401709305016093060124
:107A900010920701D2DF882341F41FEF8FEFC8DF78
:107AA0008EB58E3F29F01150C9F7419A83E010C07E
:107AB000CEE1D1E08FEFBCDF8EB5899383E0CE318C
:107AC000D807C1F78FEFB4DF8FEFB2DF419A80E0C4
:107AD000DF91CF911F9108956F927F929F92AF9205
:107AE000BF92CF92DF92EF92FF920F931F93CF93AB
:107AF000DF93A0901C01B0901D018EE1A81683E0D9
:107B0000B80608F461C0C0911401D0911501C0906D
:107B10001601D0901701E09011019E2C9694892DAA
:107B2000860103C01695079586958823D9F760903E
:107B30001201709013012FEF16C08D2F9927F82E88
:107B4000281731F0B301680F711D80E090E090DFDD
:107B5000FE01F070EE0FFF1FE25EFE4FC081D1818B
:107B6000015010402F2D0115110539F722979E0164
:107B700040E050E005C0220F331F441F551F96946C
:107B80009920C9F7EA94EC2060910B0170910C01E7
:107B900080910D0190910E016E0D711D811D911D41
:107BA000620F731F841F951F63DF0894C11CD11CD3
:107BB000D0921701C092160180E09EEFA80EB91E68
:107BC000B0921D01A0921C018091180190911901A1
:107BD000A0911A01B0911B010197A109B1098093ED
:107BE000180190931901A0931A01B0931B01E09121
:107BF0001C01F0911D018191F0931D01E0931C0186
:107C0000DF91CF911F910F91FF90EF90DF90CF9078
:107C1000BF90AF909F907F906F900895813614F041
:107C200087550895813414F08753089580330CF0FC
:107C3000805308951F9350DFF1DF182F4DDFEEDFE3
:107C40001295107F810F1F9108954F925F926F924E
:107C50007F928F929F92AF92BF92CF92DF92EF92DC
:107C6000FF920F931F93CF93DF932A9A84B18C6274
:107C700084B9399A83E58CBD8DB58E7F8DBD0AE0C0
:107C80008FEFD6DE0150E1F780E48093030110927C
:107C9000040110920501109206011092070185E976
:107CA00080930801CADE182F419A8FEFC1DE113090
:107CB00009F467C10F5F0031A9F729C1419A8FEF1D
:107CC000B7DEBBDE8823D1F735C1809158018633FA
:107CD00029F4109213011092120117C06091E4026E
:107CE0007091E5028091E6029091E7027093130192
:107CF00060931201BDDE80915401863409F007C102
:107D000080915801863309F002C180912B01809344
:107D1000110140912C0150912D01809112019091FF
:107D20001301480F591F5093130140931201809182
:107D30002E0190E02091340130913501829F500155
:107D4000839FB00C929FB00C1124A40EB51EB0926C
:107D50000A01A0920901C0902F01D090300134E0B7
:107D6000D694C7943A95E1F7D0921001C0920F01D2
:107D7000C5018C0D9D1DA0E0B0E080930B01909398
:107D80000C01A0930D01B0930E0180901C01909006
:107D90001D014090160150901701E0901801F090DD
:107DA000190100911A0110911B016090140170904B
:107DB0001501C0E0D0E0BE0124E0769567952A95D4
:107DC000E1F76C157D05F0F56A0D7B1D80E090E014
:107DD0004FDE9E012F70A22FB0E095E0AA0FBB1FCF
:107DE0009A95E1F7A25EBE4F8C91882359F15A967D
:107DF0002D913C915B972115310521F15C96ED9019
:107E0000FD900D911C915F978EE1882E83E0982E56
:107E100051E090E009C040E0EA0FFB1F8081681745
:107E200009F441E054239F5FE92FF0E0E950F74F58
:107E30006081E75FF840662371F7552329F09923A5
:107E400019F083C0930102C044245524219682E096
:107E5000C030D80711F03901AECF90921D01809249
:107E60001C015092170140921601E0921801F09205
:107E7000190100931A0110931B01309315012093EF
:107E8000140181E090E045C01123C9F0D3DE89934D
:107E9000115023E0C03AD20719F580911E0390914A
:107EA0001F03A1D080911E0390911F0380589F4F04
:107EB00090931F0380931E03C0E2D3E011C00CDE39
:107EC0008A3371F4B7DE182F80911C0190911D0147
:107ED000049690931D0180931C01ACDE882361F40D
:107EE0008091180190911901A0911A01B0911B0184
:107EF0000097A105B10541F6C052D34029F0809109
:107F00001E0390911F036FD080E090E002C082E0DA
:107F100090E0DF91CF911F910F91FF90EF90DF9054
:107F2000CF90BF90AF909F908F907F906F905F9019
:107F30004F90089560E070E080E090E099DD8091DE
:107F40005401863409F0CACEC0CE90921D018092B1
:107F50001C011092170110921601E0921801F09284
:107F6000190100931A0110931B01309315012093FE
:107F7000140110921F0310921E03C0E2D3E010E020
:107F8000AFCF81E4809303019CCE1F93AC01F9999C
:107F9000FECF83E0FA0180935700E89507B600FC16
:107FA000FDCF20E030E011E0F901E40FF51FDB0127
:107FB000A20FB31F8D919C910C0110935700E8956F
:107FC00011242E5F3F4F2038310571F785E0FA010B
:107FD00080935700E89507B600FCFDCF81E187BF8D
:107FE000E8951F91089527E78130920718F460E221
:067FF00073E0CBCF089501
:047FFA00C7CFF6CC2B
:027FFE00040479
:040000030000780081
:00000001FF
